{
  "contractName": "Funded",
  "abi": [
    {
      "constant": false,
      "inputs": [],
      "name": "stopContract",
      "outputs": [
        {
          "name": "_success",
          "type": "bool"
        }
      ],
      "payable": false,
      "stateMutability": "nonpayable",
      "type": "function"
    },
    {
      "constant": false,
      "inputs": [
        {
          "name": "_depositor",
          "type": "address"
        },
        {
          "name": "_newBalance",
          "type": "uint256"
        }
      ],
      "name": "cashierUpdateDepositorBalance",
      "outputs": [
        {
          "name": "_success",
          "type": "bool"
        }
      ],
      "payable": false,
      "stateMutability": "nonpayable",
      "type": "function"
    },
    {
      "constant": false,
      "inputs": [
        {
          "name": "_amount",
          "type": "uint256"
        }
      ],
      "name": "withdrawFunds",
      "outputs": [
        {
          "name": "_success",
          "type": "bool"
        }
      ],
      "payable": false,
      "stateMutability": "nonpayable",
      "type": "function"
    },
    {
      "constant": true,
      "inputs": [
        {
          "name": "_depositor",
          "type": "address"
        }
      ],
      "name": "isDepositor",
      "outputs": [
        {
          "name": "_is",
          "type": "bool"
        }
      ],
      "payable": false,
      "stateMutability": "view",
      "type": "function"
    },
    {
      "constant": true,
      "inputs": [],
      "name": "getNewOwner",
      "outputs": [
        {
          "name": "_newOwner",
          "type": "address"
        }
      ],
      "payable": false,
      "stateMutability": "view",
      "type": "function"
    },
    {
      "constant": true,
      "inputs": [],
      "name": "isStopped",
      "outputs": [
        {
          "name": "_stop",
          "type": "bool"
        }
      ],
      "payable": false,
      "stateMutability": "view",
      "type": "function"
    },
    {
      "constant": false,
      "inputs": [
        {
          "name": "_cashier",
          "type": "address"
        }
      ],
      "name": "addCashier",
      "outputs": [
        {
          "name": "_success",
          "type": "bool"
        }
      ],
      "payable": false,
      "stateMutability": "nonpayable",
      "type": "function"
    },
    {
      "constant": false,
      "inputs": [
        {
          "name": "_amount",
          "type": "uint256"
        }
      ],
      "name": "spendFunds",
      "outputs": [
        {
          "name": "_success",
          "type": "bool"
        }
      ],
      "payable": false,
      "stateMutability": "nonpayable",
      "type": "function"
    },
    {
      "constant": false,
      "inputs": [
        {
          "name": "_beneficiary",
          "type": "address"
        },
        {
          "name": "_amount",
          "type": "uint256"
        }
      ],
      "name": "emergencyRefund",
      "outputs": [
        {
          "name": "_success",
          "type": "bool"
        }
      ],
      "payable": false,
      "stateMutability": "nonpayable",
      "type": "function"
    },
    {
      "constant": true,
      "inputs": [],
      "name": "getContractBalance",
      "outputs": [
        {
          "name": "_contractBalance",
          "type": "uint256"
        }
      ],
      "payable": false,
      "stateMutability": "view",
      "type": "function"
    },
    {
      "constant": false,
      "inputs": [
        {
          "name": "_from",
          "type": "address"
        },
        {
          "name": "_to",
          "type": "address"
        },
        {
          "name": "_amount",
          "type": "uint256"
        }
      ],
      "name": "cashierMoveDeposits",
      "outputs": [
        {
          "name": "_success",
          "type": "bool"
        }
      ],
      "payable": false,
      "stateMutability": "nonpayable",
      "type": "function"
    },
    {
      "constant": true,
      "inputs": [
        {
          "name": "_cashier",
          "type": "address"
        }
      ],
      "name": "isCashier",
      "outputs": [
        {
          "name": "_is",
          "type": "bool"
        }
      ],
      "payable": false,
      "stateMutability": "view",
      "type": "function"
    },
    {
      "constant": true,
      "inputs": [],
      "name": "getOwner",
      "outputs": [
        {
          "name": "_owner",
          "type": "address"
        }
      ],
      "payable": false,
      "stateMutability": "view",
      "type": "function"
    },
    {
      "constant": false,
      "inputs": [
        {
          "name": "_newOwner",
          "type": "address"
        }
      ],
      "name": "changeOwner",
      "outputs": [
        {
          "name": "_success",
          "type": "bool"
        }
      ],
      "payable": false,
      "stateMutability": "nonpayable",
      "type": "function"
    },
    {
      "constant": true,
      "inputs": [
        {
          "name": "_depositor",
          "type": "address"
        }
      ],
      "name": "getDepositorBalance",
      "outputs": [
        {
          "name": "_balance",
          "type": "uint256"
        }
      ],
      "payable": false,
      "stateMutability": "view",
      "type": "function"
    },
    {
      "constant": false,
      "inputs": [],
      "name": "resumeContract",
      "outputs": [
        {
          "name": "_success",
          "type": "bool"
        }
      ],
      "payable": false,
      "stateMutability": "nonpayable",
      "type": "function"
    },
    {
      "constant": false,
      "inputs": [
        {
          "name": "_cashier",
          "type": "address"
        }
      ],
      "name": "removeCashier",
      "outputs": [
        {
          "name": "_success",
          "type": "bool"
        }
      ],
      "payable": false,
      "stateMutability": "nonpayable",
      "type": "function"
    },
    {
      "constant": false,
      "inputs": [],
      "name": "depositFunds",
      "outputs": [
        {
          "name": "_success",
          "type": "bool"
        }
      ],
      "payable": true,
      "stateMutability": "payable",
      "type": "function"
    },
    {
      "constant": false,
      "inputs": [],
      "name": "confirmChangeOwner",
      "outputs": [
        {
          "name": "_success",
          "type": "bool"
        }
      ],
      "payable": false,
      "stateMutability": "nonpayable",
      "type": "function"
    },
    {
      "inputs": [
        {
          "name": "_cashier",
          "type": "address"
        }
      ],
      "payable": false,
      "stateMutability": "nonpayable",
      "type": "constructor"
    },
    {
      "anonymous": false,
      "inputs": [
        {
          "indexed": false,
          "name": "_sender",
          "type": "address"
        },
        {
          "indexed": false,
          "name": "_cashier",
          "type": "address"
        }
      ],
      "name": "LogFundedNew",
      "type": "event"
    },
    {
      "anonymous": false,
      "inputs": [
        {
          "indexed": false,
          "name": "_sender",
          "type": "address"
        },
        {
          "indexed": false,
          "name": "_amount",
          "type": "uint256"
        }
      ],
      "name": "LogFundedDepositFunds",
      "type": "event"
    },
    {
      "anonymous": false,
      "inputs": [
        {
          "indexed": false,
          "name": "_sender",
          "type": "address"
        },
        {
          "indexed": false,
          "name": "_amount",
          "type": "uint256"
        }
      ],
      "name": "LogFundedWithdrawFunds",
      "type": "event"
    },
    {
      "anonymous": false,
      "inputs": [
        {
          "indexed": false,
          "name": "_sender",
          "type": "address"
        },
        {
          "indexed": false,
          "name": "_amount",
          "type": "uint256"
        }
      ],
      "name": "LogFundedSpendFunds",
      "type": "event"
    },
    {
      "anonymous": false,
      "inputs": [
        {
          "indexed": false,
          "name": "_sender",
          "type": "address"
        },
        {
          "indexed": false,
          "name": "_cashier",
          "type": "address"
        }
      ],
      "name": "LogFundedAddCashier",
      "type": "event"
    },
    {
      "anonymous": false,
      "inputs": [
        {
          "indexed": false,
          "name": "_sender",
          "type": "address"
        },
        {
          "indexed": false,
          "name": "_cashier",
          "type": "address"
        }
      ],
      "name": "LogFundedRemoveCashier",
      "type": "event"
    },
    {
      "anonymous": false,
      "inputs": [
        {
          "indexed": false,
          "name": "_sender",
          "type": "address"
        },
        {
          "indexed": false,
          "name": "_from",
          "type": "address"
        },
        {
          "indexed": false,
          "name": "_to",
          "type": "address"
        },
        {
          "indexed": false,
          "name": "_amount",
          "type": "uint256"
        }
      ],
      "name": "LogFundedCashierMoveDeposits",
      "type": "event"
    },
    {
      "anonymous": false,
      "inputs": [
        {
          "indexed": false,
          "name": "_sender",
          "type": "address"
        },
        {
          "indexed": false,
          "name": "_depositor",
          "type": "address"
        },
        {
          "indexed": false,
          "name": "_newBalance",
          "type": "uint256"
        }
      ],
      "name": "LogFundedCashierUpdateDepositorBalance",
      "type": "event"
    },
    {
      "anonymous": false,
      "inputs": [
        {
          "indexed": false,
          "name": "_sender",
          "type": "address"
        },
        {
          "indexed": false,
          "name": "_beneficiary",
          "type": "address"
        },
        {
          "indexed": false,
          "name": "_amount",
          "type": "uint256"
        }
      ],
      "name": "LogFundedEmergencyRefund",
      "type": "event"
    },
    {
      "anonymous": false,
      "inputs": [
        {
          "indexed": false,
          "name": "_sender",
          "type": "address"
        }
      ],
      "name": "LogStoppableStopContract",
      "type": "event"
    },
    {
      "anonymous": false,
      "inputs": [
        {
          "indexed": false,
          "name": "_sender",
          "type": "address"
        }
      ],
      "name": "LogStoppableResumeContract",
      "type": "event"
    },
    {
      "anonymous": false,
      "inputs": [
        {
          "indexed": false,
          "name": "_sender",
          "type": "address"
        }
      ],
      "name": "LogOwnedNew",
      "type": "event"
    },
    {
      "anonymous": false,
      "inputs": [
        {
          "indexed": false,
          "name": "_sender",
          "type": "address"
        },
        {
          "indexed": false,
          "name": "_newOwner",
          "type": "address"
        }
      ],
      "name": "LogOwnedChangeOwner",
      "type": "event"
    },
    {
      "anonymous": false,
      "inputs": [
        {
          "indexed": false,
          "name": "_sender",
          "type": "address"
        },
        {
          "indexed": false,
          "name": "_newOwner",
          "type": "address"
        }
      ],
      "name": "LogOwnedConfirmChangeOwner",
      "type": "event"
    }
  ],
  "bytecode": "0x6060604052341561000f57600080fd5b604051602080611c9383398101604052808051906020019091905050336000806101000a81548173ffffffffffffffffffffffffffffffffffffffff021916908373ffffffffffffffffffffffffffffffffffffffff1602179055507f3452aa652f56729b39a9198f36cd36bee3117c0112792f8707bab75d357e66e533604051808273ffffffffffffffffffffffffffffffffffffffff1673ffffffffffffffffffffffffffffffffffffffff16815260200191505060405180910390a16001600460008373ffffffffffffffffffffffffffffffffffffffff1673ffffffffffffffffffffffffffffffffffffffff16815260200190815260200160002060006101000a81548160ff0219169083151502179055507f54f37a896ffe3731a391b11674ff5b46c60abff865f9bc3f073e0c1a932029ff3382604051808373ffffffffffffffffffffffffffffffffffffffff1673ffffffffffffffffffffffffffffffffffffffff1681526020018273ffffffffffffffffffffffffffffffffffffffff1673ffffffffffffffffffffffffffffffffffffffff1681526020019250505060405180910390a150611ac6806101cd6000396000f300606060405260043610610107576000357c0100000000000000000000000000000000000000000000000000000000900463ffffffff16806312253a6c1461010c5780631468b30914610139578063155dd5ee146101935780632f70d1ba146101ce5780633e2fe1491461021f5780633f683b6a14610274578063619c3b99146102a15780636457d7dc146102f257806367f8a8b81461032d5780636f9fb98a146103875780637cdc132a146103b05780637dd45b8b14610429578063893d20e81461047a578063a6f9dae1146104cf578063b79215d614610520578063c4bc5da51461056d578063d3b12eb81461059a578063e2c41dbc146105eb578063eae043881461060d575b600080fd5b341561011757600080fd5b61011f61063a565b604051808215151515815260200191505060405180910390f35b341561014457600080fd5b610179600480803573ffffffffffffffffffffffffffffffffffffffff1690602001909190803590602001909190505061071b565b604051808215151515815260200191505060405180910390f35b341561019e57600080fd5b6101b4600480803590602001909190505061087e565b604051808215151515815260200191505060405180910390f35b34156101d957600080fd5b610205600480803573ffffffffffffffffffffffffffffffffffffffff16906020019091905050610a68565b604051808215151515815260200191505060405180910390f35b341561022a57600080fd5b610232610ab3565b604051808273ffffffffffffffffffffffffffffffffffffffff1673ffffffffffffffffffffffffffffffffffffffff16815260200191505060405180910390f35b341561027f57600080fd5b610287610add565b604051808215151515815260200191505060405180910390f35b34156102ac57600080fd5b6102d8600480803573ffffffffffffffffffffffffffffffffffffffff16906020019091905050610af4565b604051808215151515815260200191505060405180910390f35b34156102fd57600080fd5b6103136004808035906020019091905050610c8b565b604051808215151515815260200191505060405180910390f35b341561033857600080fd5b61036d600480803573ffffffffffffffffffffffffffffffffffffffff16906020019091908035906020019091905050610eb6565b604051808215151515815260200191505060405180910390f35b341561039257600080fd5b61039a6110b7565b6040518082815260200191505060405180910390f35b34156103bb57600080fd5b61040f600480803573ffffffffffffffffffffffffffffffffffffffff1690602001909190803573ffffffffffffffffffffffffffffffffffffffff169060200190919080359060200190919050506110c1565b604051808215151515815260200191505060405180910390f35b341561043457600080fd5b610460600480803573ffffffffffffffffffffffffffffffffffffffff16906020019091905050611323565b604051808215151515815260200191505060405180910390f35b341561048557600080fd5b61048d611379565b604051808273ffffffffffffffffffffffffffffffffffffffff1673ffffffffffffffffffffffffffffffffffffffff16815260200191505060405180910390f35b34156104da57600080fd5b610506600480803573ffffffffffffffffffffffffffffffffffffffff169060200190919050506113a2565b604051808215151515815260200191505060405180910390f35b341561052b57600080fd5b610557600480803573ffffffffffffffffffffffffffffffffffffffff16906020019091905050611506565b6040518082815260200191505060405180910390f35b341561057857600080fd5b61058061154f565b604051808215151515815260200191505060405180910390f35b34156105a557600080fd5b6105d1600480803573ffffffffffffffffffffffffffffffffffffffff16906020019091905050611631565b604051808215151515815260200191505060405180910390f35b6105f36117fa565b604051808215151515815260200191505060405180910390f35b341561061857600080fd5b6106206118f5565b604051808215151515815260200191505060405180910390f35b60008060009054906101000a900473ffffffffffffffffffffffffffffffffffffffff1673ffffffffffffffffffffffffffffffffffffffff163373ffffffffffffffffffffffffffffffffffffffff1614151561069757600080fd5b60018060146101000a81548160ff0219169083151502179055507fdc5107df853e31da94e9c53d37f4d2b899e5fb7b6308111493accae88b2659aa33604051808273ffffffffffffffffffffffffffffffffffffffff1673ffffffffffffffffffffffffffffffffffffffff16815260200191505060405180910390a16001905090565b6000600460003373ffffffffffffffffffffffffffffffffffffffff1673ffffffffffffffffffffffffffffffffffffffff16815260200190815260200160002060009054906101000a900460ff16151561077557600080fd5b600160149054906101000a900460ff1615151561079157600080fd5b81600560008573ffffffffffffffffffffffffffffffffffffffff1673ffffffffffffffffffffffffffffffffffffffff168152602001908152602001600020819055507fc472ca3d2d146978d10303f53588d609093fd3f9e7a6f59713bae3756bb66e57338484604051808473ffffffffffffffffffffffffffffffffffffffff1673ffffffffffffffffffffffffffffffffffffffff1681526020018373ffffffffffffffffffffffffffffffffffffffff1673ffffffffffffffffffffffffffffffffffffffff168152602001828152602001935050505060405180910390a16001905092915050565b600080600560003373ffffffffffffffffffffffffffffffffffffffff1673ffffffffffffffffffffffffffffffffffffffff168152602001908152602001600020541115156108cd57600080fd5b600160149054906101000a900460ff161515156108e957600080fd5b60006002541115156108fa57600080fd5b81600560003373ffffffffffffffffffffffffffffffffffffffff1673ffffffffffffffffffffffffffffffffffffffff168152602001908152602001600020541015151561094857600080fd5b60008211151561095757600080fd5b8160026000828254039250508190555081600560003373ffffffffffffffffffffffffffffffffffffffff1673ffffffffffffffffffffffffffffffffffffffff168152602001908152602001600020600082825403925050819055503373ffffffffffffffffffffffffffffffffffffffff166108fc839081150290604051600060405180830381858888f1935050505015156109f457600080fd5b7f907c87443b7c486a4498fac21718c282bb00ea3263fff068699a08656763669a3383604051808373ffffffffffffffffffffffffffffffffffffffff1673ffffffffffffffffffffffffffffffffffffffff1681526020018281526020019250505060405180910390a160019050919050565b600080600560008473ffffffffffffffffffffffffffffffffffffffff1673ffffffffffffffffffffffffffffffffffffffff16815260200190815260200160002054119050919050565b6000600160009054906101000a900473ffffffffffffffffffffffffffffffffffffffff16905090565b6000600160149054906101000a900460ff16905090565b60008060009054906101000a900473ffffffffffffffffffffffffffffffffffffffff1673ffffffffffffffffffffffffffffffffffffffff163373ffffffffffffffffffffffffffffffffffffffff16141515610b5157600080fd5b600160149054906101000a900460ff16151515610b6d57600080fd5b60008273ffffffffffffffffffffffffffffffffffffffff1614151515610b9357600080fd5b6001600460008473ffffffffffffffffffffffffffffffffffffffff1673ffffffffffffffffffffffffffffffffffffffff16815260200190815260200160002060006101000a81548160ff0219169083151502179055507f46dc75f891188b0f605cc4e4fa13015d65591a3f1ae87f4fc5eeeb41b686a9873383604051808373ffffffffffffffffffffffffffffffffffffffff1673ffffffffffffffffffffffffffffffffffffffff1681526020018273ffffffffffffffffffffffffffffffffffffffff1673ffffffffffffffffffffffffffffffffffffffff1681526020019250505060405180910390a160019050919050565b600080600560003373ffffffffffffffffffffffffffffffffffffffff1673ffffffffffffffffffffffffffffffffffffffff16815260200190815260200160002054111515610cda57600080fd5b600160149054906101000a900460ff16151515610cf657600080fd5b6000600254111515610d0757600080fd5b81600560003373ffffffffffffffffffffffffffffffffffffffff1673ffffffffffffffffffffffffffffffffffffffff1681526020019081526020016000205410151515610d5557600080fd5b600560003373ffffffffffffffffffffffffffffffffffffffff1673ffffffffffffffffffffffffffffffffffffffff16815260200190815260200160002054821415610de457600560003373ffffffffffffffffffffffffffffffffffffffff1673ffffffffffffffffffffffffffffffffffffffff16815260200190815260200160002060009055610e32565b81600560003373ffffffffffffffffffffffffffffffffffffffff1673ffffffffffffffffffffffffffffffffffffffff168152602001908152602001600020600082825403925050819055505b816003600082825401925050819055507fd0cde6a28760b9ac8bd13517e8780a4f4e238f6bb74fa19d7ab431d061df87ea3383604051808373ffffffffffffffffffffffffffffffffffffffff1673ffffffffffffffffffffffffffffffffffffffff1681526020018281526020019250505060405180910390a160019050919050565b60008060009054906101000a900473ffffffffffffffffffffffffffffffffffffffff1673ffffffffffffffffffffffffffffffffffffffff163373ffffffffffffffffffffffffffffffffffffffff16141515610f1357600080fd5b81600254111515610f2357600080fd5b81600560008573ffffffffffffffffffffffffffffffffffffffff1673ffffffffffffffffffffffffffffffffffffffff1681526020019081526020016000205410151515610f7157600080fd5b8160026000828254039250508190555081600560008573ffffffffffffffffffffffffffffffffffffffff1673ffffffffffffffffffffffffffffffffffffffff168152602001908152602001600020600082825403925050819055508273ffffffffffffffffffffffffffffffffffffffff166108fc839081150290604051600060405180830381858888f19350505050151561100e57600080fd5b7f3f477375acc3c435adc9e6df6724b60b6c65acb3c3560c5e0669148f501fd9b7338484604051808473ffffffffffffffffffffffffffffffffffffffff1673ffffffffffffffffffffffffffffffffffffffff1681526020018373ffffffffffffffffffffffffffffffffffffffff1673ffffffffffffffffffffffffffffffffffffffff168152602001828152602001935050505060405180910390a16001905092915050565b6000600254905090565b6000600460003373ffffffffffffffffffffffffffffffffffffffff1673ffffffffffffffffffffffffffffffffffffffff16815260200190815260200160002060009054906101000a900460ff16151561111b57600080fd5b600160149054906101000a900460ff1615151561113757600080fd5b81600560008673ffffffffffffffffffffffffffffffffffffffff1673ffffffffffffffffffffffffffffffffffffffff168152602001908152602001600020541015151561118557600080fd5b60008373ffffffffffffffffffffffffffffffffffffffff16141515156111ab57600080fd5b81600560008673ffffffffffffffffffffffffffffffffffffffff1673ffffffffffffffffffffffffffffffffffffffff1681526020019081526020016000206000828254039250508190555081600560008573ffffffffffffffffffffffffffffffffffffffff1673ffffffffffffffffffffffffffffffffffffffff168152602001908152602001600020600082825401925050819055507f5988daed7666ccc67d9e91228a9d48ca4abd4250e643e26c620e3c1bb4e3e98333858585604051808573ffffffffffffffffffffffffffffffffffffffff1673ffffffffffffffffffffffffffffffffffffffff1681526020018473ffffffffffffffffffffffffffffffffffffffff1673ffffffffffffffffffffffffffffffffffffffff1681526020018373ffffffffffffffffffffffffffffffffffffffff1673ffffffffffffffffffffffffffffffffffffffff16815260200182815260200194505050505060405180910390a1600190509392505050565b6000600460008373ffffffffffffffffffffffffffffffffffffffff1673ffffffffffffffffffffffffffffffffffffffff16815260200190815260200160002060009054906101000a900460ff169050919050565b60008060009054906101000a900473ffffffffffffffffffffffffffffffffffffffff16905090565b60008060009054906101000a900473ffffffffffffffffffffffffffffffffffffffff1673ffffffffffffffffffffffffffffffffffffffff163373ffffffffffffffffffffffffffffffffffffffff161415156113ff57600080fd5b60008273ffffffffffffffffffffffffffffffffffffffff161415151561142557600080fd5b81600160006101000a81548173ffffffffffffffffffffffffffffffffffffffff021916908373ffffffffffffffffffffffffffffffffffffffff1602179055507fae3fd6fbd4e7d8a4e53ecf89c51f72c00191a8d8d2c2fba3a5f4d9224996a6ae3383604051808373ffffffffffffffffffffffffffffffffffffffff1673ffffffffffffffffffffffffffffffffffffffff1681526020018273ffffffffffffffffffffffffffffffffffffffff1673ffffffffffffffffffffffffffffffffffffffff1681526020019250505060405180910390a160019050919050565b6000600560008373ffffffffffffffffffffffffffffffffffffffff1673ffffffffffffffffffffffffffffffffffffffff168152602001908152602001600020549050919050565b60008060009054906101000a900473ffffffffffffffffffffffffffffffffffffffff1673ffffffffffffffffffffffffffffffffffffffff163373ffffffffffffffffffffffffffffffffffffffff161415156115ac57600080fd5b6000600160146101000a81548160ff0219169083151502179055507fbe8d7a0d2974b6d29c6b0e1f7199c77822dd586b666191ba97458c086c3d2d6433604051808273ffffffffffffffffffffffffffffffffffffffff1673ffffffffffffffffffffffffffffffffffffffff16815260200191505060405180910390a16001905090565b60008060009054906101000a900473ffffffffffffffffffffffffffffffffffffffff1673ffffffffffffffffffffffffffffffffffffffff163373ffffffffffffffffffffffffffffffffffffffff1614151561168e57600080fd5b600160149054906101000a900460ff161515156116aa57600080fd5b600460008373ffffffffffffffffffffffffffffffffffffffff1673ffffffffffffffffffffffffffffffffffffffff16815260200190815260200160002060009054906101000a900460ff16151561170257600080fd5b6000600460008473ffffffffffffffffffffffffffffffffffffffff1673ffffffffffffffffffffffffffffffffffffffff16815260200190815260200160002060006101000a81548160ff0219169083151502179055507fb4e91836df982c7ee700e54f7a1ded1a97dd3e8603fa1782c8ce789b7c452e243383604051808373ffffffffffffffffffffffffffffffffffffffff1673ffffffffffffffffffffffffffffffffffffffff1681526020018273ffffffffffffffffffffffffffffffffffffffff1673ffffffffffffffffffffffffffffffffffffffff1681526020019250505060405180910390a160019050919050565b6000600160149054906101000a900460ff1615151561181857600080fd5b3073ffffffffffffffffffffffffffffffffffffffff163160028190555034600560003373ffffffffffffffffffffffffffffffffffffffff1673ffffffffffffffffffffffffffffffffffffffff168152602001908152602001600020600082825401925050819055507f97b04a76e1da57a78ee04eb762cdb5c8bfcdb0511e6f5d88350791bfc1635c1c3334604051808373ffffffffffffffffffffffffffffffffffffffff1673ffffffffffffffffffffffffffffffffffffffff1681526020018281526020019250505060405180910390a16001905090565b6000600160009054906101000a900473ffffffffffffffffffffffffffffffffffffffff1673ffffffffffffffffffffffffffffffffffffffff163373ffffffffffffffffffffffffffffffffffffffff1614151561195357600080fd5b600160009054906101000a900473ffffffffffffffffffffffffffffffffffffffff166000806101000a81548173ffffffffffffffffffffffffffffffffffffffff021916908373ffffffffffffffffffffffffffffffffffffffff160217905550600160006101000a81549073ffffffffffffffffffffffffffffffffffffffff02191690557f0d58bef243249903c29496d81a7ffbe3f394735e5ccd3e1dabbfec82c635c8d933600160009054906101000a900473ffffffffffffffffffffffffffffffffffffffff16604051808373ffffffffffffffffffffffffffffffffffffffff1673ffffffffffffffffffffffffffffffffffffffff1681526020018273ffffffffffffffffffffffffffffffffffffffff1673ffffffffffffffffffffffffffffffffffffffff1681526020019250505060405180910390a160019050905600a165627a7a7230582047b84e63fc974c5b53699036c648ac1d4734a969aebee97f5fff822702e3e0160029",
  "source": "pragma solidity ^0.4.4;\r\n\r\nimport \"./Stoppable.sol\";\r\n\r\n// Common functions for contracts that are funded\r\ncontract Funded is Stoppable {\r\n    uint256 private contractBalance;\r\n    uint256 private contractProfit;\r\n    mapping (address => bool) private cashiers; //addresses that can transfer funds between depositers\r\n    mapping (address => uint256) private depositors; //total amount received by address\r\n\r\n    event LogFundedNew (address _sender, address _cashier);\r\n    // Constructor. A default cashier is mandatory\r\n    function Funded (address _cashier)\r\n        public\r\n    {\r\n        cashiers[_cashier] = true;\r\n        LogFundedNew (msg.sender, _cashier);\r\n    }\r\n\r\n    modifier onlyCashiers () { require(cashiers[msg.sender]); _; }\r\n    modifier onlyDepositors () { require (depositors[msg.sender] > 0); _; }\r\n\r\n    function getContractBalance ()\r\n        public\r\n        constant\r\n        returns (uint256 _contractBalance)\r\n    {\r\n        return contractBalance;\r\n    }\r\n\r\n    function isCashier (address _cashier)\r\n        public\r\n        constant\r\n        returns (bool _is)\r\n    {\r\n        return (cashiers[_cashier]);\r\n    }\r\n\r\n    function isDepositor (address _depositor)\r\n        public\r\n        constant\r\n        returns (bool _is)\r\n    {\r\n        return (depositors[_depositor] > 0);\r\n    }\r\n\r\n    function getDepositorBalance (address _depositor)\r\n        public\r\n        constant\r\n        returns (uint256 _balance)\r\n    {\r\n        return (depositors[_depositor]);\r\n    }\r\n\r\n    event LogFundedDepositFunds (address _sender, uint _amount);\r\n    // Fallback function payable to enable a contract to receive funds when inherinting this contract\r\n    // The idea is to keep track of the funds and funders through this fallback function\r\n    // The contract that inherits this contract shall not apply its own payable functions. Only use these ones\r\n    function depositFunds()\r\n        onlyIfRunning\r\n        payable\r\n        public\r\n        returns (bool _success)\r\n    {\r\n        contractBalance = this.balance; // account the funds stored in the contract\r\n        depositors[msg.sender] += msg.value;\r\n\r\n        LogFundedDepositFunds (msg.sender, msg.value);\r\n        return true;\r\n    }\r\n\r\n    event LogFundedWithdrawFunds (address _sender, uint _amount);\r\n    // Function to withdraw money from sender's own balance\r\n    function withdrawFunds (uint _amount)\r\n        onlyDepositors\r\n        onlyIfRunning\r\n        public\r\n        returns (bool _success)\r\n    {\r\n        require (contractBalance > 0); //prevent re-entry\r\n        require (depositors[msg.sender] >= _amount); //prevent over spending\r\n        require (_amount > 0);\r\n\r\n        contractBalance -= _amount; //optimistic accounting\r\n        depositors[msg.sender] -= _amount; //optimistic accounting\r\n\r\n        msg.sender.transfer(_amount);\r\n\r\n        LogFundedWithdrawFunds (msg.sender, _amount);\r\n        return true;\r\n    }\r\n\r\n    event LogFundedSpendFunds (address _sender, uint256 _amount);\r\n    // Allow a depositor to spend balance in the contract's services or goods\r\n    function spendFunds (uint256 _amount)\r\n        onlyDepositors\r\n        onlyIfRunning\r\n        public\r\n        returns (bool _success)\r\n    {\r\n        require (contractBalance > 0); //prevent major re-entry\r\n        require (depositors[msg.sender] >= _amount); //prevent over spending\r\n\r\n          if (_amount == depositors[msg.sender] )\r\n            delete depositors[msg.sender];\r\n          else\r\n            depositors[msg.sender] -= _amount; //optimistic accounting\r\n\r\n        contractProfit += _amount; //account the spending\r\n\r\n        LogFundedSpendFunds (msg.sender, _amount);\r\n        return true;\r\n    }\r\n\r\n    event LogFundedAddCashier (address _sender, address _cashier);\r\n    // To add a cashier to the mapping\r\n    function addCashier (address _cashier)\r\n        onlyOwner\r\n        onlyIfRunning\r\n        public\r\n        returns (bool _success)\r\n    {\r\n        require (_cashier != 0);\r\n        cashiers[_cashier] = true;\r\n        LogFundedAddCashier (msg.sender, _cashier);\r\n        return true;\r\n    }\r\n\r\n    event LogFundedRemoveCashier (address _sender, address _cashier);\r\n    // To remove a cashier from the mapping\r\n    function removeCashier (address _cashier)\r\n        onlyOwner\r\n        onlyIfRunning\r\n        public\r\n        returns (bool _success)\r\n    {\r\n        require (cashiers[_cashier]);\r\n        cashiers[_cashier] = false;\r\n        LogFundedRemoveCashier(msg.sender, _cashier);\r\n        return true;\r\n    }\r\n\r\n    event LogFundedCashierMoveDeposits (address _sender, address _from, address _to, uint256 _amount);\r\n    // Cashiers can move balance from one depositor to another depositor\r\n    function cashierMoveDeposits (address _from, address _to, uint256 _amount)\r\n        onlyCashiers\r\n        onlyIfRunning\r\n        public\r\n        returns (bool _success)\r\n    {\r\n        require (depositors[_from] >= _amount); //require origin depositor to have enough balance\r\n        require (_to != 0); //check _beneficiary is not 0\r\n\r\n        depositors[_from] -= _amount;\r\n        depositors[_to] += _amount;\r\n\r\n        LogFundedCashierMoveDeposits (msg.sender, _from, _to, _amount);\r\n        return true;\r\n    }\r\n\r\n    event LogFundedCashierUpdateDepositorBalance (address _sender, address _depositor, uint _newBalance);\r\n    // Cashiers can update the soft accounting balance for a depositor\r\n    function cashierUpdateDepositorBalance (address _depositor, uint _newBalance)\r\n        onlyCashiers\r\n        onlyIfRunning\r\n        public\r\n        returns (bool _success)\r\n    {\r\n        depositors[_depositor] = _newBalance;\r\n        LogFundedCashierUpdateDepositorBalance (msg.sender, _depositor, _newBalance);\r\n        return true;\r\n    }\r\n\r\n    event LogFundedEmergencyRefund (address _sender, address _beneficiary, uint _amount);\r\n    // Emergency function only for the owner that allows to transfer funds\r\n    // The contract doesn't require to be running to execute\r\n    function emergencyRefund (address _beneficiary, uint _amount)\r\n        onlyOwner\r\n        public\r\n        returns (bool _success)\r\n    {\r\n        require(contractBalance > _amount); //prevent re-entry\r\n        require(depositors[_beneficiary] >= _amount); //require enough balance\r\n\r\n        contractBalance -= _amount; //optimistic accounting\r\n        depositors[_beneficiary] -= _amount; //optimistic accounting\r\n\r\n        _beneficiary.transfer(_amount);\r\n\r\n        LogFundedEmergencyRefund(msg.sender, _beneficiary, _amount);\r\n        return true;\r\n    }\r\n}\r\n",
  "sourcePath": "/home/jordi/b9/Unit5/Projects/Shop/contracts/MyShared/Funded.sol",
  "compiler": {
    "name": "solc",
    "version": "0.4.18+commit.9cf6e910.Emscripten.clang"
  },
  "schemaVersion": "1.0.1",
  "updatedAt": "2018-01-29T16:45:49.127Z"
}