{
  "contractName": "FundsManager",
  "abi": [
    {
      "constant": false,
      "inputs": [],
      "name": "stopContract",
      "outputs": [
        {
          "name": "_success",
          "type": "bool"
        }
      ],
      "payable": false,
      "stateMutability": "nonpayable",
      "type": "function"
    },
    {
      "constant": true,
      "inputs": [],
      "name": "getInfoContractFunds",
      "outputs": [
        {
          "name": "_contractFunds",
          "type": "uint256"
        }
      ],
      "payable": false,
      "stateMutability": "view",
      "type": "function"
    },
    {
      "constant": true,
      "inputs": [
        {
          "name": "_depositor",
          "type": "address"
        }
      ],
      "name": "isDepositor",
      "outputs": [
        {
          "name": "_isIndeed",
          "type": "bool"
        }
      ],
      "payable": false,
      "stateMutability": "view",
      "type": "function"
    },
    {
      "constant": true,
      "inputs": [],
      "name": "isStopped",
      "outputs": [
        {
          "name": "_stop",
          "type": "bool"
        }
      ],
      "payable": false,
      "stateMutability": "view",
      "type": "function"
    },
    {
      "constant": true,
      "inputs": [],
      "name": "newHashTicket",
      "outputs": [
        {
          "name": "_hashTicket",
          "type": "bytes32"
        }
      ],
      "payable": false,
      "stateMutability": "view",
      "type": "function"
    },
    {
      "constant": true,
      "inputs": [],
      "name": "getInfoNewOwner",
      "outputs": [
        {
          "name": "_newOwner",
          "type": "address"
        }
      ],
      "payable": false,
      "stateMutability": "view",
      "type": "function"
    },
    {
      "constant": true,
      "inputs": [],
      "name": "getInfoOwner",
      "outputs": [
        {
          "name": "_owner",
          "type": "address"
        }
      ],
      "payable": false,
      "stateMutability": "view",
      "type": "function"
    },
    {
      "constant": true,
      "inputs": [
        {
          "name": "_hashTicket",
          "type": "bytes32"
        }
      ],
      "name": "getInfoDeposit",
      "outputs": [
        {
          "name": "_depositor",
          "type": "address"
        },
        {
          "name": "_amount",
          "type": "uint256"
        }
      ],
      "payable": false,
      "stateMutability": "view",
      "type": "function"
    },
    {
      "constant": false,
      "inputs": [
        {
          "name": "_depositor",
          "type": "address"
        }
      ],
      "name": "newDepositor",
      "outputs": [
        {
          "name": "_success",
          "type": "bool"
        }
      ],
      "payable": false,
      "stateMutability": "nonpayable",
      "type": "function"
    },
    {
      "constant": false,
      "inputs": [
        {
          "name": "_hashTicket",
          "type": "bytes32"
        }
      ],
      "name": "emergencyWithdrawal",
      "outputs": [
        {
          "name": "_success",
          "type": "bool"
        }
      ],
      "payable": false,
      "stateMutability": "nonpayable",
      "type": "function"
    },
    {
      "constant": true,
      "inputs": [],
      "name": "getInfoContractCommissions",
      "outputs": [
        {
          "name": "_contractCommissions",
          "type": "uint256"
        }
      ],
      "payable": false,
      "stateMutability": "view",
      "type": "function"
    },
    {
      "constant": false,
      "inputs": [
        {
          "name": "_newOwner",
          "type": "address"
        }
      ],
      "name": "changeOwner",
      "outputs": [
        {
          "name": "_success",
          "type": "bool"
        }
      ],
      "payable": false,
      "stateMutability": "nonpayable",
      "type": "function"
    },
    {
      "constant": false,
      "inputs": [],
      "name": "resumeContract",
      "outputs": [
        {
          "name": "_success",
          "type": "bool"
        }
      ],
      "payable": false,
      "stateMutability": "nonpayable",
      "type": "function"
    },
    {
      "constant": true,
      "inputs": [
        {
          "name": "_hashTicket",
          "type": "bytes32"
        }
      ],
      "name": "getInfoCommission",
      "outputs": [
        {
          "name": "_commissionAmount",
          "type": "uint256"
        }
      ],
      "payable": false,
      "stateMutability": "view",
      "type": "function"
    },
    {
      "constant": false,
      "inputs": [],
      "name": "confirmChangeOwner",
      "outputs": [
        {
          "name": "_success",
          "type": "bool"
        }
      ],
      "payable": false,
      "stateMutability": "nonpayable",
      "type": "function"
    },
    {
      "constant": true,
      "inputs": [
        {
          "name": "_beneficiary",
          "type": "address"
        },
        {
          "name": "_password",
          "type": "bytes32"
        }
      ],
      "name": "newHashTicketTransfer",
      "outputs": [
        {
          "name": "_hashTicketTransfer",
          "type": "bytes32"
        }
      ],
      "payable": false,
      "stateMutability": "view",
      "type": "function"
    },
    {
      "inputs": [],
      "payable": false,
      "stateMutability": "nonpayable",
      "type": "constructor"
    },
    {
      "anonymous": false,
      "inputs": [
        {
          "indexed": false,
          "name": "_sender",
          "type": "address"
        }
      ],
      "name": "LogFundsManagerNew",
      "type": "event"
    },
    {
      "anonymous": false,
      "inputs": [
        {
          "indexed": false,
          "name": "_sender",
          "type": "address"
        },
        {
          "indexed": false,
          "name": "value",
          "type": "uint256"
        }
      ],
      "name": "LogFundsManagerDepositFunds",
      "type": "event"
    },
    {
      "anonymous": false,
      "inputs": [
        {
          "indexed": false,
          "name": "_sender",
          "type": "address"
        },
        {
          "indexed": false,
          "name": "_depositor",
          "type": "address"
        },
        {
          "indexed": false,
          "name": "_amount",
          "type": "uint256"
        }
      ],
      "name": "LogFundsManagerWithdrawFunds",
      "type": "event"
    },
    {
      "anonymous": false,
      "inputs": [
        {
          "indexed": false,
          "name": "_sender",
          "type": "address"
        },
        {
          "indexed": false,
          "name": "_hashTicket",
          "type": "bytes32"
        },
        {
          "indexed": false,
          "name": "_amount",
          "type": "uint256"
        }
      ],
      "name": "LogFundsManagerSpendFunds",
      "type": "event"
    },
    {
      "anonymous": false,
      "inputs": [
        {
          "indexed": false,
          "name": "_sender",
          "type": "address"
        },
        {
          "indexed": false,
          "name": "_origin",
          "type": "address"
        },
        {
          "indexed": false,
          "name": "_password",
          "type": "bytes32"
        }
      ],
      "name": "LogFundsManagerTransferFunds",
      "type": "event"
    },
    {
      "anonymous": false,
      "inputs": [
        {
          "indexed": false,
          "name": "_sender",
          "type": "address"
        },
        {
          "indexed": false,
          "name": "_hashTicket",
          "type": "bytes32"
        },
        {
          "indexed": false,
          "name": "_commissionAmount",
          "type": "uint256"
        }
      ],
      "name": "LogFundsManagerChargeCommission",
      "type": "event"
    },
    {
      "anonymous": false,
      "inputs": [
        {
          "indexed": false,
          "name": "_sender",
          "type": "address"
        },
        {
          "indexed": false,
          "name": "_hashTicket",
          "type": "bytes32"
        }
      ],
      "name": "LogFundsManagerRefundCommission",
      "type": "event"
    },
    {
      "anonymous": false,
      "inputs": [
        {
          "indexed": false,
          "name": "_sender",
          "type": "address"
        },
        {
          "indexed": false,
          "name": "_depositor",
          "type": "address"
        }
      ],
      "name": "LogFundsManagerNewDepositor",
      "type": "event"
    },
    {
      "anonymous": false,
      "inputs": [
        {
          "indexed": false,
          "name": "_sender",
          "type": "address"
        },
        {
          "indexed": false,
          "name": "_depositor",
          "type": "address"
        },
        {
          "indexed": false,
          "name": "_amount",
          "type": "uint256"
        }
      ],
      "name": "LogFundsManagerEmergencyWithdrawal",
      "type": "event"
    },
    {
      "anonymous": false,
      "inputs": [
        {
          "indexed": false,
          "name": "_sender",
          "type": "address"
        }
      ],
      "name": "LogStoppableNew",
      "type": "event"
    },
    {
      "anonymous": false,
      "inputs": [
        {
          "indexed": false,
          "name": "_sender",
          "type": "address"
        }
      ],
      "name": "LogStoppableStopContract",
      "type": "event"
    },
    {
      "anonymous": false,
      "inputs": [
        {
          "indexed": false,
          "name": "_sender",
          "type": "address"
        }
      ],
      "name": "LogStoppableResumeContract",
      "type": "event"
    },
    {
      "anonymous": false,
      "inputs": [
        {
          "indexed": false,
          "name": "_sender",
          "type": "address"
        }
      ],
      "name": "LogOwnedNew",
      "type": "event"
    },
    {
      "anonymous": false,
      "inputs": [
        {
          "indexed": false,
          "name": "_sender",
          "type": "address"
        },
        {
          "indexed": false,
          "name": "_newOwner",
          "type": "address"
        }
      ],
      "name": "LogOwnedChangeOwner",
      "type": "event"
    },
    {
      "anonymous": false,
      "inputs": [
        {
          "indexed": false,
          "name": "_sender",
          "type": "address"
        },
        {
          "indexed": false,
          "name": "_newOwner",
          "type": "address"
        }
      ],
      "name": "LogOwnedConfirmChangeOwner",
      "type": "event"
    }
  ],
  "bytecode": "0x6060604052341561000f57600080fd5b336000806101000a81548173ffffffffffffffffffffffffffffffffffffffff021916908373ffffffffffffffffffffffffffffffffffffffff1602179055507f3452aa652f56729b39a9198f36cd36bee3117c0112792f8707bab75d357e66e533604051808273ffffffffffffffffffffffffffffffffffffffff1673ffffffffffffffffffffffffffffffffffffffff16815260200191505060405180910390a17f8cc00c1f028a34a0114cd2b3c9d9cb40bfaaf3412c080091c5ca0db70b09554f33604051808273ffffffffffffffffffffffffffffffffffffffff1673ffffffffffffffffffffffffffffffffffffffff16815260200191505060405180910390a17fa85d5744e943446e99dbbbf95efc481fe63c2fe3541566ee70c4d75b4c5e9f8933604051808273ffffffffffffffffffffffffffffffffffffffff1673ffffffffffffffffffffffffffffffffffffffff16815260200191505060405180910390a16111cf806101876000396000f3006060604052600436106100e6576000357c0100000000000000000000000000000000000000000000000000000000900463ffffffff16806312253a6c146100eb57806320ec9603146101185780632f70d1ba146101415780633f683b6a1461019257806340e864bf146101bf578063585230de146101f057806369d47ad61461024557806369f7ca281461029a5780636f76d747146103085780636fbec0cd146103595780638b5b155614610398578063a6f9dae1146103c1578063c4bc5da514610412578063d4977aec1461043f578063eae043881461047a578063f2db8767146104a7575b600080fd5b34156100f657600080fd5b6100fe610509565b604051808215151515815260200191505060405180910390f35b341561012357600080fd5b61012b6105ea565b6040518082815260200191505060405180910390f35b341561014c57600080fd5b610178600480803573ffffffffffffffffffffffffffffffffffffffff1690602001909190505061064f565b604051808215151515815260200191505060405180910390f35b341561019d57600080fd5b6101a56106d1565b604051808215151515815260200191505060405180910390f35b34156101ca57600080fd5b6101d26106e8565b60405180826000191660001916815260200191505060405180910390f35b34156101fb57600080fd5b610203610787565b604051808273ffffffffffffffffffffffffffffffffffffffff1673ffffffffffffffffffffffffffffffffffffffff16815260200191505060405180910390f35b341561025057600080fd5b6102586107b1565b604051808273ffffffffffffffffffffffffffffffffffffffff1673ffffffffffffffffffffffffffffffffffffffff16815260200191505060405180910390f35b34156102a557600080fd5b6102bf6004808035600019169060200190919050506107da565b604051808373ffffffffffffffffffffffffffffffffffffffff1673ffffffffffffffffffffffffffffffffffffffff1681526020018281526020019250505060405180910390f35b341561031357600080fd5b61033f600480803573ffffffffffffffffffffffffffffffffffffffff1690602001909190505061085b565b604051808215151515815260200191505060405180910390f35b341561036457600080fd5b61037e6004808035600019169060200190919050506109cc565b604051808215151515815260200191505060405180910390f35b34156103a357600080fd5b6103ab610bf2565b6040518082815260200191505060405180910390f35b34156103cc57600080fd5b6103f8600480803573ffffffffffffffffffffffffffffffffffffffff16906020019091905050610c57565b604051808215151515815260200191505060405180910390f35b341561041d57600080fd5b610425610dbb565b604051808215151515815260200191505060405180910390f35b341561044a57600080fd5b610464600480803560001916906020019091905050610e9d565b6040518082815260200191505060405180910390f35b341561048557600080fd5b61048d610ed8565b604051808215151515815260200191505060405180910390f35b34156104b257600080fd5b6104eb600480803573ffffffffffffffffffffffffffffffffffffffff169060200190919080356000191690602001909190505061107d565b60405180826000191660001916815260200191505060405180910390f35b60008060009054906101000a900473ffffffffffffffffffffffffffffffffffffffff1673ffffffffffffffffffffffffffffffffffffffff163373ffffffffffffffffffffffffffffffffffffffff1614151561056657600080fd5b60018060146101000a81548160ff0219169083151502179055507fdc5107df853e31da94e9c53d37f4d2b899e5fb7b6308111493accae88b2659aa33604051808273ffffffffffffffffffffffffffffffffffffffff1673ffffffffffffffffffffffffffffffffffffffff16815260200191505060405180910390a16001905090565b60008060009054906101000a900473ffffffffffffffffffffffffffffffffffffffff1673ffffffffffffffffffffffffffffffffffffffff163373ffffffffffffffffffffffffffffffffffffffff1614151561064757600080fd5b600254905090565b6000808273ffffffffffffffffffffffffffffffffffffffff161415151561067657600080fd5b6000600560008473ffffffffffffffffffffffffffffffffffffffff1673ffffffffffffffffffffffffffffffffffffffff1681526020019081526020016000205411156106c757600190506106cc565b600090505b919050565b6000600160149054906101000a900460ff16905090565b600033600560003373ffffffffffffffffffffffffffffffffffffffff1673ffffffffffffffffffffffffffffffffffffffff16815260200190815260200160002054604051808373ffffffffffffffffffffffffffffffffffffffff1673ffffffffffffffffffffffffffffffffffffffff166c01000000000000000000000000028152601401828152602001925050506040518091039020905090565b6000600160009054906101000a900473ffffffffffffffffffffffffffffffffffffffff16905090565b60008060009054906101000a900473ffffffffffffffffffffffffffffffffffffffff16905090565b60008060006001028360001916141515156107f457600080fd5b60046000846000191660001916815260200190815260200160002060000160009054906101000a900473ffffffffffffffffffffffffffffffffffffffff166004600085600019166000191681526020019081526020016000206001015491509150915091565b60008060009054906101000a900473ffffffffffffffffffffffffffffffffffffffff1673ffffffffffffffffffffffffffffffffffffffff163373ffffffffffffffffffffffffffffffffffffffff161415156108b857600080fd5b60008273ffffffffffffffffffffffffffffffffffffffff16141515156108de57600080fd5b6001600560008473ffffffffffffffffffffffffffffffffffffffff1673ffffffffffffffffffffffffffffffffffffffff168152602001908152602001600020600082825401925050819055507fb8d5cd064c53b0f47f9a1e1122498789993b0a0b2657c48385172b52f95d7d3d3383604051808373ffffffffffffffffffffffffffffffffffffffff1673ffffffffffffffffffffffffffffffffffffffff1681526020018273ffffffffffffffffffffffffffffffffffffffff1673ffffffffffffffffffffffffffffffffffffffff1681526020019250505060405180910390a160019050919050565b60008060008060009054906101000a900473ffffffffffffffffffffffffffffffffffffffff1673ffffffffffffffffffffffffffffffffffffffff163373ffffffffffffffffffffffffffffffffffffffff16141515610a2c57600080fd5b600060046000866000191660001916815260200190815260200160002060010154111515610a5957600080fd5b60046000856000191660001916815260200190815260200160002060000160009054906101000a900473ffffffffffffffffffffffffffffffffffffffff169150600460008560001916600019168152602001908152602001600020600101549050600460008560001916600019168152602001908152602001600020600080820160006101000a81549073ffffffffffffffffffffffffffffffffffffffff0219169055600182016000905550508173ffffffffffffffffffffffffffffffffffffffff166108fc829081150290604051600060405180830381858888f193505050501515610b4857600080fd5b7f0e369096c949a851cefff9f53674d9c7df739919ba098cb807b94e254649285d338383604051808473ffffffffffffffffffffffffffffffffffffffff1673ffffffffffffffffffffffffffffffffffffffff1681526020018373ffffffffffffffffffffffffffffffffffffffff1673ffffffffffffffffffffffffffffffffffffffff168152602001828152602001935050505060405180910390a1600192505050919050565b60008060009054906101000a900473ffffffffffffffffffffffffffffffffffffffff1673ffffffffffffffffffffffffffffffffffffffff163373ffffffffffffffffffffffffffffffffffffffff16141515610c4f57600080fd5b600354905090565b60008060009054906101000a900473ffffffffffffffffffffffffffffffffffffffff1673ffffffffffffffffffffffffffffffffffffffff163373ffffffffffffffffffffffffffffffffffffffff16141515610cb457600080fd5b60008273ffffffffffffffffffffffffffffffffffffffff1614151515610cda57600080fd5b81600160006101000a81548173ffffffffffffffffffffffffffffffffffffffff021916908373ffffffffffffffffffffffffffffffffffffffff1602179055507fae3fd6fbd4e7d8a4e53ecf89c51f72c00191a8d8d2c2fba3a5f4d9224996a6ae3383604051808373ffffffffffffffffffffffffffffffffffffffff1673ffffffffffffffffffffffffffffffffffffffff1681526020018273ffffffffffffffffffffffffffffffffffffffff1673ffffffffffffffffffffffffffffffffffffffff1681526020019250505060405180910390a160019050919050565b60008060009054906101000a900473ffffffffffffffffffffffffffffffffffffffff1673ffffffffffffffffffffffffffffffffffffffff163373ffffffffffffffffffffffffffffffffffffffff16141515610e1857600080fd5b6000600160146101000a81548160ff0219169083151502179055507fbe8d7a0d2974b6d29c6b0e1f7199c77822dd586b666191ba97458c086c3d2d6433604051808273ffffffffffffffffffffffffffffffffffffffff1673ffffffffffffffffffffffffffffffffffffffff16815260200191505060405180910390a16001905090565b600080600102826000191614151515610eb557600080fd5b600660008360001916600019168152602001908152602001600020549050919050565b6000600160009054906101000a900473ffffffffffffffffffffffffffffffffffffffff1673ffffffffffffffffffffffffffffffffffffffff163373ffffffffffffffffffffffffffffffffffffffff16141515610f3657600080fd5b600160009054906101000a900473ffffffffffffffffffffffffffffffffffffffff166000806101000a81548173ffffffffffffffffffffffffffffffffffffffff021916908373ffffffffffffffffffffffffffffffffffffffff160217905550600160006101000a81549073ffffffffffffffffffffffffffffffffffffffff02191690557f0d58bef243249903c29496d81a7ffbe3f394735e5ccd3e1dabbfec82c635c8d933600160009054906101000a900473ffffffffffffffffffffffffffffffffffffffff16604051808373ffffffffffffffffffffffffffffffffffffffff1673ffffffffffffffffffffffffffffffffffffffff1681526020018273ffffffffffffffffffffffffffffffffffffffff1673ffffffffffffffffffffffffffffffffffffffff1681526020019250505060405180910390a16001905090565b600061108a338484611092565b905092915050565b6000808473ffffffffffffffffffffffffffffffffffffffff16141515156110b957600080fd5b60008373ffffffffffffffffffffffffffffffffffffffff16141515156110df57600080fd5b60006001028260001916141515156110f657600080fd5b338383604051808473ffffffffffffffffffffffffffffffffffffffff1673ffffffffffffffffffffffffffffffffffffffff166c010000000000000000000000000281526014018373ffffffffffffffffffffffffffffffffffffffff1673ffffffffffffffffffffffffffffffffffffffff166c01000000000000000000000000028152601401826000191660001916815260200193505050506040518091039020905093925050505600a165627a7a7230582043ccdee4f9fe6944214225e0f8508a54a254ac335d1e21f489f7f17b0e86c3ac0029",
  "source": "pragma solidity ^0.4.4;\r\n\r\n/* \r\n\r\n  Last update: 2018-02-07\r\n  Version: 2.3\r\n\r\n  Contract to manage Funds deposited into a contract for:\r\n  - Purchasing the services/goods offered by the child contract\r\n  - Execute a transfer between two parties from the child contract\r\n  - Charge/refund optional commission\r\n\r\n  Modifiers:\r\n  - onlyDepositors\r\n\r\n  Core functions:\r\n  - Constrcutor\r\n  - newHashTicket\r\n  - depositFunds\r\n  - withdrawFunds\r\n  - spendFunds\r\n  - newHashTicketTransfer\r\n  - hashTicketTransfer\r\n  - transferFunds\r\n  - chargeCommission\r\n  - refundCommission\r\n\r\n  Admin functions:\r\n  - emergencyWithdrawal\r\n\r\n  Support functions:\r\n  - getInfoContractFunds\r\n  - getInfoContractCommissions\r\n  - getInfoDeposit\r\n  - getInfoCommission\r\n  - isDepositor\r\n\r\n*/\r\n\r\nimport \"./_Stoppable.sol\";\r\n\r\ncontract FundsManager is Stoppable {\r\n    uint private contractFunds;\r\n    uint private contractCommissions;\r\n\r\n    struct Deposit {\r\n        address depositor;\r\n        uint amount;\r\n    }\r\n    mapping (bytes32 => Deposit) private deposits; // hashTicket => Deposit\r\n    mapping (address => uint) private depositors; // msg.sender => deposits counter (used for hashTicket creation)\r\n    mapping (bytes32 => uint) private commissions; // hashTicket => commission\r\n\r\n    modifier onlyDepositors() { require(depositors[msg.sender] > 0); _; }\r\n\r\n// CORE FUNCTIONS\r\n\r\n        event LogFundsManagerNew (address _sender);\r\n        // Constructor\r\n    function FundsManager() \r\n        public \r\n    {\r\n        LogFundsManagerNew (msg.sender);\r\n    }\r\n\r\n        // Anyone wishing to deposit funds into the contract is required to request a hash-ticket\r\n    function newHashTicket ()\r\n        constant\r\n        public\r\n        returns (bytes32 _hashTicket)\r\n    {\r\n        return keccak256 (msg.sender, depositors[msg.sender]);\r\n    }\r\n\r\n        event LogFundsManagerDepositFunds (address _sender, uint value);\r\n        // With a hashed ticket anyone can deposits funds\r\n    function depositFunds (bytes32 _hashTicket)\r\n        onlyIfRunning\r\n        internal\r\n        returns (bool _success)\r\n    {\r\n        //require (msg.value > 0);\r\n        require (_hashTicket != 0);\r\n\r\n        deposits[_hashTicket].depositor = msg.sender;\r\n        deposits[_hashTicket].amount += msg.value;\r\n        depositors[msg.sender] += 1; // This counter allows multiple deposits by the same sender with different hash tickets\r\n        contractFunds += msg.value; // Soft accounting of the deposit\r\n        \r\n        LogFundsManagerDepositFunds (msg.sender, msg.value);\r\n        return true;\r\n    }\r\n\r\n        event LogFundsManagerWithdrawFunds (address _sender, address _depositor, uint _amount);\r\n        // If a depositor wishes to withdraw funds they can do it using the hash-ticket\r\n    function withdrawFunds (bytes32 _hashTicket)\r\n        onlyDepositors\r\n        onlyIfRunning\r\n        internal\r\n        returns (bool _success)\r\n    {\r\n        require(_hashTicket != 0);\r\n\r\n        Deposit storage deposit = deposits[_hashTicket];\r\n        \r\n        require(deposit.amount > 0);\r\n        require(deposit.depositor == msg.sender);\r\n\r\n        delete deposits[_hashTicket]; // Delete the deposit\r\n        \r\n        depositors[msg.sender] -= 1; // Decrease the counter of valid deposits to the depositor\r\n        contractFunds -= deposit.amount; // Soft accounting of the withdrawal\r\n\r\n        deposit.depositor.transfer(deposit.amount);\r\n\r\n        LogFundsManagerWithdrawFunds (msg.sender, deposit.depositor, deposit.amount);\r\n        return true;\r\n    }\r\n\r\n        event LogFundsManagerSpendFunds (address _sender, bytes32 _hashTicket, uint _amount);\r\n        // If the child contract provides a service, then execute this function to account the depositor with an expenditure\r\n    function spendFunds (bytes32 _hashTicket, uint _amount)\r\n        onlyDepositors\r\n        onlyIfRunning\r\n        internal\r\n        returns (bool _success)\r\n    {\r\n        require (_hashTicket != 0);\r\n\r\n        Deposit storage deposit = deposits[_hashTicket];\r\n\r\n        require (deposit.depositor == msg.sender); //ensure that the sender is the depositor of the ticket\r\n        require (deposit.amount > 0);\r\n        require (deposit.amount >= _amount); //prevent overspending\r\n\r\n        if (_amount == deposit.amount) delete deposits[_hashTicket]; //delete the deposit as all the funds are being spent\r\n        else deposit.amount -= _amount; //account the expenditure\r\n\r\n        LogFundsManagerSpendFunds (msg.sender, _hashTicket, _amount);\r\n        return true;\r\n    }\r\n\r\n        // To be used when the contract is an intermediary between 2 parties\r\n        // The sender shall deposit the funds that the beneficiary will transfer to their account\r\n        // To secure the transfer both the origin and the beneficiary addresses are required as well as a password\r\n    function newHashTicketTransfer (address _beneficiary, bytes32 _password)\r\n        constant\r\n        public\r\n        returns (bytes32 _hashTicketTransfer)\r\n    {\r\n        return hashTicketTransfer (msg.sender, _beneficiary, _password);\r\n    }\r\n\r\n        // Both the origin and the beneficiary of the transfer will end up calling this function from different interfaces\r\n    function hashTicketTransfer (address _origin, address _beneficiary, bytes32 _password)\r\n        constant\r\n        private\r\n        returns (bytes32 _hashTicketTransfer)\r\n    {\r\n        require (_origin != 0);\r\n        require (_beneficiary != 0);\r\n        require (_password != 0);\r\n        return keccak256(msg.sender, _beneficiary, _password);\r\n    }\r\n\r\n        event LogFundsManagerTransferFunds (address _sender, address _origin, bytes32 _password);\r\n        // To be executed by the beneficiary that wishes to transfer the funds to their account\r\n    function transferFunds (address _origin, bytes32 _password)\r\n        onlyIfRunning\r\n        internal\r\n        returns (bool _success)\r\n    {\r\n        bytes32 hashTicketT = hashTicketTransfer (_origin, msg.sender, _password);\r\n        uint transferAmount = deposits[hashTicketT].amount; \r\n        require (transferAmount > 0);\r\n\r\n        delete deposits[hashTicketT]; //remove the deposit | optimistic accounting\r\n\r\n        msg.sender.transfer(transferAmount);\r\n\r\n        LogFundsManagerTransferFunds (msg.sender, _origin, _password);\r\n        return true;\r\n    }\r\n\r\n        event LogFundsManagerChargeCommission (address _sender, bytes32 _hashTicket, uint _commissionAmount);\r\n        // If the child contract requires to charge a commission, this function can be called by any sender\r\n    function chargeCommission (bytes32 _hashTicket, uint _commissionAmount)\r\n        internal\r\n        returns (bool _success)\r\n    {\r\n        require (_hashTicket != 0);\r\n        require (commissions[_hashTicket] == 0); //prevent more than one commission per ticket\r\n\r\n        uint originalAmount = deposits[_hashTicket].amount;\r\n        require (originalAmount > 0);\r\n        require (originalAmount - _commissionAmount > 0); //prevent the commission to turn the balance negative\r\n\r\n        contractCommissions += _commissionAmount; // account the commission\r\n        contractFunds -= _commissionAmount; // substract the commission from funds\r\n\r\n        commissions[_hashTicket] = _commissionAmount;\r\n        deposits[_hashTicket].amount = originalAmount - _commissionAmount;\r\n\r\n        LogFundsManagerChargeCommission (msg.sender, _hashTicket, _commissionAmount);\r\n        return true;\r\n    }\r\n\r\n        event LogFundsManagerRefundCommission (address _sender, bytes32 _hashTicket);\r\n        // In case the commission requires to be refunded\r\n    function refundCommission (bytes32 _hashTicket)\r\n        internal\r\n        returns (bool _success)\r\n    {\r\n        require (commissions[_hashTicket] > 0);\r\n\r\n        uint refundAmount = commissions[_hashTicket];\r\n        delete commissions[_hashTicket];\r\n\r\n        contractCommissions -= refundAmount; // account the refund\r\n        contractFunds += refundAmount; // add the commission to funds\r\n\r\n        uint originalAmount = deposits[_hashTicket].amount;\r\n        deposits[_hashTicket].amount = originalAmount + refundAmount;\r\n        \r\n        LogFundsManagerRefundCommission (msg.sender, _hashTicket);\r\n        return true;\r\n    }\r\n\r\n// ADMIN FUNCTIONS\r\n\r\n        event LogFundsManagerNewDepositor (address _sender, address _depositor);\r\n        // Owner can register new depositors without the need to deposit any funds\r\n    function newDepositor (address _depositor)\r\n        onlyOwner\r\n        public\r\n        returns (bool _success)\r\n    {\r\n        require (_depositor != 0);\r\n        \r\n        depositors[_depositor] += 1;\r\n        \r\n        LogFundsManagerNewDepositor (msg.sender, _depositor);\r\n        return true;\r\n    }\r\n\r\n        event LogFundsManagerEmergencyWithdrawal (address _sender, address _depositor, uint _amount);\r\n        // Only Owner\r\n        // Contract can be stopped\r\n    function emergencyWithdrawal (bytes32 _hashTicket)\r\n        onlyOwner\r\n        public\r\n        returns (bool _success)\r\n    {\r\n        require(deposits[_hashTicket].amount > 0);\r\n        \r\n        address depositor = deposits[_hashTicket].depositor;\r\n        uint withdrawalAmount = deposits[_hashTicket].amount;\r\n\r\n        delete deposits[_hashTicket];\r\n\r\n        depositor.transfer(withdrawalAmount);\r\n\r\n        LogFundsManagerEmergencyWithdrawal (msg.sender, depositor, withdrawalAmount);\r\n        return true;        \r\n    }\r\n\r\n// SUPPORT FUNCTIONS\r\n\r\n    function getInfoContractFunds ()\r\n        onlyOwner\r\n        view\r\n        public\r\n        returns (uint _contractFunds)\r\n    {\r\n        return contractFunds;\r\n    }\r\n\r\n    function getInfoContractCommissions ()\r\n        onlyOwner\r\n        view\r\n        public\r\n        returns (uint _contractCommissions)\r\n    {\r\n        return contractCommissions;\r\n    }\r\n\r\n    function getInfoDeposit (bytes32 _hashTicket)\r\n        view\r\n        public\r\n        returns (address _depositor, uint _amount)\r\n    {\r\n        require (_hashTicket != 0);\r\n\r\n        return (deposits[_hashTicket].depositor, deposits[_hashTicket].amount);\r\n    }\r\n\r\n    function getInfoCommission (bytes32 _hashTicket)\r\n        view\r\n        public\r\n        returns (uint _commissionAmount)\r\n    {\r\n        require (_hashTicket != 0);\r\n\r\n        return (commissions[_hashTicket]);\r\n    }\r\n\r\n    function isDepositor (address _depositor)\r\n        view\r\n        public\r\n        returns (bool _isIndeed)\r\n    {\r\n        require (_depositor != 0);\r\n\r\n        if (depositors[_depositor] > 0)\r\n            return true;\r\n        else\r\n            return false;\r\n    }\r\n}",
  "sourcePath": "/home/jordi/b9/Unit5/Projects/Shop/contracts/_FundsManager.sol",
  "compiler": {
    "name": "solc",
    "version": "0.4.18+commit.9cf6e910.Emscripten.clang"
  },
  "schemaVersion": "1.0.1",
  "updatedAt": "2018-02-07T11:05:53.611Z"
}