{
  "contractName": "MerchantManager",
  "abi": [
    {
      "constant": true,
      "inputs": [
        {
          "name": "_merchant",
          "type": "address"
        }
      ],
      "name": "getInfoMerchantSales",
      "outputs": [
        {
          "name": "_balance",
          "type": "uint256"
        }
      ],
      "payable": false,
      "stateMutability": "view",
      "type": "function"
    },
    {
      "constant": false,
      "inputs": [],
      "name": "stopContract",
      "outputs": [
        {
          "name": "_success",
          "type": "bool"
        }
      ],
      "payable": false,
      "stateMutability": "nonpayable",
      "type": "function"
    },
    {
      "constant": true,
      "inputs": [
        {
          "name": "_merchant",
          "type": "address"
        }
      ],
      "name": "isMerchant",
      "outputs": [
        {
          "name": "_is",
          "type": "bool"
        }
      ],
      "payable": false,
      "stateMutability": "view",
      "type": "function"
    },
    {
      "constant": true,
      "inputs": [],
      "name": "isStopped",
      "outputs": [
        {
          "name": "_stop",
          "type": "bool"
        }
      ],
      "payable": false,
      "stateMutability": "view",
      "type": "function"
    },
    {
      "constant": true,
      "inputs": [],
      "name": "getInfoNewOwner",
      "outputs": [
        {
          "name": "_newOwner",
          "type": "address"
        }
      ],
      "payable": false,
      "stateMutability": "view",
      "type": "function"
    },
    {
      "constant": true,
      "inputs": [],
      "name": "getInfoOwner",
      "outputs": [
        {
          "name": "_owner",
          "type": "address"
        }
      ],
      "payable": false,
      "stateMutability": "view",
      "type": "function"
    },
    {
      "constant": false,
      "inputs": [
        {
          "name": "_newOwner",
          "type": "address"
        }
      ],
      "name": "changeOwner",
      "outputs": [
        {
          "name": "_success",
          "type": "bool"
        }
      ],
      "payable": false,
      "stateMutability": "nonpayable",
      "type": "function"
    },
    {
      "constant": false,
      "inputs": [],
      "name": "resumeContract",
      "outputs": [
        {
          "name": "_success",
          "type": "bool"
        }
      ],
      "payable": false,
      "stateMutability": "nonpayable",
      "type": "function"
    },
    {
      "constant": false,
      "inputs": [],
      "name": "confirmChangeOwner",
      "outputs": [
        {
          "name": "_success",
          "type": "bool"
        }
      ],
      "payable": false,
      "stateMutability": "nonpayable",
      "type": "function"
    },
    {
      "inputs": [],
      "payable": false,
      "stateMutability": "nonpayable",
      "type": "constructor"
    },
    {
      "anonymous": false,
      "inputs": [
        {
          "indexed": false,
          "name": "_sender",
          "type": "address"
        }
      ],
      "name": "LogMerchantManagerNew",
      "type": "event"
    },
    {
      "anonymous": false,
      "inputs": [
        {
          "indexed": false,
          "name": "_sender",
          "type": "address"
        },
        {
          "indexed": false,
          "name": "_merchant",
          "type": "address"
        }
      ],
      "name": "LogMerchantManagerAddMerchant",
      "type": "event"
    },
    {
      "anonymous": false,
      "inputs": [
        {
          "indexed": false,
          "name": "_sender",
          "type": "address"
        },
        {
          "indexed": false,
          "name": "_merchant",
          "type": "address"
        }
      ],
      "name": "LogMerchantManagerRemoveMerchant",
      "type": "event"
    },
    {
      "anonymous": false,
      "inputs": [
        {
          "indexed": false,
          "name": "_sender",
          "type": "address"
        },
        {
          "indexed": false,
          "name": "_merchant",
          "type": "address"
        },
        {
          "indexed": false,
          "name": "_amount",
          "type": "uint256"
        }
      ],
      "name": "LogMerchantManagerAddMerchantSale",
      "type": "event"
    },
    {
      "anonymous": false,
      "inputs": [
        {
          "indexed": false,
          "name": "_sender",
          "type": "address"
        },
        {
          "indexed": false,
          "name": "_merchant",
          "type": "address"
        },
        {
          "indexed": false,
          "name": "_amount",
          "type": "uint256"
        }
      ],
      "name": "LogMerchantManagerRemoveMerchantSale",
      "type": "event"
    },
    {
      "anonymous": false,
      "inputs": [
        {
          "indexed": false,
          "name": "_sender",
          "type": "address"
        },
        {
          "indexed": false,
          "name": "_transferAmount",
          "type": "uint256"
        }
      ],
      "name": "LogMerchantManagerMerchantWithdrawAllBalance",
      "type": "event"
    },
    {
      "anonymous": false,
      "inputs": [
        {
          "indexed": false,
          "name": "_sender",
          "type": "address"
        }
      ],
      "name": "LogStoppableNew",
      "type": "event"
    },
    {
      "anonymous": false,
      "inputs": [
        {
          "indexed": false,
          "name": "_sender",
          "type": "address"
        }
      ],
      "name": "LogStoppableStopContract",
      "type": "event"
    },
    {
      "anonymous": false,
      "inputs": [
        {
          "indexed": false,
          "name": "_sender",
          "type": "address"
        }
      ],
      "name": "LogStoppableResumeContract",
      "type": "event"
    },
    {
      "anonymous": false,
      "inputs": [
        {
          "indexed": false,
          "name": "_sender",
          "type": "address"
        }
      ],
      "name": "LogOwnedNew",
      "type": "event"
    },
    {
      "anonymous": false,
      "inputs": [
        {
          "indexed": false,
          "name": "_sender",
          "type": "address"
        },
        {
          "indexed": false,
          "name": "_newOwner",
          "type": "address"
        }
      ],
      "name": "LogOwnedChangeOwner",
      "type": "event"
    },
    {
      "anonymous": false,
      "inputs": [
        {
          "indexed": false,
          "name": "_sender",
          "type": "address"
        },
        {
          "indexed": false,
          "name": "_newOwner",
          "type": "address"
        }
      ],
      "name": "LogOwnedConfirmChangeOwner",
      "type": "event"
    }
  ],
  "bytecode": "0x6060604052341561000f57600080fd5b336000806101000a81548173ffffffffffffffffffffffffffffffffffffffff021916908373ffffffffffffffffffffffffffffffffffffffff1602179055507f3452aa652f56729b39a9198f36cd36bee3117c0112792f8707bab75d357e66e533604051808273ffffffffffffffffffffffffffffffffffffffff1673ffffffffffffffffffffffffffffffffffffffff16815260200191505060405180910390a17f8cc00c1f028a34a0114cd2b3c9d9cb40bfaaf3412c080091c5ca0db70b09554f33604051808273ffffffffffffffffffffffffffffffffffffffff1673ffffffffffffffffffffffffffffffffffffffff16815260200191505060405180910390a16001600260003373ffffffffffffffffffffffffffffffffffffffff1673ffffffffffffffffffffffffffffffffffffffff16815260200190815260200160002060006101000a81548160ff0219169083151502179055507f5327280ec7b0d2b0dad92178eded737206f2ea0c542f7f3b2fa2d0a8ed68456f33604051808273ffffffffffffffffffffffffffffffffffffffff1673ffffffffffffffffffffffffffffffffffffffff16815260200191505060405180910390a1610936806101df6000396000f300606060405260043610610099576000357c0100000000000000000000000000000000000000000000000000000000900463ffffffff16806306093c3c1461009e57806312253a6c146100eb5780631a2f7167146101185780633f683b6a14610169578063585230de1461019657806369d47ad6146101eb578063a6f9dae114610240578063c4bc5da514610291578063eae04388146102be575b600080fd5b34156100a957600080fd5b6100d5600480803573ffffffffffffffffffffffffffffffffffffffff169060200190919050506102eb565b6040518082815260200191505060405180910390f35b34156100f657600080fd5b6100fe610359565b604051808215151515815260200191505060405180910390f35b341561012357600080fd5b61014f600480803573ffffffffffffffffffffffffffffffffffffffff1690602001909190505061043a565b604051808215151515815260200191505060405180910390f35b341561017457600080fd5b61017c6104b5565b604051808215151515815260200191505060405180910390f35b34156101a157600080fd5b6101a96104cc565b604051808273ffffffffffffffffffffffffffffffffffffffff1673ffffffffffffffffffffffffffffffffffffffff16815260200191505060405180910390f35b34156101f657600080fd5b6101fe6104f6565b604051808273ffffffffffffffffffffffffffffffffffffffff1673ffffffffffffffffffffffffffffffffffffffff16815260200191505060405180910390f35b341561024b57600080fd5b610277600480803573ffffffffffffffffffffffffffffffffffffffff1690602001909190505061051f565b604051808215151515815260200191505060405180910390f35b341561029c57600080fd5b6102a4610683565b604051808215151515815260200191505060405180910390f35b34156102c957600080fd5b6102d1610765565b604051808215151515815260200191505060405180910390f35b6000808273ffffffffffffffffffffffffffffffffffffffff161415151561031257600080fd5b600360008373ffffffffffffffffffffffffffffffffffffffff1673ffffffffffffffffffffffffffffffffffffffff168152602001908152602001600020549050919050565b60008060009054906101000a900473ffffffffffffffffffffffffffffffffffffffff1673ffffffffffffffffffffffffffffffffffffffff163373ffffffffffffffffffffffffffffffffffffffff161415156103b657600080fd5b60018060146101000a81548160ff0219169083151502179055507fdc5107df853e31da94e9c53d37f4d2b899e5fb7b6308111493accae88b2659aa33604051808273ffffffffffffffffffffffffffffffffffffffff1673ffffffffffffffffffffffffffffffffffffffff16815260200191505060405180910390a16001905090565b6000808273ffffffffffffffffffffffffffffffffffffffff161415151561046157600080fd5b600260008373ffffffffffffffffffffffffffffffffffffffff1673ffffffffffffffffffffffffffffffffffffffff16815260200190815260200160002060009054906101000a900460ff169050919050565b6000600160149054906101000a900460ff16905090565b6000600160009054906101000a900473ffffffffffffffffffffffffffffffffffffffff16905090565b60008060009054906101000a900473ffffffffffffffffffffffffffffffffffffffff16905090565b60008060009054906101000a900473ffffffffffffffffffffffffffffffffffffffff1673ffffffffffffffffffffffffffffffffffffffff163373ffffffffffffffffffffffffffffffffffffffff1614151561057c57600080fd5b60008273ffffffffffffffffffffffffffffffffffffffff16141515156105a257600080fd5b81600160006101000a81548173ffffffffffffffffffffffffffffffffffffffff021916908373ffffffffffffffffffffffffffffffffffffffff1602179055507fae3fd6fbd4e7d8a4e53ecf89c51f72c00191a8d8d2c2fba3a5f4d9224996a6ae3383604051808373ffffffffffffffffffffffffffffffffffffffff1673ffffffffffffffffffffffffffffffffffffffff1681526020018273ffffffffffffffffffffffffffffffffffffffff1673ffffffffffffffffffffffffffffffffffffffff1681526020019250505060405180910390a160019050919050565b60008060009054906101000a900473ffffffffffffffffffffffffffffffffffffffff1673ffffffffffffffffffffffffffffffffffffffff163373ffffffffffffffffffffffffffffffffffffffff161415156106e057600080fd5b6000600160146101000a81548160ff0219169083151502179055507fbe8d7a0d2974b6d29c6b0e1f7199c77822dd586b666191ba97458c086c3d2d6433604051808273ffffffffffffffffffffffffffffffffffffffff1673ffffffffffffffffffffffffffffffffffffffff16815260200191505060405180910390a16001905090565b6000600160009054906101000a900473ffffffffffffffffffffffffffffffffffffffff1673ffffffffffffffffffffffffffffffffffffffff163373ffffffffffffffffffffffffffffffffffffffff161415156107c357600080fd5b600160009054906101000a900473ffffffffffffffffffffffffffffffffffffffff166000806101000a81548173ffffffffffffffffffffffffffffffffffffffff021916908373ffffffffffffffffffffffffffffffffffffffff160217905550600160006101000a81549073ffffffffffffffffffffffffffffffffffffffff02191690557f0d58bef243249903c29496d81a7ffbe3f394735e5ccd3e1dabbfec82c635c8d933600160009054906101000a900473ffffffffffffffffffffffffffffffffffffffff16604051808373ffffffffffffffffffffffffffffffffffffffff1673ffffffffffffffffffffffffffffffffffffffff1681526020018273ffffffffffffffffffffffffffffffffffffffff1673ffffffffffffffffffffffffffffffffffffffff1681526020019250505060405180910390a160019050905600a165627a7a7230582068b33e147b6c9e768f4e227bab1d02db7ae2179db454502da8385d63d8f3ef6c0029",
  "source": "pragma solidity ^0.4.4;\n\n/*\n\nLast Update: 2018-02-06\nVersion: 2.0\n\nSuper contract to manage Merchants that sell products in a shop.\nProduct are managed in the Products Manager contract.\n\nModifiers:\n- onlyMerchants\n\nCORE functions:\n- Constructor\n- addMerchant\n- removeMerchant\n- addMerchantSale\n- removeMerchantSale\n- merchantWithdrawAllBalance\n\nSUPPORT functions\n- isMerchant\n- getInfoMerchantSales\n\n*/\n\nimport \"./_Stoppable.sol\";\n\ncontract MerchantManager is Stoppable {\n    mapping (address => bool) private merchants; //key = merchant address\n    mapping (address => uint) private merchantSales; //account merchant's sales\n\n    modifier onlyMerchants () { require(merchants[msg.sender]); _; }\n    \n// CORE functions\n\n        event LogMerchantManagerNew (address _sender);\n        // Constrcutor\n    function MerchantManager()\n        public\n    {\n        merchants[msg.sender] = true; //by default the first merchant is root\n        LogMerchantManagerNew (msg.sender);\n    }\n\n        event LogMerchantManagerAddMerchant (address _sender, address _merchant);\n        // To add new merchants\n    function addMerchant (address _merchant)\n        internal\n        onlyIfRunning\n        returns (bool _success)\n    {\n        require (_merchant != 0);\n\n        merchants[_merchant] = true;\n        \n        LogMerchantManagerAddMerchant (msg.sender,  _merchant);\n        return true;\n    }\n\n        event LogMerchantManagerRemoveMerchant (address _sender, address _merchant);\n        // To remove merchants\n    function removeMerchant (address _merchant)\n        internal\n        onlyIfRunning\n        returns (bool _success)\n    {\n        require (_merchant != 0);\n        require (merchants[_merchant]); //require a valid merchant\n        require (merchantSales[msg.sender] == 0); //require all Merchant's sales balance to have been already transfered to the Merchant\n\n        delete merchants[_merchant];\n\n        LogMerchantManagerRemoveMerchant (msg.sender,  _merchant);\n        return true;\n    }\n\n        event LogMerchantManagerAddMerchantSale (address _sender, address _merchant, uint _amount);\n        // To add a sale amount to a merchant. This increases a Merchant's balance\n    function addMerchantSale (address _merchant, uint _amount)\n        internal\n        onlyIfRunning\n        returns (bool _success)\n    {\n        require (_merchant != 0);\n        require (_amount > 0);\n\n        merchantSales[_merchant] += _amount; //add the purchase amount to the merchant\n        LogMerchantManagerAddMerchantSale (msg.sender, _merchant, _amount);\n        return true;\n    }\n        event LogMerchantManagerRemoveMerchantSale (address _sender, address _merchant, uint _amount);\n        // In case of a refund, this function shall be executed to adjust Merchant's balance\n    function removeMerchantSale (address _merchant, uint _amount)\n        internal\n        onlyIfRunning\n        returns (bool _success)\n    {\n        require (_merchant != 0);\n        require (_amount > 0);\n\n        if (merchantSales[_merchant] - _amount > 0) // check that the end balance stay positive\n            merchantSales[_merchant] -= _amount;\n        else delete merchantSales[_merchant];\n\n        LogMerchantManagerRemoveMerchantSale (msg.sender, _merchant, _amount);\n        return true;        \n    }\n\n        event LogMerchantManagerMerchantWithdrawAllBalance (address _sender, uint _transferAmount);\n    // Merchants withdraw sales funds executing this function\n    // The contract will not send funds to any account, instead merchants shall withdraw funds from the contract themselves\n    function merchantWithdrawAllBalance ()\n        onlyMerchants\n        onlyIfRunning\n        internal\n        returns (bool _success)\n    {\n        require(merchantSales[msg.sender] > 0); //require positive merchant balance | prevents re-entry\n\n        uint balance = merchantSales[msg.sender];\n        delete merchantSales[msg.sender]; //optimistic accounting\n\n        msg.sender.transfer(balance);\n\n        LogMerchantManagerMerchantWithdrawAllBalance (msg.sender, balance);\n        return true;\n    }\n\n// SUPPORT functions\n\n    function isMerchant (address _merchant)\n        public\n        constant\n        returns (bool _is)\n    {\n        require (_merchant != 0);\n        \n        return (merchants[_merchant]);\n    }\n\n    function getInfoMerchantSales (address _merchant)\n        public\n        constant\n        returns (uint _balance)\n    {\n        require (_merchant != 0);\n\n        return (merchantSales[_merchant]);\n    }    \n\n}",
  "sourcePath": "/home/jordi/b9/Unit5/Projects/Shop/contracts/_MerchantManager.sol",
  "compiler": {
    "name": "solc",
    "version": "0.4.18+commit.9cf6e910.Emscripten.clang"
  },
  "schemaVersion": "1.0.1",
  "updatedAt": "2018-02-07T11:05:53.625Z"
}