{
  "contractName": "Owned",
  "abi": [
    {
      "constant": true,
      "inputs": [],
      "name": "getNewOwner",
      "outputs": [
        {
          "name": "_newOwner",
          "type": "address"
        }
      ],
      "payable": false,
      "stateMutability": "view",
      "type": "function"
    },
    {
      "constant": true,
      "inputs": [],
      "name": "getOwner",
      "outputs": [
        {
          "name": "_owner",
          "type": "address"
        }
      ],
      "payable": false,
      "stateMutability": "view",
      "type": "function"
    },
    {
      "constant": false,
      "inputs": [
        {
          "name": "_newOwner",
          "type": "address"
        }
      ],
      "name": "changeOwner",
      "outputs": [
        {
          "name": "_success",
          "type": "bool"
        }
      ],
      "payable": false,
      "stateMutability": "nonpayable",
      "type": "function"
    },
    {
      "constant": false,
      "inputs": [],
      "name": "confirmChangeOwner",
      "outputs": [
        {
          "name": "_success",
          "type": "bool"
        }
      ],
      "payable": false,
      "stateMutability": "nonpayable",
      "type": "function"
    },
    {
      "inputs": [],
      "payable": false,
      "stateMutability": "nonpayable",
      "type": "constructor"
    },
    {
      "anonymous": false,
      "inputs": [
        {
          "indexed": false,
          "name": "_sender",
          "type": "address"
        }
      ],
      "name": "LogOwnedNew",
      "type": "event"
    },
    {
      "anonymous": false,
      "inputs": [
        {
          "indexed": false,
          "name": "_sender",
          "type": "address"
        },
        {
          "indexed": false,
          "name": "_newOwner",
          "type": "address"
        }
      ],
      "name": "LogOwnedChangeOwner",
      "type": "event"
    },
    {
      "anonymous": false,
      "inputs": [
        {
          "indexed": false,
          "name": "_sender",
          "type": "address"
        },
        {
          "indexed": false,
          "name": "_newOwner",
          "type": "address"
        }
      ],
      "name": "LogOwnedConfirmChangeOwner",
      "type": "event"
    }
  ],
  "bytecode": "0x6060604052341561000f57600080fd5b336000806101000a81548173ffffffffffffffffffffffffffffffffffffffff021916908373ffffffffffffffffffffffffffffffffffffffff1602179055507f3452aa652f56729b39a9198f36cd36bee3117c0112792f8707bab75d357e66e533604051808273ffffffffffffffffffffffffffffffffffffffff1673ffffffffffffffffffffffffffffffffffffffff16815260200191505060405180910390a1610517806100c16000396000f300606060405260043610610062576000357c0100000000000000000000000000000000000000000000000000000000900463ffffffff1680633e2fe14914610067578063893d20e8146100bc578063a6f9dae114610111578063eae0438814610162575b600080fd5b341561007257600080fd5b61007a61018f565b604051808273ffffffffffffffffffffffffffffffffffffffff1673ffffffffffffffffffffffffffffffffffffffff16815260200191505060405180910390f35b34156100c757600080fd5b6100cf6101b9565b604051808273ffffffffffffffffffffffffffffffffffffffff1673ffffffffffffffffffffffffffffffffffffffff16815260200191505060405180910390f35b341561011c57600080fd5b610148600480803573ffffffffffffffffffffffffffffffffffffffff169060200190919050506101e2565b604051808215151515815260200191505060405180910390f35b341561016d57600080fd5b610175610346565b604051808215151515815260200191505060405180910390f35b6000600160009054906101000a900473ffffffffffffffffffffffffffffffffffffffff16905090565b60008060009054906101000a900473ffffffffffffffffffffffffffffffffffffffff16905090565b60008060009054906101000a900473ffffffffffffffffffffffffffffffffffffffff1673ffffffffffffffffffffffffffffffffffffffff163373ffffffffffffffffffffffffffffffffffffffff1614151561023f57600080fd5b60008273ffffffffffffffffffffffffffffffffffffffff161415151561026557600080fd5b81600160006101000a81548173ffffffffffffffffffffffffffffffffffffffff021916908373ffffffffffffffffffffffffffffffffffffffff1602179055507fae3fd6fbd4e7d8a4e53ecf89c51f72c00191a8d8d2c2fba3a5f4d9224996a6ae3383604051808373ffffffffffffffffffffffffffffffffffffffff1673ffffffffffffffffffffffffffffffffffffffff1681526020018273ffffffffffffffffffffffffffffffffffffffff1673ffffffffffffffffffffffffffffffffffffffff1681526020019250505060405180910390a160019050919050565b6000600160009054906101000a900473ffffffffffffffffffffffffffffffffffffffff1673ffffffffffffffffffffffffffffffffffffffff163373ffffffffffffffffffffffffffffffffffffffff161415156103a457600080fd5b600160009054906101000a900473ffffffffffffffffffffffffffffffffffffffff166000806101000a81548173ffffffffffffffffffffffffffffffffffffffff021916908373ffffffffffffffffffffffffffffffffffffffff160217905550600160006101000a81549073ffffffffffffffffffffffffffffffffffffffff02191690557f0d58bef243249903c29496d81a7ffbe3f394735e5ccd3e1dabbfec82c635c8d933600160009054906101000a900473ffffffffffffffffffffffffffffffffffffffff16604051808373ffffffffffffffffffffffffffffffffffffffff1673ffffffffffffffffffffffffffffffffffffffff1681526020018273ffffffffffffffffffffffffffffffffffffffff1673ffffffffffffffffffffffffffffffffffffffff1681526020019250505060405180910390a160019050905600a165627a7a72305820774946d3346b5a630cb716a549f683afc62869f0840f7631f5f24b70aaa613d80029",
  "source": "pragma solidity ^0.4.4;\r\n\r\n// Common functions for contracts that are Owned\r\ncontract Owned {\r\n    address private owner;\r\n    address private newOwner;\r\n\r\n    function getOwner()\r\n        public\r\n        constant\r\n        returns (address _owner)\r\n    {\r\n        return owner;\r\n    }\r\n\r\n    function getNewOwner()\r\n        public\r\n        constant\r\n        returns (address _newOwner)\r\n    {\r\n        return newOwner;\r\n    }\r\n\r\n    modifier onlyOwner() {\r\n        require (msg.sender == owner);\r\n        _;\r\n    }\r\n\r\n    event LogOwnedNew (address _sender);\r\n    // Constructor\r\n    function Owned ()\r\n        public\r\n    {\r\n        owner = msg.sender;\r\n        LogOwnedNew(msg.sender);\r\n    }\r\n\r\n    event LogOwnedChangeOwner (address _sender, address _newOwner);\r\n    // 2-step ownership transfer function\r\n    // This is the first step where the original owner requests the transfer\r\n    function changeOwner(address _newOwner)\r\n        onlyOwner\r\n        public\r\n        returns(bool _success)\r\n    {\r\n        require(_newOwner != 0);\r\n\r\n        newOwner = _newOwner;\r\n        LogOwnedChangeOwner(msg.sender, _newOwner);\r\n        return true;\r\n    }\r\n\r\n    event LogOwnedConfirmChangeOwner (address _sender, address _newOwner);\r\n    // 2-step ownership transfer function\r\n    // This is the second step where the new  owner confirms the transfer\r\n    function confirmChangeOwner()\r\n        public\r\n        returns(bool _success)\r\n    {\r\n        require(msg.sender == newOwner); //ensure the sender is the correct address\r\n\r\n        owner = newOwner;\r\n        delete newOwner;\r\n\r\n        LogOwnedConfirmChangeOwner(msg.sender, newOwner);\r\n        return true;\r\n    }\r\n}\r\n",
  "sourcePath": "/home/jordi/b9/Unit5/Projects/Shop/contracts/MyShared/Owned.sol",
  "compiler": {
    "name": "solc",
    "version": "0.4.18+commit.9cf6e910.Emscripten.clang"
  },
  "schemaVersion": "1.0.1",
  "updatedAt": "2018-01-29T16:45:49.118Z"
}