{
  "contractName": "Shop",
  "abi": [
    {
      "constant": true,
      "inputs": [
        {
          "name": "_administrator",
          "type": "address"
        }
      ],
      "name": "isAdministrator",
      "outputs": [
        {
          "name": "_is",
          "type": "bool"
        }
      ],
      "payable": false,
      "stateMutability": "view",
      "type": "function"
    },
    {
      "constant": false,
      "inputs": [],
      "name": "stopContract",
      "outputs": [
        {
          "name": "_success",
          "type": "bool"
        }
      ],
      "payable": false,
      "stateMutability": "nonpayable",
      "type": "function"
    },
    {
      "constant": false,
      "inputs": [
        {
          "name": "_merchant",
          "type": "address"
        }
      ],
      "name": "removeMerchant",
      "outputs": [
        {
          "name": "_success",
          "type": "bool"
        }
      ],
      "payable": false,
      "stateMutability": "nonpayable",
      "type": "function"
    },
    {
      "constant": false,
      "inputs": [
        {
          "name": "_depositor",
          "type": "address"
        },
        {
          "name": "_newBalance",
          "type": "uint256"
        }
      ],
      "name": "cashierUpdateDepositorBalance",
      "outputs": [
        {
          "name": "_success",
          "type": "bool"
        }
      ],
      "payable": false,
      "stateMutability": "nonpayable",
      "type": "function"
    },
    {
      "constant": false,
      "inputs": [
        {
          "name": "_amount",
          "type": "uint256"
        }
      ],
      "name": "withdrawFunds",
      "outputs": [
        {
          "name": "_success",
          "type": "bool"
        }
      ],
      "payable": false,
      "stateMutability": "nonpayable",
      "type": "function"
    },
    {
      "constant": true,
      "inputs": [
        {
          "name": "_merchant",
          "type": "address"
        }
      ],
      "name": "isMerchant",
      "outputs": [
        {
          "name": "_is",
          "type": "bool"
        }
      ],
      "payable": false,
      "stateMutability": "view",
      "type": "function"
    },
    {
      "constant": false,
      "inputs": [
        {
          "name": "_txHash",
          "type": "bytes32"
        },
        {
          "name": "_amount",
          "type": "uint256"
        }
      ],
      "name": "updatePurchaseSharedProduct",
      "outputs": [
        {
          "name": "_remainingTotal",
          "type": "uint256"
        }
      ],
      "payable": false,
      "stateMutability": "nonpayable",
      "type": "function"
    },
    {
      "constant": true,
      "inputs": [
        {
          "name": "_depositor",
          "type": "address"
        }
      ],
      "name": "isDepositor",
      "outputs": [
        {
          "name": "_is",
          "type": "bool"
        }
      ],
      "payable": false,
      "stateMutability": "view",
      "type": "function"
    },
    {
      "constant": true,
      "inputs": [],
      "name": "getNewOwner",
      "outputs": [
        {
          "name": "_newOwner",
          "type": "address"
        }
      ],
      "payable": false,
      "stateMutability": "view",
      "type": "function"
    },
    {
      "constant": true,
      "inputs": [],
      "name": "isStopped",
      "outputs": [
        {
          "name": "_stop",
          "type": "bool"
        }
      ],
      "payable": false,
      "stateMutability": "view",
      "type": "function"
    },
    {
      "constant": false,
      "inputs": [
        {
          "name": "_productId",
          "type": "bytes32"
        },
        {
          "name": "_unitPrice",
          "type": "uint256"
        },
        {
          "name": "_stock",
          "type": "uint256"
        }
      ],
      "name": "addProduct",
      "outputs": [
        {
          "name": "_success",
          "type": "bool"
        }
      ],
      "payable": false,
      "stateMutability": "nonpayable",
      "type": "function"
    },
    {
      "constant": false,
      "inputs": [],
      "name": "merchantWithdrawAllBalance",
      "outputs": [
        {
          "name": "_success",
          "type": "bool"
        }
      ],
      "payable": false,
      "stateMutability": "nonpayable",
      "type": "function"
    },
    {
      "constant": false,
      "inputs": [
        {
          "name": "_cashier",
          "type": "address"
        }
      ],
      "name": "addCashier",
      "outputs": [
        {
          "name": "_success",
          "type": "bool"
        }
      ],
      "payable": false,
      "stateMutability": "nonpayable",
      "type": "function"
    },
    {
      "constant": false,
      "inputs": [
        {
          "name": "_amount",
          "type": "uint256"
        }
      ],
      "name": "spendFunds",
      "outputs": [
        {
          "name": "_success",
          "type": "bool"
        }
      ],
      "payable": false,
      "stateMutability": "nonpayable",
      "type": "function"
    },
    {
      "constant": false,
      "inputs": [
        {
          "name": "_beneficiary",
          "type": "address"
        },
        {
          "name": "_amount",
          "type": "uint256"
        }
      ],
      "name": "emergencyRefund",
      "outputs": [
        {
          "name": "_success",
          "type": "bool"
        }
      ],
      "payable": false,
      "stateMutability": "nonpayable",
      "type": "function"
    },
    {
      "constant": false,
      "inputs": [
        {
          "name": "_administrator",
          "type": "address"
        }
      ],
      "name": "removeAdministrator",
      "outputs": [
        {
          "name": "_success",
          "type": "bool"
        }
      ],
      "payable": false,
      "stateMutability": "nonpayable",
      "type": "function"
    },
    {
      "constant": true,
      "inputs": [],
      "name": "getContractBalance",
      "outputs": [
        {
          "name": "_contractBalance",
          "type": "uint256"
        }
      ],
      "payable": false,
      "stateMutability": "view",
      "type": "function"
    },
    {
      "constant": false,
      "inputs": [
        {
          "name": "_from",
          "type": "address"
        },
        {
          "name": "_to",
          "type": "address"
        },
        {
          "name": "_amount",
          "type": "uint256"
        }
      ],
      "name": "cashierMoveDeposits",
      "outputs": [
        {
          "name": "_success",
          "type": "bool"
        }
      ],
      "payable": false,
      "stateMutability": "nonpayable",
      "type": "function"
    },
    {
      "constant": true,
      "inputs": [
        {
          "name": "_cashier",
          "type": "address"
        }
      ],
      "name": "isCashier",
      "outputs": [
        {
          "name": "_is",
          "type": "bool"
        }
      ],
      "payable": false,
      "stateMutability": "view",
      "type": "function"
    },
    {
      "constant": false,
      "inputs": [
        {
          "name": "_merchant",
          "type": "address"
        },
        {
          "name": "_productId",
          "type": "bytes32"
        },
        {
          "name": "_units",
          "type": "uint256"
        },
        {
          "name": "_amount",
          "type": "uint256"
        }
      ],
      "name": "purchaseProduct",
      "outputs": [
        {
          "name": "_txHash",
          "type": "bytes32"
        }
      ],
      "payable": false,
      "stateMutability": "nonpayable",
      "type": "function"
    },
    {
      "constant": true,
      "inputs": [],
      "name": "getOwner",
      "outputs": [
        {
          "name": "_owner",
          "type": "address"
        }
      ],
      "payable": false,
      "stateMutability": "view",
      "type": "function"
    },
    {
      "constant": false,
      "inputs": [
        {
          "name": "_productId",
          "type": "bytes32"
        }
      ],
      "name": "removeProduct",
      "outputs": [
        {
          "name": "_success",
          "type": "bool"
        }
      ],
      "payable": false,
      "stateMutability": "nonpayable",
      "type": "function"
    },
    {
      "constant": false,
      "inputs": [
        {
          "name": "_newOwner",
          "type": "address"
        }
      ],
      "name": "changeOwner",
      "outputs": [
        {
          "name": "_success",
          "type": "bool"
        }
      ],
      "payable": false,
      "stateMutability": "nonpayable",
      "type": "function"
    },
    {
      "constant": true,
      "inputs": [
        {
          "name": "_depositor",
          "type": "address"
        }
      ],
      "name": "getDepositorBalance",
      "outputs": [
        {
          "name": "_balance",
          "type": "uint256"
        }
      ],
      "payable": false,
      "stateMutability": "view",
      "type": "function"
    },
    {
      "constant": false,
      "inputs": [
        {
          "name": "_merchant",
          "type": "address"
        }
      ],
      "name": "addMerchant",
      "outputs": [
        {
          "name": "_success",
          "type": "bool"
        }
      ],
      "payable": false,
      "stateMutability": "nonpayable",
      "type": "function"
    },
    {
      "constant": false,
      "inputs": [],
      "name": "resumeContract",
      "outputs": [
        {
          "name": "_success",
          "type": "bool"
        }
      ],
      "payable": false,
      "stateMutability": "nonpayable",
      "type": "function"
    },
    {
      "constant": true,
      "inputs": [
        {
          "name": "_merchant",
          "type": "address"
        }
      ],
      "name": "getMerchantSalesBalance",
      "outputs": [
        {
          "name": "_balance",
          "type": "uint256"
        }
      ],
      "payable": false,
      "stateMutability": "view",
      "type": "function"
    },
    {
      "constant": false,
      "inputs": [
        {
          "name": "_administrator",
          "type": "address"
        }
      ],
      "name": "addAdministrator",
      "outputs": [
        {
          "name": "_success",
          "type": "bool"
        }
      ],
      "payable": false,
      "stateMutability": "nonpayable",
      "type": "function"
    },
    {
      "constant": true,
      "inputs": [
        {
          "name": "",
          "type": "address"
        },
        {
          "name": "",
          "type": "bytes32"
        }
      ],
      "name": "products",
      "outputs": [
        {
          "name": "unitPrice",
          "type": "uint256"
        },
        {
          "name": "stock",
          "type": "uint256"
        }
      ],
      "payable": false,
      "stateMutability": "view",
      "type": "function"
    },
    {
      "constant": false,
      "inputs": [
        {
          "name": "_cashier",
          "type": "address"
        }
      ],
      "name": "removeCashier",
      "outputs": [
        {
          "name": "_success",
          "type": "bool"
        }
      ],
      "payable": false,
      "stateMutability": "nonpayable",
      "type": "function"
    },
    {
      "constant": false,
      "inputs": [
        {
          "name": "_merchant",
          "type": "address"
        },
        {
          "name": "_productId",
          "type": "bytes32"
        },
        {
          "name": "_units",
          "type": "uint256"
        },
        {
          "name": "_amount",
          "type": "uint256"
        }
      ],
      "name": "purchaseSharedProduct",
      "outputs": [
        {
          "name": "_txHash",
          "type": "bytes32"
        }
      ],
      "payable": false,
      "stateMutability": "nonpayable",
      "type": "function"
    },
    {
      "constant": false,
      "inputs": [],
      "name": "depositFunds",
      "outputs": [
        {
          "name": "_success",
          "type": "bool"
        }
      ],
      "payable": true,
      "stateMutability": "payable",
      "type": "function"
    },
    {
      "constant": false,
      "inputs": [],
      "name": "confirmChangeOwner",
      "outputs": [
        {
          "name": "_success",
          "type": "bool"
        }
      ],
      "payable": false,
      "stateMutability": "nonpayable",
      "type": "function"
    },
    {
      "constant": true,
      "inputs": [
        {
          "name": "_merchant",
          "type": "address"
        },
        {
          "name": "_productId",
          "type": "bytes32"
        }
      ],
      "name": "getProductInfo",
      "outputs": [
        {
          "name": "_unitPrice",
          "type": "uint256"
        },
        {
          "name": "_stock",
          "type": "uint256"
        }
      ],
      "payable": false,
      "stateMutability": "view",
      "type": "function"
    },
    {
      "inputs": [],
      "payable": false,
      "stateMutability": "nonpayable",
      "type": "constructor"
    },
    {
      "anonymous": false,
      "inputs": [
        {
          "indexed": false,
          "name": "_sender",
          "type": "address"
        }
      ],
      "name": "LogShopNew",
      "type": "event"
    },
    {
      "anonymous": false,
      "inputs": [
        {
          "indexed": false,
          "name": "_sender",
          "type": "address"
        },
        {
          "indexed": false,
          "name": "_administrator",
          "type": "address"
        }
      ],
      "name": "LogShopAddAdministrator",
      "type": "event"
    },
    {
      "anonymous": false,
      "inputs": [
        {
          "indexed": false,
          "name": "_sender",
          "type": "address"
        },
        {
          "indexed": false,
          "name": "_administrator",
          "type": "address"
        }
      ],
      "name": "LogShopRemoveAdministrator",
      "type": "event"
    },
    {
      "anonymous": false,
      "inputs": [
        {
          "indexed": false,
          "name": "_sender",
          "type": "address"
        },
        {
          "indexed": false,
          "name": "_merchant",
          "type": "address"
        },
        {
          "indexed": false,
          "name": "_productId",
          "type": "bytes32"
        },
        {
          "indexed": false,
          "name": "_units",
          "type": "uint256"
        },
        {
          "indexed": false,
          "name": "_unitPrice",
          "type": "uint256"
        },
        {
          "indexed": false,
          "name": "_total",
          "type": "uint256"
        },
        {
          "indexed": false,
          "name": "_amount",
          "type": "uint256"
        },
        {
          "indexed": false,
          "name": "_txHash",
          "type": "bytes32"
        }
      ],
      "name": "LogShopPurchaseProduct",
      "type": "event"
    },
    {
      "anonymous": false,
      "inputs": [
        {
          "indexed": false,
          "name": "_sender",
          "type": "address"
        },
        {
          "indexed": false,
          "name": "_merchant",
          "type": "address"
        },
        {
          "indexed": false,
          "name": "_productId",
          "type": "bytes32"
        },
        {
          "indexed": false,
          "name": "_units",
          "type": "uint256"
        },
        {
          "indexed": false,
          "name": "_unitPrice",
          "type": "uint256"
        },
        {
          "indexed": false,
          "name": "_total",
          "type": "uint256"
        },
        {
          "indexed": false,
          "name": "_amount",
          "type": "uint256"
        },
        {
          "indexed": false,
          "name": "_txHash",
          "type": "bytes32"
        }
      ],
      "name": "LogShopPurchaseSharedProduct",
      "type": "event"
    },
    {
      "anonymous": false,
      "inputs": [
        {
          "indexed": false,
          "name": "_sender",
          "type": "address"
        },
        {
          "indexed": false,
          "name": "_txHash",
          "type": "bytes32"
        },
        {
          "indexed": false,
          "name": "_share",
          "type": "uint256"
        },
        {
          "indexed": false,
          "name": "_paid",
          "type": "uint256"
        },
        {
          "indexed": false,
          "name": "_remainingTotal",
          "type": "uint256"
        }
      ],
      "name": "LogShopUpdatePurchaseSharedProduct",
      "type": "event"
    },
    {
      "anonymous": false,
      "inputs": [
        {
          "indexed": true,
          "name": "_sender",
          "type": "address"
        },
        {
          "indexed": false,
          "name": "_merchant",
          "type": "address"
        },
        {
          "indexed": false,
          "name": "_productId",
          "type": "bytes32"
        },
        {
          "indexed": false,
          "name": "_units",
          "type": "uint256"
        },
        {
          "indexed": false,
          "name": "_total",
          "type": "uint256"
        },
        {
          "indexed": false,
          "name": "_paid",
          "type": "uint256"
        },
        {
          "indexed": false,
          "name": "_txHash",
          "type": "bytes32"
        }
      ],
      "name": "LogShopRegisterPurchase",
      "type": "event"
    },
    {
      "anonymous": false,
      "inputs": [
        {
          "indexed": false,
          "name": "_sender",
          "type": "address"
        }
      ],
      "name": "LogProductManagerNew",
      "type": "event"
    },
    {
      "anonymous": false,
      "inputs": [
        {
          "indexed": false,
          "name": "_sender",
          "type": "address"
        },
        {
          "indexed": false,
          "name": "_productId",
          "type": "bytes32"
        },
        {
          "indexed": false,
          "name": "_unitPrice",
          "type": "uint256"
        },
        {
          "indexed": false,
          "name": "_stock",
          "type": "uint256"
        }
      ],
      "name": "LogProductManager_addProduct",
      "type": "event"
    },
    {
      "anonymous": false,
      "inputs": [
        {
          "indexed": false,
          "name": "_sender",
          "type": "address"
        },
        {
          "indexed": false,
          "name": "_productId",
          "type": "bytes32"
        }
      ],
      "name": "LogProductManager_removeProduct",
      "type": "event"
    },
    {
      "anonymous": false,
      "inputs": [
        {
          "indexed": false,
          "name": "_sender",
          "type": "address"
        }
      ],
      "name": "LogMerchantManagerNew",
      "type": "event"
    },
    {
      "anonymous": false,
      "inputs": [
        {
          "indexed": false,
          "name": "_sender",
          "type": "address"
        },
        {
          "indexed": false,
          "name": "_merchant",
          "type": "address"
        }
      ],
      "name": "LogMerchantManager_addMerchant",
      "type": "event"
    },
    {
      "anonymous": false,
      "inputs": [
        {
          "indexed": false,
          "name": "_sender",
          "type": "address"
        },
        {
          "indexed": false,
          "name": "_merchant",
          "type": "address"
        }
      ],
      "name": "LogMerchantManager_removeMerchant",
      "type": "event"
    },
    {
      "anonymous": false,
      "inputs": [
        {
          "indexed": true,
          "name": "_sender",
          "type": "address"
        },
        {
          "indexed": true,
          "name": "_merchant",
          "type": "address"
        },
        {
          "indexed": false,
          "name": "_amount",
          "type": "uint256"
        }
      ],
      "name": "LogMerchantManager_addMerchantSale",
      "type": "event"
    },
    {
      "anonymous": false,
      "inputs": [
        {
          "indexed": true,
          "name": "_sender",
          "type": "address"
        },
        {
          "indexed": false,
          "name": "_transferAmount",
          "type": "uint256"
        }
      ],
      "name": "LogMerchantManager_withdrawAllBalance",
      "type": "event"
    },
    {
      "anonymous": false,
      "inputs": [
        {
          "indexed": false,
          "name": "_sender",
          "type": "address"
        },
        {
          "indexed": false,
          "name": "_cashier",
          "type": "address"
        }
      ],
      "name": "LogFundedNew",
      "type": "event"
    },
    {
      "anonymous": false,
      "inputs": [
        {
          "indexed": false,
          "name": "_sender",
          "type": "address"
        },
        {
          "indexed": false,
          "name": "_amount",
          "type": "uint256"
        }
      ],
      "name": "LogFundedDepositFunds",
      "type": "event"
    },
    {
      "anonymous": false,
      "inputs": [
        {
          "indexed": false,
          "name": "_sender",
          "type": "address"
        },
        {
          "indexed": false,
          "name": "_amount",
          "type": "uint256"
        }
      ],
      "name": "LogFundedWithdrawFunds",
      "type": "event"
    },
    {
      "anonymous": false,
      "inputs": [
        {
          "indexed": false,
          "name": "_sender",
          "type": "address"
        },
        {
          "indexed": false,
          "name": "_amount",
          "type": "uint256"
        }
      ],
      "name": "LogFundedSpendFunds",
      "type": "event"
    },
    {
      "anonymous": false,
      "inputs": [
        {
          "indexed": false,
          "name": "_sender",
          "type": "address"
        },
        {
          "indexed": false,
          "name": "_cashier",
          "type": "address"
        }
      ],
      "name": "LogFundedAddCashier",
      "type": "event"
    },
    {
      "anonymous": false,
      "inputs": [
        {
          "indexed": false,
          "name": "_sender",
          "type": "address"
        },
        {
          "indexed": false,
          "name": "_cashier",
          "type": "address"
        }
      ],
      "name": "LogFundedRemoveCashier",
      "type": "event"
    },
    {
      "anonymous": false,
      "inputs": [
        {
          "indexed": false,
          "name": "_sender",
          "type": "address"
        },
        {
          "indexed": false,
          "name": "_from",
          "type": "address"
        },
        {
          "indexed": false,
          "name": "_to",
          "type": "address"
        },
        {
          "indexed": false,
          "name": "_amount",
          "type": "uint256"
        }
      ],
      "name": "LogFundedCashierMoveDeposits",
      "type": "event"
    },
    {
      "anonymous": false,
      "inputs": [
        {
          "indexed": false,
          "name": "_sender",
          "type": "address"
        },
        {
          "indexed": false,
          "name": "_depositor",
          "type": "address"
        },
        {
          "indexed": false,
          "name": "_newBalance",
          "type": "uint256"
        }
      ],
      "name": "LogFundedCashierUpdateDepositorBalance",
      "type": "event"
    },
    {
      "anonymous": false,
      "inputs": [
        {
          "indexed": false,
          "name": "_sender",
          "type": "address"
        },
        {
          "indexed": false,
          "name": "_beneficiary",
          "type": "address"
        },
        {
          "indexed": false,
          "name": "_amount",
          "type": "uint256"
        }
      ],
      "name": "LogFundedEmergencyRefund",
      "type": "event"
    },
    {
      "anonymous": false,
      "inputs": [
        {
          "indexed": false,
          "name": "_sender",
          "type": "address"
        }
      ],
      "name": "LogStoppableStopContract",
      "type": "event"
    },
    {
      "anonymous": false,
      "inputs": [
        {
          "indexed": false,
          "name": "_sender",
          "type": "address"
        }
      ],
      "name": "LogStoppableResumeContract",
      "type": "event"
    },
    {
      "anonymous": false,
      "inputs": [
        {
          "indexed": false,
          "name": "_sender",
          "type": "address"
        }
      ],
      "name": "LogOwnedNew",
      "type": "event"
    },
    {
      "anonymous": false,
      "inputs": [
        {
          "indexed": false,
          "name": "_sender",
          "type": "address"
        },
        {
          "indexed": false,
          "name": "_newOwner",
          "type": "address"
        }
      ],
      "name": "LogOwnedChangeOwner",
      "type": "event"
    },
    {
      "anonymous": false,
      "inputs": [
        {
          "indexed": false,
          "name": "_sender",
          "type": "address"
        },
        {
          "indexed": false,
          "name": "_newOwner",
          "type": "address"
        }
      ],
      "name": "LogOwnedConfirmChangeOwner",
      "type": "event"
    }
  ],
  "bytecode": "0x6060604052341561000f57600080fd5b33336000806101000a81548173ffffffffffffffffffffffffffffffffffffffff021916908373ffffffffffffffffffffffffffffffffffffffff1602179055507f3452aa652f56729b39a9198f36cd36bee3117c0112792f8707bab75d357e66e533604051808273ffffffffffffffffffffffffffffffffffffffff1673ffffffffffffffffffffffffffffffffffffffff16815260200191505060405180910390a16001600460008373ffffffffffffffffffffffffffffffffffffffff1673ffffffffffffffffffffffffffffffffffffffff16815260200190815260200160002060006101000a81548160ff0219169083151502179055507f54f37a896ffe3731a391b11674ff5b46c60abff865f9bc3f073e0c1a932029ff3382604051808373ffffffffffffffffffffffffffffffffffffffff1673ffffffffffffffffffffffffffffffffffffffff1681526020018273ffffffffffffffffffffffffffffffffffffffff1673ffffffffffffffffffffffffffffffffffffffff1681526020019250505060405180910390a1506001600660003373ffffffffffffffffffffffffffffffffffffffff1673ffffffffffffffffffffffffffffffffffffffff16815260200190815260200160002060006101000a81548160ff0219169083151502179055507f5327280ec7b0d2b0dad92178eded737206f2ea0c542f7f3b2fa2d0a8ed68456f33604051808273ffffffffffffffffffffffffffffffffffffffff1673ffffffffffffffffffffffffffffffffffffffff16815260200191505060405180910390a17f983587b717c414a68974e2288938cc5e4ea5f8efbad2f692e162ad994acc897033604051808273ffffffffffffffffffffffffffffffffffffffff1673ffffffffffffffffffffffffffffffffffffffff16815260200191505060405180910390a133600960006101000a81548173ffffffffffffffffffffffffffffffffffffffff021916908373ffffffffffffffffffffffffffffffffffffffff1602179055506001600a60003373ffffffffffffffffffffffffffffffffffffffff1673ffffffffffffffffffffffffffffffffffffffff16815260200190815260200160002060006101000a81548160ff0219169083151502179055507f67bd0989ebb0ff49160389503e5eea098db968d00ea50047282cfc60fd705e7c33604051808273ffffffffffffffffffffffffffffffffffffffff1673ffffffffffffffffffffffffffffffffffffffff16815260200191505060405180910390a1613c1f806103cc6000396000f3006060604052600436106101ac576000357c0100000000000000000000000000000000000000000000000000000000900463ffffffff1680630a2eb301146101b157806312253a6c14610202578063133adab61461022f5780631468b30914610280578063155dd5ee146102da5780631a2f7167146103155780632db11fd5146103665780632f70d1ba146103aa5780633e2fe149146103fb5780633f683b6a1461045057806352656a381461047d5780635dd0709e146104ce578063619c3b99146104fb5780636457d7dc1461054c57806367f8a8b81461058757806368fa8134146105e15780636f9fb98a146106325780637cdc132a1461065b5780637dd45b8b146106d4578063839cb26914610725578063893d20e814610799578063a26ea496146107ee578063a6f9dae11461082d578063b79215d61461087e578063bf76c0ef146108cb578063c4bc5da51461091c578063c6741a9314610949578063c999117614610996578063d19a092b146109e7578063d3b12eb814610a48578063d5b3f43e14610a99578063e2c41dbc14610b0d578063eae0438814610b2f578063fa874a9314610b5c575b600080fd5b34156101bc57600080fd5b6101e8600480803573ffffffffffffffffffffffffffffffffffffffff16906020019091905050610bbd565b604051808215151515815260200191505060405180910390f35b341561020d57600080fd5b610215610c13565b604051808215151515815260200191505060405180910390f35b341561023a57600080fd5b610266600480803573ffffffffffffffffffffffffffffffffffffffff16906020019091905050610cf4565b604051808215151515815260200191505060405180910390f35b341561028b57600080fd5b6102c0600480803573ffffffffffffffffffffffffffffffffffffffff16906020019091908035906020019091905050610dbb565b604051808215151515815260200191505060405180910390f35b34156102e557600080fd5b6102fb6004808035906020019091905050610f1e565b604051808215151515815260200191505060405180910390f35b341561032057600080fd5b61034c600480803573ffffffffffffffffffffffffffffffffffffffff16906020019091905050611108565b604051808215151515815260200191505060405180910390f35b341561037157600080fd5b61039460048080356000191690602001909190803590602001909190505061115e565b6040518082815260200191505060405180910390f35b34156103b557600080fd5b6103e1600480803573ffffffffffffffffffffffffffffffffffffffff169060200190919050506113eb565b604051808215151515815260200191505060405180910390f35b341561040657600080fd5b61040e611436565b604051808273ffffffffffffffffffffffffffffffffffffffff1673ffffffffffffffffffffffffffffffffffffffff16815260200191505060405180910390f35b341561045b57600080fd5b610463611460565b604051808215151515815260200191505060405180910390f35b341561048857600080fd5b6104b4600480803560001916906020019091908035906020019091908035906020019091905050611477565b604051808215151515815260200191505060405180910390f35b34156104d957600080fd5b6104e161148d565b604051808215151515815260200191505060405180910390f35b341561050657600080fd5b610532600480803573ffffffffffffffffffffffffffffffffffffffff169060200190919050506114f9565b604051808215151515815260200191505060405180910390f35b341561055757600080fd5b61056d6004808035906020019091905050611690565b604051808215151515815260200191505060405180910390f35b341561059257600080fd5b6105c7600480803573ffffffffffffffffffffffffffffffffffffffff169060200190919080359060200190919050506118bb565b604051808215151515815260200191505060405180910390f35b34156105ec57600080fd5b610618600480803573ffffffffffffffffffffffffffffffffffffffff16906020019091905050611abc565b604051808215151515815260200191505060405180910390f35b341561063d57600080fd5b610645611c6f565b6040518082815260200191505060405180910390f35b341561066657600080fd5b6106ba600480803573ffffffffffffffffffffffffffffffffffffffff1690602001909190803573ffffffffffffffffffffffffffffffffffffffff16906020019091908035906020019091905050611c79565b604051808215151515815260200191505060405180910390f35b34156106df57600080fd5b61070b600480803573ffffffffffffffffffffffffffffffffffffffff16906020019091905050611edb565b604051808215151515815260200191505060405180910390f35b341561073057600080fd5b61077b600480803573ffffffffffffffffffffffffffffffffffffffff1690602001909190803560001916906020019091908035906020019091908035906020019091905050611f31565b60405180826000191660001916815260200191505060405180910390f35b34156107a457600080fd5b6107ac6121ab565b604051808273ffffffffffffffffffffffffffffffffffffffff1673ffffffffffffffffffffffffffffffffffffffff16815260200191505060405180910390f35b34156107f957600080fd5b6108136004808035600019169060200190919050506121d4565b604051808215151515815260200191505060405180910390f35b341561083857600080fd5b610864600480803573ffffffffffffffffffffffffffffffffffffffff169060200190919050506121e6565b604051808215151515815260200191505060405180910390f35b341561088957600080fd5b6108b5600480803573ffffffffffffffffffffffffffffffffffffffff1690602001909190505061234a565b6040518082815260200191505060405180910390f35b34156108d657600080fd5b610902600480803573ffffffffffffffffffffffffffffffffffffffff16906020019091905050612393565b604051808215151515815260200191505060405180910390f35b341561092757600080fd5b61092f612456565b604051808215151515815260200191505060405180910390f35b341561095457600080fd5b610980600480803573ffffffffffffffffffffffffffffffffffffffff16906020019091905050612538565b6040518082815260200191505060405180910390f35b34156109a157600080fd5b6109cd600480803573ffffffffffffffffffffffffffffffffffffffff16906020019091905050612581565b604051808215151515815260200191505060405180910390f35b34156109f257600080fd5b610a2b600480803573ffffffffffffffffffffffffffffffffffffffff16906020019091908035600019169060200190919050506126fd565b604051808381526020018281526020019250505060405180910390f35b3415610a5357600080fd5b610a7f600480803573ffffffffffffffffffffffffffffffffffffffff1690602001909190505061272e565b604051808215151515815260200191505060405180910390f35b3415610aa457600080fd5b610aef600480803573ffffffffffffffffffffffffffffffffffffffff16906020019091908035600019169060200190919080359060200190919080359060200190919050506128f7565b60405180826000191660001916815260200191505060405180910390f35b610b15612b66565b604051808215151515815260200191505060405180910390f35b3415610b3a57600080fd5b610b42612c61565b604051808215151515815260200191505060405180910390f35b3415610b6757600080fd5b610ba0600480803573ffffffffffffffffffffffffffffffffffffffff1690602001909190803560001916906020019091905050612e06565b604051808381526020018281526020019250505060405180910390f35b6000600a60008373ffffffffffffffffffffffffffffffffffffffff1673ffffffffffffffffffffffffffffffffffffffff16815260200190815260200160002060009054906101000a900460ff169050919050565b60008060009054906101000a900473ffffffffffffffffffffffffffffffffffffffff1673ffffffffffffffffffffffffffffffffffffffff163373ffffffffffffffffffffffffffffffffffffffff16141515610c7057600080fd5b60018060146101000a81548160ff0219169083151502179055507fdc5107df853e31da94e9c53d37f4d2b899e5fb7b6308111493accae88b2659aa33604051808273ffffffffffffffffffffffffffffffffffffffff1673ffffffffffffffffffffffffffffffffffffffff16815260200191505060405180910390a16001905090565b6000600a60003373ffffffffffffffffffffffffffffffffffffffff1673ffffffffffffffffffffffffffffffffffffffff16815260200190815260200160002060009054906101000a900460ff161515610d4e57600080fd5b600960009054906101000a900473ffffffffffffffffffffffffffffffffffffffff1673ffffffffffffffffffffffffffffffffffffffff168273ffffffffffffffffffffffffffffffffffffffff1614151515610dab57600080fd5b610db482612ecc565b9050919050565b6000600460003373ffffffffffffffffffffffffffffffffffffffff1673ffffffffffffffffffffffffffffffffffffffff16815260200190815260200160002060009054906101000a900460ff161515610e1557600080fd5b600160149054906101000a900460ff16151515610e3157600080fd5b81600560008573ffffffffffffffffffffffffffffffffffffffff1673ffffffffffffffffffffffffffffffffffffffff168152602001908152602001600020819055507fc472ca3d2d146978d10303f53588d609093fd3f9e7a6f59713bae3756bb66e57338484604051808473ffffffffffffffffffffffffffffffffffffffff1673ffffffffffffffffffffffffffffffffffffffff1681526020018373ffffffffffffffffffffffffffffffffffffffff1673ffffffffffffffffffffffffffffffffffffffff168152602001828152602001935050505060405180910390a16001905092915050565b600080600560003373ffffffffffffffffffffffffffffffffffffffff1673ffffffffffffffffffffffffffffffffffffffff16815260200190815260200160002054111515610f6d57600080fd5b600160149054906101000a900460ff16151515610f8957600080fd5b6000600254111515610f9a57600080fd5b81600560003373ffffffffffffffffffffffffffffffffffffffff1673ffffffffffffffffffffffffffffffffffffffff1681526020019081526020016000205410151515610fe857600080fd5b600082111515610ff757600080fd5b8160026000828254039250508190555081600560003373ffffffffffffffffffffffffffffffffffffffff1673ffffffffffffffffffffffffffffffffffffffff168152602001908152602001600020600082825403925050819055503373ffffffffffffffffffffffffffffffffffffffff166108fc839081150290604051600060405180830381858888f19350505050151561109457600080fd5b7f907c87443b7c486a4498fac21718c282bb00ea3263fff068699a08656763669a3383604051808373ffffffffffffffffffffffffffffffffffffffff1673ffffffffffffffffffffffffffffffffffffffff1681526020018281526020019250505060405180910390a160019050919050565b6000600660008373ffffffffffffffffffffffffffffffffffffffff1673ffffffffffffffffffffffffffffffffffffffff16815260200190815260200160002060009054906101000a900460ff169050919050565b600080600080600080600560003373ffffffffffffffffffffffffffffffffffffffff1673ffffffffffffffffffffffffffffffffffffffff168152602001908152602001600020541115156111b357600080fd5b600160149054906101000a900460ff161515156111cf57600080fd5b600b60008860001916600019168152602001908152602001600020600401549350600b60008860001916600019168152602001908152602001600020600501549250828411151561121f57600080fd5b8284038611156112355782840386039050611239565b8590505b600b6000886000191660001916815260200190815260200160002060000180548060010182816112699190613ba2565b9160005260206000209001600033909190916101000a81548173ffffffffffffffffffffffffffffffffffffffff021916908373ffffffffffffffffffffffffffffffffffffffff1602179055505080600b600089600019166000191681526020019081526020016000206005016000828254019250508190555080830192508383141561134357611339600b6000896000191660001916815260200190815260200160002060010160009054906101000a900473ffffffffffffffffffffffffffffffffffffffff1685613031565b5060009150611349565b82840391505b61135281611690565b507f3a7c951535ba38727bc6199b231c296702a0d8c62f152076bf52799cde46c6093388888486604051808673ffffffffffffffffffffffffffffffffffffffff1673ffffffffffffffffffffffffffffffffffffffff16815260200185600019166000191681526020018481526020018381526020018281526020019550505050505060405180910390a18194505050505092915050565b600080600560008473ffffffffffffffffffffffffffffffffffffffff1673ffffffffffffffffffffffffffffffffffffffff16815260200190815260200160002054119050919050565b6000600160009054906101000a900473ffffffffffffffffffffffffffffffffffffffff16905090565b6000600160149054906101000a900460ff16905090565b600061148484848461310b565b90509392505050565b6000600960009054906101000a900473ffffffffffffffffffffffffffffffffffffffff1673ffffffffffffffffffffffffffffffffffffffff163373ffffffffffffffffffffffffffffffffffffffff16141515156114ec57600080fd5b6114f46132d8565b905090565b60008060009054906101000a900473ffffffffffffffffffffffffffffffffffffffff1673ffffffffffffffffffffffffffffffffffffffff163373ffffffffffffffffffffffffffffffffffffffff1614151561155657600080fd5b600160149054906101000a900460ff1615151561157257600080fd5b60008273ffffffffffffffffffffffffffffffffffffffff161415151561159857600080fd5b6001600460008473ffffffffffffffffffffffffffffffffffffffff1673ffffffffffffffffffffffffffffffffffffffff16815260200190815260200160002060006101000a81548160ff0219169083151502179055507f46dc75f891188b0f605cc4e4fa13015d65591a3f1ae87f4fc5eeeb41b686a9873383604051808373ffffffffffffffffffffffffffffffffffffffff1673ffffffffffffffffffffffffffffffffffffffff1681526020018273ffffffffffffffffffffffffffffffffffffffff1673ffffffffffffffffffffffffffffffffffffffff1681526020019250505060405180910390a160019050919050565b600080600560003373ffffffffffffffffffffffffffffffffffffffff1673ffffffffffffffffffffffffffffffffffffffff168152602001908152602001600020541115156116df57600080fd5b600160149054906101000a900460ff161515156116fb57600080fd5b600060025411151561170c57600080fd5b81600560003373ffffffffffffffffffffffffffffffffffffffff1673ffffffffffffffffffffffffffffffffffffffff168152602001908152602001600020541015151561175a57600080fd5b600560003373ffffffffffffffffffffffffffffffffffffffff1673ffffffffffffffffffffffffffffffffffffffff168152602001908152602001600020548214156117e957600560003373ffffffffffffffffffffffffffffffffffffffff1673ffffffffffffffffffffffffffffffffffffffff16815260200190815260200160002060009055611837565b81600560003373ffffffffffffffffffffffffffffffffffffffff1673ffffffffffffffffffffffffffffffffffffffff168152602001908152602001600020600082825403925050819055505b816003600082825401925050819055507fd0cde6a28760b9ac8bd13517e8780a4f4e238f6bb74fa19d7ab431d061df87ea3383604051808373ffffffffffffffffffffffffffffffffffffffff1673ffffffffffffffffffffffffffffffffffffffff1681526020018281526020019250505060405180910390a160019050919050565b60008060009054906101000a900473ffffffffffffffffffffffffffffffffffffffff1673ffffffffffffffffffffffffffffffffffffffff163373ffffffffffffffffffffffffffffffffffffffff1614151561191857600080fd5b8160025411151561192857600080fd5b81600560008573ffffffffffffffffffffffffffffffffffffffff1673ffffffffffffffffffffffffffffffffffffffff168152602001908152602001600020541015151561197657600080fd5b8160026000828254039250508190555081600560008573ffffffffffffffffffffffffffffffffffffffff1673ffffffffffffffffffffffffffffffffffffffff168152602001908152602001600020600082825403925050819055508273ffffffffffffffffffffffffffffffffffffffff166108fc839081150290604051600060405180830381858888f193505050501515611a1357600080fd5b7f3f477375acc3c435adc9e6df6724b60b6c65acb3c3560c5e0669148f501fd9b7338484604051808473ffffffffffffffffffffffffffffffffffffffff1673ffffffffffffffffffffffffffffffffffffffff1681526020018373ffffffffffffffffffffffffffffffffffffffff1673ffffffffffffffffffffffffffffffffffffffff168152602001828152602001935050505060405180910390a16001905092915050565b6000600960009054906101000a900473ffffffffffffffffffffffffffffffffffffffff1673ffffffffffffffffffffffffffffffffffffffff163373ffffffffffffffffffffffffffffffffffffffff16141515611b1a57600080fd5b600960009054906101000a900473ffffffffffffffffffffffffffffffffffffffff1673ffffffffffffffffffffffffffffffffffffffff168273ffffffffffffffffffffffffffffffffffffffff1614151515611b7757600080fd5b6000600a60008473ffffffffffffffffffffffffffffffffffffffff1673ffffffffffffffffffffffffffffffffffffffff16815260200190815260200160002060006101000a81548160ff0219169083151502179055507f99dd649522b0b6300fc653d4a5502e7a6d5e45743cf48e387bfe60ea5ccdc01e3383604051808373ffffffffffffffffffffffffffffffffffffffff1673ffffffffffffffffffffffffffffffffffffffff1681526020018273ffffffffffffffffffffffffffffffffffffffff1673ffffffffffffffffffffffffffffffffffffffff1681526020019250505060405180910390a160019050919050565b6000600254905090565b6000600460003373ffffffffffffffffffffffffffffffffffffffff1673ffffffffffffffffffffffffffffffffffffffff16815260200190815260200160002060009054906101000a900460ff161515611cd357600080fd5b600160149054906101000a900460ff16151515611cef57600080fd5b81600560008673ffffffffffffffffffffffffffffffffffffffff1673ffffffffffffffffffffffffffffffffffffffff1681526020019081526020016000205410151515611d3d57600080fd5b60008373ffffffffffffffffffffffffffffffffffffffff1614151515611d6357600080fd5b81600560008673ffffffffffffffffffffffffffffffffffffffff1673ffffffffffffffffffffffffffffffffffffffff1681526020019081526020016000206000828254039250508190555081600560008573ffffffffffffffffffffffffffffffffffffffff1673ffffffffffffffffffffffffffffffffffffffff168152602001908152602001600020600082825401925050819055507f5988daed7666ccc67d9e91228a9d48ca4abd4250e643e26c620e3c1bb4e3e98333858585604051808573ffffffffffffffffffffffffffffffffffffffff1673ffffffffffffffffffffffffffffffffffffffff1681526020018473ffffffffffffffffffffffffffffffffffffffff1673ffffffffffffffffffffffffffffffffffffffff1681526020018373ffffffffffffffffffffffffffffffffffffffff1673ffffffffffffffffffffffffffffffffffffffff16815260200182815260200194505050505060405180910390a1600190509392505050565b6000600460008373ffffffffffffffffffffffffffffffffffffffff1673ffffffffffffffffffffffffffffffffffffffff16815260200190815260200160002060009054906101000a900460ff169050919050565b6000806000806000600560003373ffffffffffffffffffffffffffffffffffffffff1673ffffffffffffffffffffffffffffffffffffffff16815260200190815260200160002054111515611f8557600080fd5b600160149054906101000a900460ff16151515611fa157600080fd5b600086111515611fb057600080fd5b85600860008a73ffffffffffffffffffffffffffffffffffffffff1673ffffffffffffffffffffffffffffffffffffffff16815260200190815260200160002060008960001916600019168152602001908152602001600020600101541015151561201a57600080fd5b600860008973ffffffffffffffffffffffffffffffffffffffff1673ffffffffffffffffffffffffffffffffffffffff168152602001908152602001600020600088600019166000191681526020019081526020016000206000015492508583029150818514151561208b57600080fd5b61209888888885866134ba565b905060006001028160001916141515156120b157600080fd5b6120bb8883613031565b506120c582611690565b507fb749ea194830599b25112093598f1417849919322e5537bb09ea13f7180510293389898987878b88604051808973ffffffffffffffffffffffffffffffffffffffff1673ffffffffffffffffffffffffffffffffffffffff1681526020018873ffffffffffffffffffffffffffffffffffffffff1673ffffffffffffffffffffffffffffffffffffffff168152602001876000191660001916815260200186815260200185815260200184815260200183815260200182600019166000191681526020019850505050505050505060405180910390a1809350505050949350505050565b60008060009054906101000a900473ffffffffffffffffffffffffffffffffffffffff16905090565b60006121df82613909565b9050919050565b60008060009054906101000a900473ffffffffffffffffffffffffffffffffffffffff1673ffffffffffffffffffffffffffffffffffffffff163373ffffffffffffffffffffffffffffffffffffffff1614151561224357600080fd5b60008273ffffffffffffffffffffffffffffffffffffffff161415151561226957600080fd5b81600160006101000a81548173ffffffffffffffffffffffffffffffffffffffff021916908373ffffffffffffffffffffffffffffffffffffffff1602179055507fae3fd6fbd4e7d8a4e53ecf89c51f72c00191a8d8d2c2fba3a5f4d9224996a6ae3383604051808373ffffffffffffffffffffffffffffffffffffffff1673ffffffffffffffffffffffffffffffffffffffff1681526020018273ffffffffffffffffffffffffffffffffffffffff1673ffffffffffffffffffffffffffffffffffffffff1681526020019250505060405180910390a160019050919050565b6000600560008373ffffffffffffffffffffffffffffffffffffffff1673ffffffffffffffffffffffffffffffffffffffff168152602001908152602001600020549050919050565b6000600a60003373ffffffffffffffffffffffffffffffffffffffff1673ffffffffffffffffffffffffffffffffffffffff16815260200190815260200160002060009054906101000a900460ff1615156123ed57600080fd5b600a60008373ffffffffffffffffffffffffffffffffffffffff1673ffffffffffffffffffffffffffffffffffffffff16815260200190815260200160002060009054906101000a900460ff1615151561244657600080fd5b61244f82613a66565b9050919050565b60008060009054906101000a900473ffffffffffffffffffffffffffffffffffffffff1673ffffffffffffffffffffffffffffffffffffffff163373ffffffffffffffffffffffffffffffffffffffff161415156124b357600080fd5b6000600160146101000a81548160ff0219169083151502179055507fbe8d7a0d2974b6d29c6b0e1f7199c77822dd586b666191ba97458c086c3d2d6433604051808273ffffffffffffffffffffffffffffffffffffffff1673ffffffffffffffffffffffffffffffffffffffff16815260200191505060405180910390a16001905090565b6000600760008373ffffffffffffffffffffffffffffffffffffffff1673ffffffffffffffffffffffffffffffffffffffff168152602001908152602001600020549050919050565b6000600960009054906101000a900473ffffffffffffffffffffffffffffffffffffffff1673ffffffffffffffffffffffffffffffffffffffff163373ffffffffffffffffffffffffffffffffffffffff161415156125df57600080fd5b60008273ffffffffffffffffffffffffffffffffffffffff161415151561260557600080fd5b6001600a60008473ffffffffffffffffffffffffffffffffffffffff1673ffffffffffffffffffffffffffffffffffffffff16815260200190815260200160002060006101000a81548160ff0219169083151502179055507f35a796658169d1d3c0a1b104c328009e1f7d530cb835c2ec54cadeb92ca948a13383604051808373ffffffffffffffffffffffffffffffffffffffff1673ffffffffffffffffffffffffffffffffffffffff1681526020018273ffffffffffffffffffffffffffffffffffffffff1673ffffffffffffffffffffffffffffffffffffffff1681526020019250505060405180910390a160019050919050565b6008602052816000526040600020602052806000526040600020600091509150508060000154908060010154905082565b60008060009054906101000a900473ffffffffffffffffffffffffffffffffffffffff1673ffffffffffffffffffffffffffffffffffffffff163373ffffffffffffffffffffffffffffffffffffffff1614151561278b57600080fd5b600160149054906101000a900460ff161515156127a757600080fd5b600460008373ffffffffffffffffffffffffffffffffffffffff1673ffffffffffffffffffffffffffffffffffffffff16815260200190815260200160002060009054906101000a900460ff1615156127ff57600080fd5b6000600460008473ffffffffffffffffffffffffffffffffffffffff1673ffffffffffffffffffffffffffffffffffffffff16815260200190815260200160002060006101000a81548160ff0219169083151502179055507fb4e91836df982c7ee700e54f7a1ded1a97dd3e8603fa1782c8ce789b7c452e243383604051808373ffffffffffffffffffffffffffffffffffffffff1673ffffffffffffffffffffffffffffffffffffffff1681526020018273ffffffffffffffffffffffffffffffffffffffff1673ffffffffffffffffffffffffffffffffffffffff1681526020019250505060405180910390a160019050919050565b6000806000806000600560003373ffffffffffffffffffffffffffffffffffffffff1673ffffffffffffffffffffffffffffffffffffffff1681526020019081526020016000205411151561294b57600080fd5b600160149054906101000a900460ff1615151561296757600080fd5b60008611151561297657600080fd5b85600860008a73ffffffffffffffffffffffffffffffffffffffff1673ffffffffffffffffffffffffffffffffffffffff1681526020019081526020016000206000896000191660001916815260200190815260200160002060010154101515156129e057600080fd5b600860008973ffffffffffffffffffffffffffffffffffffffff1673ffffffffffffffffffffffffffffffffffffffff1681526020019081526020016000206000886000191660001916815260200190815260200160002060000154925085830291508185101515612a5157600080fd5b612a5e88888885896134ba565b90506000600102816000191614151515612a7757600080fd5b612a8085611690565b507f10ef20f3ce5476a2306bb2073b9ae3885a58f9660826f2985737d4c4187b65d53389898987878b88604051808973ffffffffffffffffffffffffffffffffffffffff1673ffffffffffffffffffffffffffffffffffffffff1681526020018873ffffffffffffffffffffffffffffffffffffffff1673ffffffffffffffffffffffffffffffffffffffff168152602001876000191660001916815260200186815260200185815260200184815260200183815260200182600019166000191681526020019850505050505050505060405180910390a1809350505050949350505050565b6000600160149054906101000a900460ff16151515612b8457600080fd5b3073ffffffffffffffffffffffffffffffffffffffff163160028190555034600560003373ffffffffffffffffffffffffffffffffffffffff1673ffffffffffffffffffffffffffffffffffffffff168152602001908152602001600020600082825401925050819055507f97b04a76e1da57a78ee04eb762cdb5c8bfcdb0511e6f5d88350791bfc1635c1c3334604051808373ffffffffffffffffffffffffffffffffffffffff1673ffffffffffffffffffffffffffffffffffffffff1681526020018281526020019250505060405180910390a16001905090565b6000600160009054906101000a900473ffffffffffffffffffffffffffffffffffffffff1673ffffffffffffffffffffffffffffffffffffffff163373ffffffffffffffffffffffffffffffffffffffff16141515612cbf57600080fd5b600160009054906101000a900473ffffffffffffffffffffffffffffffffffffffff166000806101000a81548173ffffffffffffffffffffffffffffffffffffffff021916908373ffffffffffffffffffffffffffffffffffffffff160217905550600160006101000a81549073ffffffffffffffffffffffffffffffffffffffff02191690557f0d58bef243249903c29496d81a7ffbe3f394735e5ccd3e1dabbfec82c635c8d933600160009054906101000a900473ffffffffffffffffffffffffffffffffffffffff16604051808373ffffffffffffffffffffffffffffffffffffffff1673ffffffffffffffffffffffffffffffffffffffff1681526020018273ffffffffffffffffffffffffffffffffffffffff1673ffffffffffffffffffffffffffffffffffffffff1681526020019250505060405180910390a16001905090565b600080600860008573ffffffffffffffffffffffffffffffffffffffff1673ffffffffffffffffffffffffffffffffffffffff1681526020019081526020016000206000846000191660001916815260200190815260200160002060000154600860008673ffffffffffffffffffffffffffffffffffffffff1673ffffffffffffffffffffffffffffffffffffffff1681526020019081526020016000206000856000191660001916815260200190815260200160002060010154915091509250929050565b6000600160149054906101000a900460ff16151515612eea57600080fd5b600660008373ffffffffffffffffffffffffffffffffffffffff1673ffffffffffffffffffffffffffffffffffffffff16815260200190815260200160002060009054906101000a900460ff161515612f4257600080fd5b600660008373ffffffffffffffffffffffffffffffffffffffff1673ffffffffffffffffffffffffffffffffffffffff16815260200190815260200160002060006101000a81549060ff02191690557f76ef53c2948516c8256050cf5fb0bb403eadba7e905a94678cdee02e3a392b203383604051808373ffffffffffffffffffffffffffffffffffffffff1673ffffffffffffffffffffffffffffffffffffffff1681526020018273ffffffffffffffffffffffffffffffffffffffff1673ffffffffffffffffffffffffffffffffffffffff1681526020019250505060405180910390a160019050919050565b6000600160149054906101000a900460ff1615151561304f57600080fd5b81600760008573ffffffffffffffffffffffffffffffffffffffff1673ffffffffffffffffffffffffffffffffffffffff168152602001908152602001600020600082825401925050819055508273ffffffffffffffffffffffffffffffffffffffff163373ffffffffffffffffffffffffffffffffffffffff167f45946ae69192f6c29b67c6bd36a6a8bb4de96d61b297775f2827f46d2e3dff1e846040518082815260200191505060405180910390a36001905092915050565b6000600660003373ffffffffffffffffffffffffffffffffffffffff1673ffffffffffffffffffffffffffffffffffffffff16815260200190815260200160002060009054906101000a900460ff16151561316557600080fd5b600160149054906101000a900460ff1615151561318157600080fd5b82600860003373ffffffffffffffffffffffffffffffffffffffff1673ffffffffffffffffffffffffffffffffffffffff168152602001908152602001600020600086600019166000191681526020019081526020016000206000018190555081600860003373ffffffffffffffffffffffffffffffffffffffff1673ffffffffffffffffffffffffffffffffffffffff16815260200190815260200160002060008660001916600019168152602001908152602001600020600101600082825401925050819055507f2744d1fb9c6101afca3f271ba0be98226935f1ff9ef351fc13c33c39dab04de033858585604051808573ffffffffffffffffffffffffffffffffffffffff1673ffffffffffffffffffffffffffffffffffffffff168152602001846000191660001916815260200183815260200182815260200194505050505060405180910390a1600190509392505050565b600080600660003373ffffffffffffffffffffffffffffffffffffffff1673ffffffffffffffffffffffffffffffffffffffff16815260200190815260200160002060009054906101000a900460ff16151561333357600080fd5b600160149054906101000a900460ff1615151561334f57600080fd5b6000600760003373ffffffffffffffffffffffffffffffffffffffff1673ffffffffffffffffffffffffffffffffffffffff1681526020019081526020016000205411151561339d57600080fd5b600760003373ffffffffffffffffffffffffffffffffffffffff1673ffffffffffffffffffffffffffffffffffffffff1681526020019081526020016000205490506000600760003373ffffffffffffffffffffffffffffffffffffffff1673ffffffffffffffffffffffffffffffffffffffff168152602001908152602001600020819055503373ffffffffffffffffffffffffffffffffffffffff166108fc829081150290604051600060405180830381858888f19350505050151561346457600080fd5b3373ffffffffffffffffffffffffffffffffffffffff167f8c77b790e55fae54c579b59aeb38dad3bf9ce06e896e80372d1c96eab1f775ce826040518082815260200191505060405180910390a2600191505090565b6000806000600560003373ffffffffffffffffffffffffffffffffffffffff1673ffffffffffffffffffffffffffffffffffffffff1681526020019081526020016000205411151561350b57600080fd5b600160149054906101000a900460ff1615151561352757600080fd5b8686600c600081548092919060010191905055604051808473ffffffffffffffffffffffffffffffffffffffff1673ffffffffffffffffffffffffffffffffffffffff166c010000000000000000000000000281526014018360001916600019168152602001828152602001935050505060405180910390209050600b6000826000191660001916815260200190815260200160002060000180548060010182816135d29190613ba2565b9160005260206000209001600033909190916101000a81548173ffffffffffffffffffffffffffffffffffffffff021916908373ffffffffffffffffffffffffffffffffffffffff1602179055505086600b6000836000191660001916815260200190815260200160002060010160006101000a81548173ffffffffffffffffffffffffffffffffffffffff021916908373ffffffffffffffffffffffffffffffffffffffff16021790555085600b60008360001916600019168152602001908152602001600020600201816000191690555084600b600083600019166000191681526020019081526020016000206003018190555083600b600083600019166000191681526020019081526020016000206004018190555082600b600083600019166000191681526020019081526020016000206005016000828254019250508190555084600860008973ffffffffffffffffffffffffffffffffffffffff1673ffffffffffffffffffffffffffffffffffffffff168152602001908152602001600020600088600019166000191681526020019081526020016000206001015414156137e0576000600860008973ffffffffffffffffffffffffffffffffffffffff1673ffffffffffffffffffffffffffffffffffffffff168152602001908152602001600020600088600019166000191681526020019081526020016000206001018190555061384a565b84600860008973ffffffffffffffffffffffffffffffffffffffff1673ffffffffffffffffffffffffffffffffffffffff16815260200190815260200160002060008860001916600019168152602001908152602001600020600101600082825403925050819055505b3373ffffffffffffffffffffffffffffffffffffffff167f0b8154023d4f5424176b77400150a708e16933bffe3a437202073b72acc2a83a888888888887604051808773ffffffffffffffffffffffffffffffffffffffff1673ffffffffffffffffffffffffffffffffffffffff16815260200186600019166000191681526020018581526020018481526020018381526020018260001916600019168152602001965050505050505060405180910390a28091505095945050505050565b6000600660003373ffffffffffffffffffffffffffffffffffffffff1673ffffffffffffffffffffffffffffffffffffffff16815260200190815260200160002060009054906101000a900460ff16151561396357600080fd5b600160149054906101000a900460ff1615151561397f57600080fd5b600860003373ffffffffffffffffffffffffffffffffffffffff1673ffffffffffffffffffffffffffffffffffffffff16815260200190815260200160002060008360001916600019168152602001908152602001600020600080820160009055600182016000905550507f0305de994f18c182f746fa0c5fd11f2ff509e9d43eea8ba2d3ea5913c9f094533383604051808373ffffffffffffffffffffffffffffffffffffffff1673ffffffffffffffffffffffffffffffffffffffff16815260200182600019166000191681526020019250505060405180910390a160019050919050565b6000600160149054906101000a900460ff16151515613a8457600080fd5b60008273ffffffffffffffffffffffffffffffffffffffff1614151515613aaa57600080fd5b6001600660008473ffffffffffffffffffffffffffffffffffffffff1673ffffffffffffffffffffffffffffffffffffffff16815260200190815260200160002060006101000a81548160ff0219169083151502179055507f9c02ef1ffe4c97c8ccb5a3e109b022f6dfc00e16069e7fe18adfbe5bc84361d03383604051808373ffffffffffffffffffffffffffffffffffffffff1673ffffffffffffffffffffffffffffffffffffffff1681526020018273ffffffffffffffffffffffffffffffffffffffff1673ffffffffffffffffffffffffffffffffffffffff1681526020019250505060405180910390a160019050919050565b815481835581811511613bc957818360005260206000209182019101613bc89190613bce565b5b505050565b613bf091905b80821115613bec576000816000905550600101613bd4565b5090565b905600a165627a7a72305820eb927b95c1870b11853576cc448a19e33765c0afc5b484b0bf1156b430546dd10029",
  "source": "pragma solidity ^0.4.4;\r\n\r\nimport \"./MyShared/Funded.sol\";\r\nimport \"./ProductManager.sol\";\r\n\r\n/*\r\nA shopfront\r\nThe project will start as a database whereby:\r\n- as an administrator, you can add products, which consist of an id, a price and a stock.\r\n- as a regular user you can buy 1 of the products.\r\n- as the owner you can make payments or withdraw value from the contract.\r\n\r\nEventually, you will refactor it to include:\r\n- ability to remove products.\r\n- co-purchase by different people.\r\n- add merchants akin to what Amazon has become.\r\n- add the ability to pay with a third-party token.\r\n*/\r\n\r\ncontract Shop is Funded, ProductManager {\r\n    address private root; //Root administrator\r\n    mapping (address => bool) private administrators;\r\n\r\n    struct Purchase {\r\n        address[] buyers; //a purchase could be shared by more than one buyer\r\n        address merchant;\r\n        bytes32 productId;\r\n        uint units; //units sold\r\n        uint256 total; //total sale amount\r\n        uint256 paid; //total paid, specially relevant in case of a shared purchase\r\n    }\r\n    mapping (bytes32 => Purchase) private purchases; //key = transaction hash\r\n\r\n    uint256 purchaseCounter;\r\n\r\n        event LogShopNew (address _sender);\r\n    //Constructor\r\n    function Shop ()\r\n        Funded (msg.sender)\r\n        public\r\n    {\r\n        root = msg.sender;\r\n        administrators[msg.sender] = true; //add root to the administrators\r\n\r\n        LogShopNew (msg.sender);\r\n    }\r\n\r\n    modifier onlyRoot () { require(msg.sender == root); _; }\r\n    modifier onlyAdministrators () { require(administrators[msg.sender]); _; }\r\n\r\n    function isAdministrator (address _administrator)\r\n        public\r\n        constant\r\n        returns (bool _is)\r\n    {\r\n        return (administrators[_administrator]);\r\n    }\r\n\r\n        event LogShopAddAdministrator (address _sender, address _administrator);\r\n    // To add a new admin\r\n    function addAdministrator (address _administrator)\r\n        onlyRoot\r\n        public\r\n        returns (bool _success)\r\n    {\r\n        require (_administrator != 0);\r\n        administrators[_administrator] = true;\r\n\r\n        LogShopAddAdministrator (msg.sender, _administrator);\r\n        return true;\r\n    }\r\n\r\n        event LogShopRemoveAdministrator (address _sender, address _administrator);\r\n    // Remove an admin. Root cannot be removed\r\n    function removeAdministrator (address _administrator)\r\n        onlyRoot\r\n        public\r\n        returns (bool _success)\r\n    {\r\n        require (_administrator != root); //root cannot be removed\r\n        administrators[_administrator] = false;\r\n\r\n        LogShopRemoveAdministrator (msg.sender, _administrator);\r\n        return true;\r\n    }\r\n\r\n    // Expose internal MerchantManager function\r\n    function addMerchant (address _merchant)\r\n        onlyAdministrators\r\n        public\r\n        returns (bool _success)\r\n    {\r\n        require (!administrators[_merchant]); // A merchant cannot be an administrator\r\n\r\n        return _addMerchant(_merchant); //call the internal function in MerchantManager\r\n    }\r\n\r\n    // Expose internal MerchantManager function\r\n    function removeMerchant (address _merchant)\r\n        onlyAdministrators\r\n        public\r\n        returns (bool _success)\r\n    {\r\n        require (_merchant != root); //root cannot be removed\r\n        return _removeMerchant(_merchant); //call the internal function in MerchantManager\r\n    }\r\n\r\n    // Expose internal ProductManager function\r\n    function addProduct (bytes32 _productId, uint256 _unitPrice, uint _stock)\r\n        public\r\n        returns (bool _success)\r\n    {\r\n        return _addProduct (_productId, _unitPrice, _stock);\r\n    }\r\n\r\n    // Expose internal ProductManager function\r\n    function removeProduct (bytes32 _productId)\r\n        public\r\n        returns (bool _success)\r\n    {\r\n        return _removeProduct (_productId);\r\n    }\r\n\r\n    // Expose internal MerchantManager function\r\n    function merchantWithdrawAllBalance ()\r\n        public\r\n        returns (bool _success)\r\n    {\r\n        require(msg.sender != root); //the root cannot withdraw his own funds\r\n        return _withdrawAllBalance();\r\n    }\r\n \r\n        event LogShopPurchaseProduct (address _sender, address _merchant, bytes32 _productId, uint _units, uint256 _unitPrice, uint256 _total, uint256 _amount, bytes32 _txHash);\r\n    // The buyer shall have funded his account BEFORE he can purchase any product\r\n    // The buyer shall have enough balance to purchase the products\r\n    // If he does, then the total amount will be deducted from his balance\r\n    // A purchase will then be registered with customer's address and product id\r\n    // The product's stock will be updated\r\n    // The sale amount will be credited to the merchant\r\n    function purchaseProduct (address _merchant, bytes32 _productId, uint _units, uint256 _amount)\r\n        onlyDepositors\r\n        onlyIfRunning\r\n        public\r\n        returns (bytes32 _txHash)\r\n    {\r\n        require (_units > 0);\r\n        require (products[_merchant][_productId].stock >= _units); // check stock\r\n        uint256 unitPrice = products[_merchant][_productId].unitPrice;\r\n        uint256 total = unitPrice * _units; // calculate total required balance\r\n        require (_amount == total); //the buyer commits enough funds\r\n\r\n        bytes32 txHash;\r\n        txHash = registerPurchase (_merchant, _productId, _units, total, total); //register the purchase\r\n        require(txHash != 0);\r\n\r\n        _addMerchantSale(_merchant, total); //account the purchase to the merchant\r\n        spendFunds (total); //deduct total from buyer\r\n        //here we could call a delivery function to send the products to the buyer\r\n\r\n        LogShopPurchaseProduct (msg.sender, _merchant, _productId, _units, unitPrice, total, _amount, txHash);\r\n        return txHash;\r\n    }\r\n\r\n        event LogShopPurchaseSharedProduct (address _sender, address _merchant, bytes32 _productId, uint _units, uint256 _unitPrice, uint256 _total, uint256 _amount, bytes32 _txHash);\r\n    // To be executed by the fist buyer of a shared purchase\r\n    function purchaseSharedProduct (address _merchant, bytes32 _productId, uint _units, uint256 _amount)\r\n        onlyDepositors\r\n        onlyIfRunning\r\n        public\r\n        returns (bytes32 _txHash)\r\n    {\r\n        require (_units > 0);\r\n        require (products[_merchant][_productId].stock >= _units); // check stock\r\n        uint256 unitPrice = products[_merchant][_productId].unitPrice;\r\n        uint256 total = unitPrice * _units; // calculate total required balance\r\n        require (_amount < total); //require to start a shared purchase with less amount than the purchase total\r\n\r\n        bytes32 txHash;\r\n        txHash = registerPurchase (_merchant, _productId, _units, total, _amount); //register the purchase\r\n        require(txHash != 0);\r\n        \r\n        spendFunds (_amount); //deduct _amountPaid from buyer\r\n        //do not account the purchase to the merchant as the sale is not fully paid\r\n        \r\n        LogShopPurchaseSharedProduct (msg.sender, _merchant, _productId, _units, unitPrice, total, _amount, txHash);\r\n        return txHash;\r\n    }\r\n\r\n        event LogShopUpdatePurchaseSharedProduct (address _sender, bytes32 _txHash, uint256 _share, uint256 _paid, uint256 _remainingTotal);\r\n    // co-purchase by different buyers\r\n    // If the purchase is totally paid off the sale will be credited to the merchant\r\n    function updatePurchaseSharedProduct (bytes32 _txHash, uint256 _amount)\r\n        onlyDepositors\r\n        onlyIfRunning\r\n        public\r\n        returns (uint256 _remainingTotal)\r\n    {\r\n        uint256 total = purchases[_txHash].total;\r\n        uint256 paid = purchases[_txHash].paid;\r\n\r\n        require (total > paid); //ensure that there is amount left to be paid\r\n\r\n        uint256 remainingTotal;\r\n        uint256 toPay;\r\n\r\n        if (_amount > (total - paid)) // sending more funds than remaining total\r\n            toPay = _amount - (total - paid);\r\n        else\r\n            toPay = _amount;\r\n\r\n        purchases[_txHash].buyers.push(msg.sender);\r\n        purchases[_txHash].paid += toPay;\r\n        paid += toPay;\r\n\r\n        if (paid == total) //if it is completely paid then\r\n        {\r\n            _addMerchantSale(purchases[_txHash].merchant, total); //account the purchase to the merchant\r\n            //here we could call a delivery function to send the products to the buyer\r\n            remainingTotal = 0;\r\n        }\r\n        else\r\n        {\r\n            remainingTotal = total - paid;\r\n        }\r\n\r\n        spendFunds (toPay); //deduct amount from buyer\r\n\r\n        LogShopUpdatePurchaseSharedProduct (msg.sender, _txHash, _amount, toPay, remainingTotal);\r\n        return remainingTotal;\r\n    }\r\n\r\n        event LogShopRegisterPurchase (address indexed _sender, address _merchant, bytes32 _productId, uint _units, uint256 _total, uint256 _paid, bytes32 _txHash);\r\n    //Register the purchase in the struct\r\n    function registerPurchase (address _merchant, bytes32 _productId, uint _units, uint256 _total, uint256 _paid)\r\n        onlyDepositors\r\n        onlyIfRunning\r\n        private\r\n        returns (bytes32 _txHash)\r\n    {\r\n        bytes32 txHash;\r\n\r\n        txHash = keccak256(_merchant, _productId, purchaseCounter++); //create a sales hash\r\n            purchases[txHash].buyers.push(msg.sender); //register purchase\r\n            purchases[txHash].merchant = _merchant;\r\n            purchases[txHash].productId = _productId;\r\n            purchases[txHash].units = _units;\r\n            purchases[txHash].total = _total;\r\n            purchases[txHash].paid += _paid;\r\n        \r\n        if (products[_merchant][_productId].stock == _units)\r\n            products[_merchant][_productId].stock = 0;\r\n        else\r\n            products[_merchant][_productId].stock -= _units; //update stock\r\n\r\n        LogShopRegisterPurchase (msg.sender, _merchant, _productId, _units, _total, _paid, txHash);\r\n        return txHash;\r\n    }\r\n}",
  "sourcePath": "/home/jordi/b9/Unit5/Projects/Shop/contracts/Shop.sol",
  "compiler": {
    "name": "solc",
    "version": "0.4.18+commit.9cf6e910.Emscripten.clang"
  },
  "schemaVersion": "1.0.1",
  "updatedAt": "2018-01-29T16:45:49.138Z"
}