{
  "contractName": "Shop",
  "abi": [
    {
      "constant": true,
      "inputs": [
        {
          "name": "_merchant",
          "type": "address"
        }
      ],
      "name": "getInfoMerchantSales",
      "outputs": [
        {
          "name": "_balance",
          "type": "uint256"
        }
      ],
      "payable": false,
      "stateMutability": "view",
      "type": "function"
    },
    {
      "constant": false,
      "inputs": [],
      "name": "stopContract",
      "outputs": [
        {
          "name": "_success",
          "type": "bool"
        }
      ],
      "payable": false,
      "stateMutability": "nonpayable",
      "type": "function"
    },
    {
      "constant": false,
      "inputs": [
        {
          "name": "_shopOwner",
          "type": "address"
        }
      ],
      "name": "removeShopOwner",
      "outputs": [
        {
          "name": "_success",
          "type": "bool"
        }
      ],
      "payable": false,
      "stateMutability": "nonpayable",
      "type": "function"
    },
    {
      "constant": true,
      "inputs": [
        {
          "name": "_merchant",
          "type": "address"
        }
      ],
      "name": "isMerchant",
      "outputs": [
        {
          "name": "_is",
          "type": "bool"
        }
      ],
      "payable": false,
      "stateMutability": "view",
      "type": "function"
    },
    {
      "constant": true,
      "inputs": [],
      "name": "getInfoContractFunds",
      "outputs": [
        {
          "name": "_contractFunds",
          "type": "uint256"
        }
      ],
      "payable": false,
      "stateMutability": "view",
      "type": "function"
    },
    {
      "constant": true,
      "inputs": [
        {
          "name": "_depositor",
          "type": "address"
        }
      ],
      "name": "isDepositor",
      "outputs": [
        {
          "name": "_isIndeed",
          "type": "bool"
        }
      ],
      "payable": false,
      "stateMutability": "view",
      "type": "function"
    },
    {
      "constant": false,
      "inputs": [
        {
          "name": "_merchant",
          "type": "address"
        }
      ],
      "name": "shopRemoveMerchant",
      "outputs": [
        {
          "name": "_success",
          "type": "bool"
        }
      ],
      "payable": false,
      "stateMutability": "nonpayable",
      "type": "function"
    },
    {
      "constant": false,
      "inputs": [],
      "name": "shopMerchantWithdrawAllBalance",
      "outputs": [
        {
          "name": "_success",
          "type": "bool"
        }
      ],
      "payable": false,
      "stateMutability": "nonpayable",
      "type": "function"
    },
    {
      "constant": true,
      "inputs": [],
      "name": "isStopped",
      "outputs": [
        {
          "name": "_stop",
          "type": "bool"
        }
      ],
      "payable": false,
      "stateMutability": "view",
      "type": "function"
    },
    {
      "constant": true,
      "inputs": [],
      "name": "newHashTicket",
      "outputs": [
        {
          "name": "_hashTicket",
          "type": "bytes32"
        }
      ],
      "payable": false,
      "stateMutability": "view",
      "type": "function"
    },
    {
      "constant": true,
      "inputs": [],
      "name": "getInfoNewOwner",
      "outputs": [
        {
          "name": "_newOwner",
          "type": "address"
        }
      ],
      "payable": false,
      "stateMutability": "view",
      "type": "function"
    },
    {
      "constant": false,
      "inputs": [
        {
          "name": "_hashTicket",
          "type": "bytes32"
        }
      ],
      "name": "updatePurchaseSharedProduct",
      "outputs": [
        {
          "name": "_remainingTotal",
          "type": "uint256"
        }
      ],
      "payable": true,
      "stateMutability": "payable",
      "type": "function"
    },
    {
      "constant": true,
      "inputs": [],
      "name": "getInfoOwner",
      "outputs": [
        {
          "name": "_owner",
          "type": "address"
        }
      ],
      "payable": false,
      "stateMutability": "view",
      "type": "function"
    },
    {
      "constant": true,
      "inputs": [
        {
          "name": "_hashTicket",
          "type": "bytes32"
        }
      ],
      "name": "getInfoDeposit",
      "outputs": [
        {
          "name": "_depositor",
          "type": "address"
        },
        {
          "name": "_amount",
          "type": "uint256"
        }
      ],
      "payable": false,
      "stateMutability": "view",
      "type": "function"
    },
    {
      "constant": false,
      "inputs": [
        {
          "name": "_depositor",
          "type": "address"
        }
      ],
      "name": "newDepositor",
      "outputs": [
        {
          "name": "_success",
          "type": "bool"
        }
      ],
      "payable": false,
      "stateMutability": "nonpayable",
      "type": "function"
    },
    {
      "constant": false,
      "inputs": [
        {
          "name": "_hashTicket",
          "type": "bytes32"
        }
      ],
      "name": "emergencyWithdrawal",
      "outputs": [
        {
          "name": "_success",
          "type": "bool"
        }
      ],
      "payable": false,
      "stateMutability": "nonpayable",
      "type": "function"
    },
    {
      "constant": true,
      "inputs": [],
      "name": "getInfoContractCommissions",
      "outputs": [
        {
          "name": "_contractCommissions",
          "type": "uint256"
        }
      ],
      "payable": false,
      "stateMutability": "view",
      "type": "function"
    },
    {
      "constant": true,
      "inputs": [
        {
          "name": "_merchant",
          "type": "address"
        },
        {
          "name": "_productID",
          "type": "bytes32"
        }
      ],
      "name": "getInfoProduct",
      "outputs": [
        {
          "name": "_unitPrice",
          "type": "uint256"
        },
        {
          "name": "_stock",
          "type": "uint256"
        }
      ],
      "payable": false,
      "stateMutability": "view",
      "type": "function"
    },
    {
      "constant": false,
      "inputs": [
        {
          "name": "_newOwner",
          "type": "address"
        }
      ],
      "name": "changeOwner",
      "outputs": [
        {
          "name": "_success",
          "type": "bool"
        }
      ],
      "payable": false,
      "stateMutability": "nonpayable",
      "type": "function"
    },
    {
      "constant": false,
      "inputs": [
        {
          "name": "_merchant",
          "type": "address"
        }
      ],
      "name": "shopAddMerchant",
      "outputs": [
        {
          "name": "_success",
          "type": "bool"
        }
      ],
      "payable": false,
      "stateMutability": "nonpayable",
      "type": "function"
    },
    {
      "constant": true,
      "inputs": [
        {
          "name": "_shopOwner",
          "type": "address"
        }
      ],
      "name": "isShopOwner",
      "outputs": [
        {
          "name": "_isIndeed",
          "type": "bool"
        }
      ],
      "payable": false,
      "stateMutability": "view",
      "type": "function"
    },
    {
      "constant": false,
      "inputs": [
        {
          "name": "_productID",
          "type": "bytes32"
        }
      ],
      "name": "shopRemoveProduct",
      "outputs": [
        {
          "name": "_success",
          "type": "bool"
        }
      ],
      "payable": false,
      "stateMutability": "nonpayable",
      "type": "function"
    },
    {
      "constant": false,
      "inputs": [],
      "name": "resumeContract",
      "outputs": [
        {
          "name": "_success",
          "type": "bool"
        }
      ],
      "payable": false,
      "stateMutability": "nonpayable",
      "type": "function"
    },
    {
      "constant": false,
      "inputs": [
        {
          "name": "_merchant",
          "type": "address"
        },
        {
          "name": "_productID",
          "type": "bytes32"
        },
        {
          "name": "_units",
          "type": "uint256"
        }
      ],
      "name": "purchaseSharedProduct",
      "outputs": [
        {
          "name": "_hashTicket",
          "type": "bytes32"
        }
      ],
      "payable": true,
      "stateMutability": "payable",
      "type": "function"
    },
    {
      "constant": false,
      "inputs": [
        {
          "name": "_productID",
          "type": "bytes32"
        },
        {
          "name": "_unitPrice",
          "type": "uint256"
        },
        {
          "name": "_stock",
          "type": "uint256"
        }
      ],
      "name": "shopAddProduct",
      "outputs": [
        {
          "name": "_success",
          "type": "bool"
        }
      ],
      "payable": false,
      "stateMutability": "nonpayable",
      "type": "function"
    },
    {
      "constant": true,
      "inputs": [
        {
          "name": "",
          "type": "address"
        },
        {
          "name": "",
          "type": "bytes32"
        }
      ],
      "name": "products",
      "outputs": [
        {
          "name": "unitPrice",
          "type": "uint256"
        },
        {
          "name": "stock",
          "type": "uint256"
        }
      ],
      "payable": false,
      "stateMutability": "view",
      "type": "function"
    },
    {
      "constant": true,
      "inputs": [
        {
          "name": "_hashTicket",
          "type": "bytes32"
        }
      ],
      "name": "getInfoCommission",
      "outputs": [
        {
          "name": "_commissionAmount",
          "type": "uint256"
        }
      ],
      "payable": false,
      "stateMutability": "view",
      "type": "function"
    },
    {
      "constant": false,
      "inputs": [
        {
          "name": "_merchant",
          "type": "address"
        },
        {
          "name": "_productID",
          "type": "bytes32"
        },
        {
          "name": "_units",
          "type": "uint256"
        }
      ],
      "name": "purchaseProduct",
      "outputs": [
        {
          "name": "_hashTicket",
          "type": "bytes32"
        }
      ],
      "payable": true,
      "stateMutability": "payable",
      "type": "function"
    },
    {
      "constant": false,
      "inputs": [],
      "name": "confirmChangeOwner",
      "outputs": [
        {
          "name": "_success",
          "type": "bool"
        }
      ],
      "payable": false,
      "stateMutability": "nonpayable",
      "type": "function"
    },
    {
      "constant": true,
      "inputs": [
        {
          "name": "_beneficiary",
          "type": "address"
        },
        {
          "name": "_password",
          "type": "bytes32"
        }
      ],
      "name": "newHashTicketTransfer",
      "outputs": [
        {
          "name": "_hashTicketTransfer",
          "type": "bytes32"
        }
      ],
      "payable": false,
      "stateMutability": "view",
      "type": "function"
    },
    {
      "constant": false,
      "inputs": [
        {
          "name": "_shopOwner",
          "type": "address"
        }
      ],
      "name": "addShopOwner",
      "outputs": [
        {
          "name": "_success",
          "type": "bool"
        }
      ],
      "payable": false,
      "stateMutability": "nonpayable",
      "type": "function"
    },
    {
      "inputs": [],
      "payable": false,
      "stateMutability": "nonpayable",
      "type": "constructor"
    },
    {
      "anonymous": false,
      "inputs": [
        {
          "indexed": false,
          "name": "_sender",
          "type": "address"
        }
      ],
      "name": "LogShopNew",
      "type": "event"
    },
    {
      "anonymous": false,
      "inputs": [
        {
          "indexed": false,
          "name": "_sender",
          "type": "address"
        },
        {
          "indexed": false,
          "name": "_merchant",
          "type": "address"
        },
        {
          "indexed": false,
          "name": "_productID",
          "type": "bytes32"
        },
        {
          "indexed": false,
          "name": "_units",
          "type": "uint256"
        },
        {
          "indexed": false,
          "name": "_unitPrice",
          "type": "uint256"
        },
        {
          "indexed": false,
          "name": "_total",
          "type": "uint256"
        },
        {
          "indexed": false,
          "name": "_amount",
          "type": "uint256"
        },
        {
          "indexed": false,
          "name": "_hashTicket",
          "type": "bytes32"
        }
      ],
      "name": "LogShopPurchaseProduct",
      "type": "event"
    },
    {
      "anonymous": false,
      "inputs": [
        {
          "indexed": false,
          "name": "_sender",
          "type": "address"
        },
        {
          "indexed": false,
          "name": "_merchant",
          "type": "address"
        },
        {
          "indexed": false,
          "name": "_productID",
          "type": "bytes32"
        },
        {
          "indexed": false,
          "name": "_units",
          "type": "uint256"
        },
        {
          "indexed": false,
          "name": "_unitPrice",
          "type": "uint256"
        },
        {
          "indexed": false,
          "name": "_total",
          "type": "uint256"
        },
        {
          "indexed": false,
          "name": "_amount",
          "type": "uint256"
        },
        {
          "indexed": false,
          "name": "_hashTicket",
          "type": "bytes32"
        }
      ],
      "name": "LogShopPurchaseSharedProduct",
      "type": "event"
    },
    {
      "anonymous": false,
      "inputs": [
        {
          "indexed": false,
          "name": "_sender",
          "type": "address"
        },
        {
          "indexed": false,
          "name": "_hashTicket",
          "type": "bytes32"
        },
        {
          "indexed": false,
          "name": "_amount",
          "type": "uint256"
        },
        {
          "indexed": false,
          "name": "_paid",
          "type": "uint256"
        },
        {
          "indexed": false,
          "name": "_remainingTotal",
          "type": "uint256"
        }
      ],
      "name": "LogShopUpdatePurchaseSharedProduct",
      "type": "event"
    },
    {
      "anonymous": false,
      "inputs": [
        {
          "indexed": true,
          "name": "_sender",
          "type": "address"
        },
        {
          "indexed": false,
          "name": "_merchant",
          "type": "address"
        },
        {
          "indexed": false,
          "name": "_productID",
          "type": "bytes32"
        },
        {
          "indexed": false,
          "name": "_units",
          "type": "uint256"
        },
        {
          "indexed": false,
          "name": "_total",
          "type": "uint256"
        },
        {
          "indexed": false,
          "name": "_paid",
          "type": "uint256"
        },
        {
          "indexed": false,
          "name": "_hashTicket",
          "type": "bytes32"
        }
      ],
      "name": "LogShopRegisterPurchase",
      "type": "event"
    },
    {
      "anonymous": false,
      "inputs": [
        {
          "indexed": false,
          "name": "_sender",
          "type": "address"
        },
        {
          "indexed": false,
          "name": "_shopOwner",
          "type": "address"
        }
      ],
      "name": "LogShopAddShopOwner",
      "type": "event"
    },
    {
      "anonymous": false,
      "inputs": [
        {
          "indexed": false,
          "name": "_sender",
          "type": "address"
        },
        {
          "indexed": false,
          "name": "_shopOwner",
          "type": "address"
        }
      ],
      "name": "LogShopRemoveShopOwner",
      "type": "event"
    },
    {
      "anonymous": false,
      "inputs": [
        {
          "indexed": false,
          "name": "_sender",
          "type": "address"
        }
      ],
      "name": "LogProductManagerNew",
      "type": "event"
    },
    {
      "anonymous": false,
      "inputs": [
        {
          "indexed": false,
          "name": "_sender",
          "type": "address"
        },
        {
          "indexed": false,
          "name": "_productID",
          "type": "bytes32"
        },
        {
          "indexed": false,
          "name": "_unitPrice",
          "type": "uint256"
        },
        {
          "indexed": false,
          "name": "_stock",
          "type": "uint256"
        }
      ],
      "name": "LogProductManagerAddProduct",
      "type": "event"
    },
    {
      "anonymous": false,
      "inputs": [
        {
          "indexed": false,
          "name": "_sender",
          "type": "address"
        },
        {
          "indexed": false,
          "name": "_productID",
          "type": "bytes32"
        }
      ],
      "name": "LogProductManagerRemoveProduct",
      "type": "event"
    },
    {
      "anonymous": false,
      "inputs": [
        {
          "indexed": false,
          "name": "_sender",
          "type": "address"
        }
      ],
      "name": "LogMerchantManagerNew",
      "type": "event"
    },
    {
      "anonymous": false,
      "inputs": [
        {
          "indexed": false,
          "name": "_sender",
          "type": "address"
        },
        {
          "indexed": false,
          "name": "_merchant",
          "type": "address"
        }
      ],
      "name": "LogMerchantManagerAddMerchant",
      "type": "event"
    },
    {
      "anonymous": false,
      "inputs": [
        {
          "indexed": false,
          "name": "_sender",
          "type": "address"
        },
        {
          "indexed": false,
          "name": "_merchant",
          "type": "address"
        }
      ],
      "name": "LogMerchantManagerRemoveMerchant",
      "type": "event"
    },
    {
      "anonymous": false,
      "inputs": [
        {
          "indexed": false,
          "name": "_sender",
          "type": "address"
        },
        {
          "indexed": false,
          "name": "_merchant",
          "type": "address"
        },
        {
          "indexed": false,
          "name": "_amount",
          "type": "uint256"
        }
      ],
      "name": "LogMerchantManagerAddMerchantSale",
      "type": "event"
    },
    {
      "anonymous": false,
      "inputs": [
        {
          "indexed": false,
          "name": "_sender",
          "type": "address"
        },
        {
          "indexed": false,
          "name": "_merchant",
          "type": "address"
        },
        {
          "indexed": false,
          "name": "_amount",
          "type": "uint256"
        }
      ],
      "name": "LogMerchantManagerRemoveMerchantSale",
      "type": "event"
    },
    {
      "anonymous": false,
      "inputs": [
        {
          "indexed": false,
          "name": "_sender",
          "type": "address"
        },
        {
          "indexed": false,
          "name": "_transferAmount",
          "type": "uint256"
        }
      ],
      "name": "LogMerchantManagerMerchantWithdrawAllBalance",
      "type": "event"
    },
    {
      "anonymous": false,
      "inputs": [
        {
          "indexed": false,
          "name": "_sender",
          "type": "address"
        }
      ],
      "name": "LogFundsManagerNew",
      "type": "event"
    },
    {
      "anonymous": false,
      "inputs": [
        {
          "indexed": false,
          "name": "_sender",
          "type": "address"
        },
        {
          "indexed": false,
          "name": "value",
          "type": "uint256"
        }
      ],
      "name": "LogFundsManagerDepositFunds",
      "type": "event"
    },
    {
      "anonymous": false,
      "inputs": [
        {
          "indexed": false,
          "name": "_sender",
          "type": "address"
        },
        {
          "indexed": false,
          "name": "_depositor",
          "type": "address"
        },
        {
          "indexed": false,
          "name": "_amount",
          "type": "uint256"
        }
      ],
      "name": "LogFundsManagerWithdrawFunds",
      "type": "event"
    },
    {
      "anonymous": false,
      "inputs": [
        {
          "indexed": false,
          "name": "_sender",
          "type": "address"
        },
        {
          "indexed": false,
          "name": "_hashTicket",
          "type": "bytes32"
        },
        {
          "indexed": false,
          "name": "_amount",
          "type": "uint256"
        }
      ],
      "name": "LogFundsManagerSpendFunds",
      "type": "event"
    },
    {
      "anonymous": false,
      "inputs": [
        {
          "indexed": false,
          "name": "_sender",
          "type": "address"
        },
        {
          "indexed": false,
          "name": "_origin",
          "type": "address"
        },
        {
          "indexed": false,
          "name": "_password",
          "type": "bytes32"
        }
      ],
      "name": "LogFundsManagerTransferFunds",
      "type": "event"
    },
    {
      "anonymous": false,
      "inputs": [
        {
          "indexed": false,
          "name": "_sender",
          "type": "address"
        },
        {
          "indexed": false,
          "name": "_hashTicket",
          "type": "bytes32"
        },
        {
          "indexed": false,
          "name": "_commissionAmount",
          "type": "uint256"
        }
      ],
      "name": "LogFundsManagerChargeCommission",
      "type": "event"
    },
    {
      "anonymous": false,
      "inputs": [
        {
          "indexed": false,
          "name": "_sender",
          "type": "address"
        },
        {
          "indexed": false,
          "name": "_hashTicket",
          "type": "bytes32"
        }
      ],
      "name": "LogFundsManagerRefundCommission",
      "type": "event"
    },
    {
      "anonymous": false,
      "inputs": [
        {
          "indexed": false,
          "name": "_sender",
          "type": "address"
        },
        {
          "indexed": false,
          "name": "_depositor",
          "type": "address"
        }
      ],
      "name": "LogFundsManagerNewDepositor",
      "type": "event"
    },
    {
      "anonymous": false,
      "inputs": [
        {
          "indexed": false,
          "name": "_sender",
          "type": "address"
        },
        {
          "indexed": false,
          "name": "_depositor",
          "type": "address"
        },
        {
          "indexed": false,
          "name": "_amount",
          "type": "uint256"
        }
      ],
      "name": "LogFundsManagerEmergencyWithdrawal",
      "type": "event"
    },
    {
      "anonymous": false,
      "inputs": [
        {
          "indexed": false,
          "name": "_sender",
          "type": "address"
        }
      ],
      "name": "LogStoppableNew",
      "type": "event"
    },
    {
      "anonymous": false,
      "inputs": [
        {
          "indexed": false,
          "name": "_sender",
          "type": "address"
        }
      ],
      "name": "LogStoppableStopContract",
      "type": "event"
    },
    {
      "anonymous": false,
      "inputs": [
        {
          "indexed": false,
          "name": "_sender",
          "type": "address"
        }
      ],
      "name": "LogStoppableResumeContract",
      "type": "event"
    },
    {
      "anonymous": false,
      "inputs": [
        {
          "indexed": false,
          "name": "_sender",
          "type": "address"
        }
      ],
      "name": "LogOwnedNew",
      "type": "event"
    },
    {
      "anonymous": false,
      "inputs": [
        {
          "indexed": false,
          "name": "_sender",
          "type": "address"
        },
        {
          "indexed": false,
          "name": "_newOwner",
          "type": "address"
        }
      ],
      "name": "LogOwnedChangeOwner",
      "type": "event"
    },
    {
      "anonymous": false,
      "inputs": [
        {
          "indexed": false,
          "name": "_sender",
          "type": "address"
        },
        {
          "indexed": false,
          "name": "_newOwner",
          "type": "address"
        }
      ],
      "name": "LogOwnedConfirmChangeOwner",
      "type": "event"
    }
  ],
  "bytecode": "0x6060604052341561000f57600080fd5b336000806101000a81548173ffffffffffffffffffffffffffffffffffffffff021916908373ffffffffffffffffffffffffffffffffffffffff1602179055507f3452aa652f56729b39a9198f36cd36bee3117c0112792f8707bab75d357e66e533604051808273ffffffffffffffffffffffffffffffffffffffff1673ffffffffffffffffffffffffffffffffffffffff16815260200191505060405180910390a17f8cc00c1f028a34a0114cd2b3c9d9cb40bfaaf3412c080091c5ca0db70b09554f33604051808273ffffffffffffffffffffffffffffffffffffffff1673ffffffffffffffffffffffffffffffffffffffff16815260200191505060405180910390a17fa85d5744e943446e99dbbbf95efc481fe63c2fe3541566ee70c4d75b4c5e9f8933604051808273ffffffffffffffffffffffffffffffffffffffff1673ffffffffffffffffffffffffffffffffffffffff16815260200191505060405180910390a16001600760003373ffffffffffffffffffffffffffffffffffffffff1673ffffffffffffffffffffffffffffffffffffffff16815260200190815260200160002060006101000a81548160ff0219169083151502179055507f5327280ec7b0d2b0dad92178eded737206f2ea0c542f7f3b2fa2d0a8ed68456f33604051808273ffffffffffffffffffffffffffffffffffffffff1673ffffffffffffffffffffffffffffffffffffffff16815260200191505060405180910390a17f983587b717c414a68974e2288938cc5e4ea5f8efbad2f692e162ad994acc897033604051808273ffffffffffffffffffffffffffffffffffffffff1673ffffffffffffffffffffffffffffffffffffffff16815260200191505060405180910390a16001600a60003373ffffffffffffffffffffffffffffffffffffffff1673ffffffffffffffffffffffffffffffffffffffff16815260200190815260200160002060006101000a81548160ff0219169083151502179055507f67bd0989ebb0ff49160389503e5eea098db968d00ea50047282cfc60fd705e7c33604051808273ffffffffffffffffffffffffffffffffffffffff1673ffffffffffffffffffffffffffffffffffffffff16815260200191505060405180910390a16134c6806103606000396000f30060606040526004361061018b576000357c0100000000000000000000000000000000000000000000000000000000900463ffffffff16806306093c3c1461019057806312253a6c146101dd5780631a07f6c81461020a5780631a2f71671461025b57806320ec9603146102ac5780632f70d1ba146102d5578063346226b21461032657806338b68120146103775780633f683b6a146103a457806340e864bf146103d1578063585230de146104025780635b8e8a8b1461045757806369d47ad61461048757806369f7ca28146104dc5780636f76d7471461054a5780636fbec0cd1461059b5780638b5b1556146105da5780638cf8237314610603578063a6f9dae114610664578063a74e243a146106b5578063ae5d957514610706578063aee258c414610757578063c4bc5da514610796578063c9208b3c146107c3578063cef1498914610823578063d19a092b14610874578063d4977aec146108d5578063d6cf1bdc14610910578063eae0438814610970578063f2db87671461099d578063f4439d6d146109ff575b600080fd5b341561019b57600080fd5b6101c7600480803573ffffffffffffffffffffffffffffffffffffffff16906020019091905050610a50565b6040518082815260200191505060405180910390f35b34156101e857600080fd5b6101f0610abe565b604051808215151515815260200191505060405180910390f35b341561021557600080fd5b610241600480803573ffffffffffffffffffffffffffffffffffffffff16906020019091905050610b9f565b604051808215151515815260200191505060405180910390f35b341561026657600080fd5b610292600480803573ffffffffffffffffffffffffffffffffffffffff16906020019091905050610d2d565b604051808215151515815260200191505060405180910390f35b34156102b757600080fd5b6102bf610da8565b6040518082815260200191505060405180910390f35b34156102e057600080fd5b61030c600480803573ffffffffffffffffffffffffffffffffffffffff16906020019091905050610e0d565b604051808215151515815260200191505060405180910390f35b341561033157600080fd5b61035d600480803573ffffffffffffffffffffffffffffffffffffffff16906020019091905050610e8f565b604051808215151515815260200191505060405180910390f35b341561038257600080fd5b61038a610f3b565b604051808215151515815260200191505060405180910390f35b34156103af57600080fd5b6103b7610f8c565b604051808215151515815260200191505060405180910390f35b34156103dc57600080fd5b6103e4610fa3565b60405180826000191660001916815260200191505060405180910390f35b341561040d57600080fd5b610415611042565b604051808273ffffffffffffffffffffffffffffffffffffffff1673ffffffffffffffffffffffffffffffffffffffff16815260200191505060405180910390f35b61047160048080356000191690602001909190505061106c565b6040518082815260200191505060405180910390f35b341561049257600080fd5b61049a611289565b604051808273ffffffffffffffffffffffffffffffffffffffff1673ffffffffffffffffffffffffffffffffffffffff16815260200191505060405180910390f35b34156104e757600080fd5b6105016004808035600019169060200190919050506112b2565b604051808373ffffffffffffffffffffffffffffffffffffffff1673ffffffffffffffffffffffffffffffffffffffff1681526020018281526020019250505060405180910390f35b341561055557600080fd5b610581600480803573ffffffffffffffffffffffffffffffffffffffff16906020019091905050611333565b604051808215151515815260200191505060405180910390f35b34156105a657600080fd5b6105c06004808035600019169060200190919050506114a4565b604051808215151515815260200191505060405180910390f35b34156105e557600080fd5b6105ed6116ca565b6040518082815260200191505060405180910390f35b341561060e57600080fd5b610647600480803573ffffffffffffffffffffffffffffffffffffffff169060200190919080356000191690602001909190505061172f565b604051808381526020018281526020019250505060405180910390f35b341561066f57600080fd5b61069b600480803573ffffffffffffffffffffffffffffffffffffffff16906020019091905050611832565b604051808215151515815260200191505060405180910390f35b34156106c057600080fd5b6106ec600480803573ffffffffffffffffffffffffffffffffffffffff16906020019091905050611996565b604051808215151515815260200191505060405180910390f35b341561071157600080fd5b61073d600480803573ffffffffffffffffffffffffffffffffffffffff16906020019091905050611a59565b604051808215151515815260200191505060405180910390f35b341561076257600080fd5b61077c600480803560001916906020019091905050611aaf565b604051808215151515815260200191505060405180910390f35b34156107a157600080fd5b6107a9611ac1565b604051808215151515815260200191505060405180910390f35b610805600480803573ffffffffffffffffffffffffffffffffffffffff1690602001909190803560001916906020019091908035906020019091905050611ba3565b60405180826000191660001916815260200191505060405180910390f35b341561082e57600080fd5b61085a600480803560001916906020019091908035906020019091908035906020019091905050611d85565b604051808215151515815260200191505060405180910390f35b341561087f57600080fd5b6108b8600480803573ffffffffffffffffffffffffffffffffffffffff1690602001909190803560001916906020019091905050611d9b565b604051808381526020018281526020019250505060405180910390f35b34156108e057600080fd5b6108fa600480803560001916906020019091905050611dcc565b6040518082815260200191505060405180910390f35b610952600480803573ffffffffffffffffffffffffffffffffffffffff1690602001909190803560001916906020019091908035906020019091905050611e07565b60405180826000191660001916815260200191505060405180910390f35b341561097b57600080fd5b610983612029565b604051808215151515815260200191505060405180910390f35b34156109a857600080fd5b6109e1600480803573ffffffffffffffffffffffffffffffffffffffff16906020019091908035600019169060200190919050506121ce565b60405180826000191660001916815260200191505060405180910390f35b3415610a0a57600080fd5b610a36600480803573ffffffffffffffffffffffffffffffffffffffff169060200190919050506121e3565b604051808215151515815260200191505060405180910390f35b6000808273ffffffffffffffffffffffffffffffffffffffff1614151515610a7757600080fd5b600860008373ffffffffffffffffffffffffffffffffffffffff1673ffffffffffffffffffffffffffffffffffffffff168152602001908152602001600020549050919050565b60008060009054906101000a900473ffffffffffffffffffffffffffffffffffffffff1673ffffffffffffffffffffffffffffffffffffffff163373ffffffffffffffffffffffffffffffffffffffff16141515610b1b57600080fd5b60018060146101000a81548160ff0219169083151502179055507fdc5107df853e31da94e9c53d37f4d2b899e5fb7b6308111493accae88b2659aa33604051808273ffffffffffffffffffffffffffffffffffffffff1673ffffffffffffffffffffffffffffffffffffffff16815260200191505060405180910390a16001905090565b60008060009054906101000a900473ffffffffffffffffffffffffffffffffffffffff1673ffffffffffffffffffffffffffffffffffffffff163373ffffffffffffffffffffffffffffffffffffffff16141515610bfc57600080fd5b610c04611289565b73ffffffffffffffffffffffffffffffffffffffff168273ffffffffffffffffffffffffffffffffffffffff1614151515610c3e57600080fd5b600a60008373ffffffffffffffffffffffffffffffffffffffff1673ffffffffffffffffffffffffffffffffffffffff16815260200190815260200160002060006101000a81549060ff02191690557f6f51c24ecf61bea9123b0c7936bcb1bb3adf69185c9c21740aaf7268c01d5d623383604051808373ffffffffffffffffffffffffffffffffffffffff1673ffffffffffffffffffffffffffffffffffffffff1681526020018273ffffffffffffffffffffffffffffffffffffffff1673ffffffffffffffffffffffffffffffffffffffff1681526020019250505060405180910390a160019050919050565b6000808273ffffffffffffffffffffffffffffffffffffffff1614151515610d5457600080fd5b600760008373ffffffffffffffffffffffffffffffffffffffff1673ffffffffffffffffffffffffffffffffffffffff16815260200190815260200160002060009054906101000a900460ff169050919050565b60008060009054906101000a900473ffffffffffffffffffffffffffffffffffffffff1673ffffffffffffffffffffffffffffffffffffffff163373ffffffffffffffffffffffffffffffffffffffff16141515610e0557600080fd5b600254905090565b6000808273ffffffffffffffffffffffffffffffffffffffff1614151515610e3457600080fd5b6000600560008473ffffffffffffffffffffffffffffffffffffffff1673ffffffffffffffffffffffffffffffffffffffff168152602001908152602001600020541115610e855760019050610e8a565b600090505b919050565b6000600a60003373ffffffffffffffffffffffffffffffffffffffff1673ffffffffffffffffffffffffffffffffffffffff16815260200190815260200160002060009054906101000a900460ff161515610ee957600080fd5b610ef1611289565b73ffffffffffffffffffffffffffffffffffffffff168273ffffffffffffffffffffffffffffffffffffffff1614151515610f2b57600080fd5b610f348261235e565b9050919050565b6000610f45611289565b73ffffffffffffffffffffffffffffffffffffffff163373ffffffffffffffffffffffffffffffffffffffff1614151515610f7f57600080fd5b610f87612537565b905090565b6000600160149054906101000a900460ff16905090565b600033600560003373ffffffffffffffffffffffffffffffffffffffff1673ffffffffffffffffffffffffffffffffffffffff16815260200190815260200160002054604051808373ffffffffffffffffffffffffffffffffffffffff1673ffffffffffffffffffffffffffffffffffffffff166c01000000000000000000000000028152601401828152602001925050506040518091039020905090565b6000600160009054906101000a900473ffffffffffffffffffffffffffffffffffffffff16905090565b600080600080600160149054906101000a900460ff1615151561108e57600080fd5b60006001028560001916141515156110a557600080fd5b6000341115156110b457600080fd5b600b600086600019166000191681526020019081526020016000209250826005015483600401541115156110e757600080fd5b826005015483600401540334111561110d57826005015483600401540334039150611111565b3491505b8260000180548060010182816111279190613449565b9160005260206000209001600033909190916101000a81548173ffffffffffffffffffffffffffffffffffffffff021916908373ffffffffffffffffffffffffffffffffffffffff160217905550508183600501600082825401925050819055508260040154836005015414156111d0576111ca8360010160009054906101000a900473ffffffffffffffffffffffffffffffffffffffff168460040154612734565b506111de565b826005015483600401540390505b6111e78561287d565b506111f28583612a0d565b507f3a7c951535ba38727bc6199b231c296702a0d8c62f152076bf52799cde46c6093386348585604051808673ffffffffffffffffffffffffffffffffffffffff1673ffffffffffffffffffffffffffffffffffffffff16815260200185600019166000191681526020018481526020018381526020018281526020019550505050505060405180910390a1809350505050919050565b60008060009054906101000a900473ffffffffffffffffffffffffffffffffffffffff16905090565b60008060006001028360001916141515156112cc57600080fd5b60046000846000191660001916815260200190815260200160002060000160009054906101000a900473ffffffffffffffffffffffffffffffffffffffff166004600085600019166000191681526020019081526020016000206001015491509150915091565b60008060009054906101000a900473ffffffffffffffffffffffffffffffffffffffff1673ffffffffffffffffffffffffffffffffffffffff163373ffffffffffffffffffffffffffffffffffffffff1614151561139057600080fd5b60008273ffffffffffffffffffffffffffffffffffffffff16141515156113b657600080fd5b6001600560008473ffffffffffffffffffffffffffffffffffffffff1673ffffffffffffffffffffffffffffffffffffffff168152602001908152602001600020600082825401925050819055507fb8d5cd064c53b0f47f9a1e1122498789993b0a0b2657c48385172b52f95d7d3d3383604051808373ffffffffffffffffffffffffffffffffffffffff1673ffffffffffffffffffffffffffffffffffffffff1681526020018273ffffffffffffffffffffffffffffffffffffffff1673ffffffffffffffffffffffffffffffffffffffff1681526020019250505060405180910390a160019050919050565b60008060008060009054906101000a900473ffffffffffffffffffffffffffffffffffffffff1673ffffffffffffffffffffffffffffffffffffffff163373ffffffffffffffffffffffffffffffffffffffff1614151561150457600080fd5b60006004600086600019166000191681526020019081526020016000206001015411151561153157600080fd5b60046000856000191660001916815260200190815260200160002060000160009054906101000a900473ffffffffffffffffffffffffffffffffffffffff169150600460008560001916600019168152602001908152602001600020600101549050600460008560001916600019168152602001908152602001600020600080820160006101000a81549073ffffffffffffffffffffffffffffffffffffffff0219169055600182016000905550508173ffffffffffffffffffffffffffffffffffffffff166108fc829081150290604051600060405180830381858888f19350505050151561162057600080fd5b7f0e369096c949a851cefff9f53674d9c7df739919ba098cb807b94e254649285d338383604051808473ffffffffffffffffffffffffffffffffffffffff1673ffffffffffffffffffffffffffffffffffffffff1681526020018373ffffffffffffffffffffffffffffffffffffffff1673ffffffffffffffffffffffffffffffffffffffff168152602001828152602001935050505060405180910390a1600192505050919050565b60008060009054906101000a900473ffffffffffffffffffffffffffffffffffffffff1673ffffffffffffffffffffffffffffffffffffffff163373ffffffffffffffffffffffffffffffffffffffff1614151561172757600080fd5b600354905090565b60008060008473ffffffffffffffffffffffffffffffffffffffff161415151561175857600080fd5b600060010283600019161415151561176f57600080fd5b600960008573ffffffffffffffffffffffffffffffffffffffff1673ffffffffffffffffffffffffffffffffffffffff1681526020019081526020016000206000846000191660001916815260200190815260200160002060000154600960008673ffffffffffffffffffffffffffffffffffffffff1673ffffffffffffffffffffffffffffffffffffffff1681526020019081526020016000206000856000191660001916815260200190815260200160002060010154915091509250929050565b60008060009054906101000a900473ffffffffffffffffffffffffffffffffffffffff1673ffffffffffffffffffffffffffffffffffffffff163373ffffffffffffffffffffffffffffffffffffffff1614151561188f57600080fd5b60008273ffffffffffffffffffffffffffffffffffffffff16141515156118b557600080fd5b81600160006101000a81548173ffffffffffffffffffffffffffffffffffffffff021916908373ffffffffffffffffffffffffffffffffffffffff1602179055507fae3fd6fbd4e7d8a4e53ecf89c51f72c00191a8d8d2c2fba3a5f4d9224996a6ae3383604051808373ffffffffffffffffffffffffffffffffffffffff1673ffffffffffffffffffffffffffffffffffffffff1681526020018273ffffffffffffffffffffffffffffffffffffffff1673ffffffffffffffffffffffffffffffffffffffff1681526020019250505060405180910390a160019050919050565b6000600a60003373ffffffffffffffffffffffffffffffffffffffff1673ffffffffffffffffffffffffffffffffffffffff16815260200190815260200160002060009054906101000a900460ff1615156119f057600080fd5b600a60008373ffffffffffffffffffffffffffffffffffffffff1673ffffffffffffffffffffffffffffffffffffffff16815260200190815260200160002060009054906101000a900460ff16151515611a4957600080fd5b611a5282612c29565b9050919050565b6000600a60008373ffffffffffffffffffffffffffffffffffffffff1673ffffffffffffffffffffffffffffffffffffffff16815260200190815260200160002060009054906101000a900460ff169050919050565b6000611aba82612d65565b9050919050565b60008060009054906101000a900473ffffffffffffffffffffffffffffffffffffffff1673ffffffffffffffffffffffffffffffffffffffff163373ffffffffffffffffffffffffffffffffffffffff16141515611b1e57600080fd5b6000600160146101000a81548160ff0219169083151502179055507fbe8d7a0d2974b6d29c6b0e1f7199c77822dd586b666191ba97458c086c3d2d6433604051808273ffffffffffffffffffffffffffffffffffffffff1673ffffffffffffffffffffffffffffffffffffffff16815260200191505060405180910390a16001905090565b600080600080600160149054906101000a900460ff16151515611bc557600080fd5b600085111515611bd457600080fd5b6000600102866000191614151515611beb57600080fd5b600960008873ffffffffffffffffffffffffffffffffffffffff1673ffffffffffffffffffffffffffffffffffffffff16815260200190815260200160002060008760001916600019168152602001908152602001600020925084836001015410151515611c5857600080fd5b8483600001540291508134101515611c6f57600080fd5b611c77610fa3565b9050611c87818888888634612ed9565b50611c918161287d565b50611c9c8134612a0d565b507f10ef20f3ce5476a2306bb2073b9ae3885a58f9660826f2985737d4c4187b65d5338888888760000154873488604051808973ffffffffffffffffffffffffffffffffffffffff1673ffffffffffffffffffffffffffffffffffffffff1681526020018873ffffffffffffffffffffffffffffffffffffffff1673ffffffffffffffffffffffffffffffffffffffff168152602001876000191660001916815260200186815260200185815260200184815260200183815260200182600019166000191681526020019850505050505050505060405180910390a18093505050509392505050565b6000611d92848484613154565b90509392505050565b6009602052816000526040600020602052806000526040600020600091509150508060000154908060010154905082565b600080600102826000191614151515611de457600080fd5b600660008360001916600019168152602001908152602001600020549050919050565b600080600080600160149054906101000a900460ff16151515611e2957600080fd5b60008773ffffffffffffffffffffffffffffffffffffffff1614151515611e4f57600080fd5b6000600102866000191614151515611e6657600080fd5b600085111515611e7557600080fd5b600034111515611e8457600080fd5b600960008873ffffffffffffffffffffffffffffffffffffffff1673ffffffffffffffffffffffffffffffffffffffff16815260200190815260200160002060008760001916600019168152602001908152602001600020925084836001015410151515611ef157600080fd5b8483600001540291508134141515611f0857600080fd5b611f10610fa3565b9050611f20818888888634612ed9565b50611f2a8161287d565b50611f358783612734565b50611f408183612a0d565b507fb749ea194830599b25112093598f1417849919322e5537bb09ea13f718051029338888888760000154873488604051808973ffffffffffffffffffffffffffffffffffffffff1673ffffffffffffffffffffffffffffffffffffffff1681526020018873ffffffffffffffffffffffffffffffffffffffff1673ffffffffffffffffffffffffffffffffffffffff168152602001876000191660001916815260200186815260200185815260200184815260200183815260200182600019166000191681526020019850505050505050505060405180910390a18093505050509392505050565b6000600160009054906101000a900473ffffffffffffffffffffffffffffffffffffffff1673ffffffffffffffffffffffffffffffffffffffff163373ffffffffffffffffffffffffffffffffffffffff1614151561208757600080fd5b600160009054906101000a900473ffffffffffffffffffffffffffffffffffffffff166000806101000a81548173ffffffffffffffffffffffffffffffffffffffff021916908373ffffffffffffffffffffffffffffffffffffffff160217905550600160006101000a81549073ffffffffffffffffffffffffffffffffffffffff02191690557f0d58bef243249903c29496d81a7ffbe3f394735e5ccd3e1dabbfec82c635c8d933600160009054906101000a900473ffffffffffffffffffffffffffffffffffffffff16604051808373ffffffffffffffffffffffffffffffffffffffff1673ffffffffffffffffffffffffffffffffffffffff1681526020018273ffffffffffffffffffffffffffffffffffffffff1673ffffffffffffffffffffffffffffffffffffffff1681526020019250505060405180910390a16001905090565b60006121db338484613338565b905092915050565b60008060009054906101000a900473ffffffffffffffffffffffffffffffffffffffff1673ffffffffffffffffffffffffffffffffffffffff163373ffffffffffffffffffffffffffffffffffffffff1614151561224057600080fd5b60008273ffffffffffffffffffffffffffffffffffffffff161415151561226657600080fd5b6001600a60008473ffffffffffffffffffffffffffffffffffffffff1673ffffffffffffffffffffffffffffffffffffffff16815260200190815260200160002060006101000a81548160ff0219169083151502179055507fe145bfa2384ce15cbc4df13ae23a4f4f0be9eff0b52af474f9b8deb8219595f73383604051808373ffffffffffffffffffffffffffffffffffffffff1673ffffffffffffffffffffffffffffffffffffffff1681526020018273ffffffffffffffffffffffffffffffffffffffff1673ffffffffffffffffffffffffffffffffffffffff1681526020019250505060405180910390a160019050919050565b6000600160149054906101000a900460ff1615151561237c57600080fd5b60008273ffffffffffffffffffffffffffffffffffffffff16141515156123a257600080fd5b600760008373ffffffffffffffffffffffffffffffffffffffff1673ffffffffffffffffffffffffffffffffffffffff16815260200190815260200160002060009054906101000a900460ff1615156123fa57600080fd5b6000600860003373ffffffffffffffffffffffffffffffffffffffff1673ffffffffffffffffffffffffffffffffffffffff1681526020019081526020016000205414151561244857600080fd5b600760008373ffffffffffffffffffffffffffffffffffffffff1673ffffffffffffffffffffffffffffffffffffffff16815260200190815260200160002060006101000a81549060ff02191690557f09d953016a08be1c797669ae68ce766624701710edf1c29caae72f073de9af763383604051808373ffffffffffffffffffffffffffffffffffffffff1673ffffffffffffffffffffffffffffffffffffffff1681526020018273ffffffffffffffffffffffffffffffffffffffff1673ffffffffffffffffffffffffffffffffffffffff1681526020019250505060405180910390a160019050919050565b600080600760003373ffffffffffffffffffffffffffffffffffffffff1673ffffffffffffffffffffffffffffffffffffffff16815260200190815260200160002060009054906101000a900460ff16151561259257600080fd5b600160149054906101000a900460ff161515156125ae57600080fd5b6000600860003373ffffffffffffffffffffffffffffffffffffffff1673ffffffffffffffffffffffffffffffffffffffff168152602001908152602001600020541115156125fc57600080fd5b600860003373ffffffffffffffffffffffffffffffffffffffff1673ffffffffffffffffffffffffffffffffffffffff168152602001908152602001600020549050600860003373ffffffffffffffffffffffffffffffffffffffff1673ffffffffffffffffffffffffffffffffffffffff168152602001908152602001600020600090553373ffffffffffffffffffffffffffffffffffffffff166108fc829081150290604051600060405180830381858888f1935050505015156126c157600080fd5b7f217e2fac54fb34326542a2bd23ab76e901ef8d087675e4bbbb3e824cd6df7e633382604051808373ffffffffffffffffffffffffffffffffffffffff1673ffffffffffffffffffffffffffffffffffffffff1681526020018281526020019250505060405180910390a1600191505090565b6000600160149054906101000a900460ff1615151561275257600080fd5b60008373ffffffffffffffffffffffffffffffffffffffff161415151561277857600080fd5b60008211151561278757600080fd5b81600860008573ffffffffffffffffffffffffffffffffffffffff1673ffffffffffffffffffffffffffffffffffffffff168152602001908152602001600020600082825401925050819055507f9c9e9099f1cae8160c27c81605dc826164e9d8babd401cf6fb1f113390bd8566338484604051808473ffffffffffffffffffffffffffffffffffffffff1673ffffffffffffffffffffffffffffffffffffffff1681526020018373ffffffffffffffffffffffffffffffffffffffff1673ffffffffffffffffffffffffffffffffffffffff168152602001828152602001935050505060405180910390a16001905092915050565b6000600160149054906101000a900460ff1615151561289b57600080fd5b60006001028260001916141515156128b257600080fd5b3360046000846000191660001916815260200190815260200160002060000160006101000a81548173ffffffffffffffffffffffffffffffffffffffff021916908373ffffffffffffffffffffffffffffffffffffffff16021790555034600460008460001916600019168152602001908152602001600020600101600082825401925050819055506001600560003373ffffffffffffffffffffffffffffffffffffffff1673ffffffffffffffffffffffffffffffffffffffff16815260200190815260200160002060008282540192505081905550346002600082825401925050819055507f6092e1cac1a66fd4f2c747dd5201a45f08c503ce48abc091a8203e6821c12b9b3334604051808373ffffffffffffffffffffffffffffffffffffffff1673ffffffffffffffffffffffffffffffffffffffff1681526020018281526020019250505060405180910390a160019050919050565b6000806000600560003373ffffffffffffffffffffffffffffffffffffffff1673ffffffffffffffffffffffffffffffffffffffff16815260200190815260200160002054111515612a5e57600080fd5b600160149054906101000a900460ff16151515612a7a57600080fd5b6000600102846000191614151515612a9157600080fd5b60046000856000191660001916815260200190815260200160002090503373ffffffffffffffffffffffffffffffffffffffff168160000160009054906101000a900473ffffffffffffffffffffffffffffffffffffffff1673ffffffffffffffffffffffffffffffffffffffff16141515612b0c57600080fd5b60008160010154111515612b1f57600080fd5b82816001015410151515612b3257600080fd5b8060010154831415612b9057600460008560001916600019168152602001908152602001600020600080820160006101000a81549073ffffffffffffffffffffffffffffffffffffffff021916905560018201600090555050612ba3565b8281600101600082825403925050819055505b7f33039b6f1c87982eccd8794b3bc7960ba6da380fc62226dfdf8c81330a92b4f9338585604051808473ffffffffffffffffffffffffffffffffffffffff1673ffffffffffffffffffffffffffffffffffffffff1681526020018360001916600019168152602001828152602001935050505060405180910390a1600191505092915050565b6000600160149054906101000a900460ff16151515612c4757600080fd5b60008273ffffffffffffffffffffffffffffffffffffffff1614151515612c6d57600080fd5b6001600760008473ffffffffffffffffffffffffffffffffffffffff1673ffffffffffffffffffffffffffffffffffffffff16815260200190815260200160002060006101000a81548160ff0219169083151502179055507f60bd37d9e4d43d601a6c297d721ab7d2ac511c1af1ce3c6fcb63ee424cc3f68e3383604051808373ffffffffffffffffffffffffffffffffffffffff1673ffffffffffffffffffffffffffffffffffffffff1681526020018273ffffffffffffffffffffffffffffffffffffffff1673ffffffffffffffffffffffffffffffffffffffff1681526020019250505060405180910390a160019050919050565b6000600760003373ffffffffffffffffffffffffffffffffffffffff1673ffffffffffffffffffffffffffffffffffffffff16815260200190815260200160002060009054906101000a900460ff161515612dbf57600080fd5b600160149054906101000a900460ff16151515612ddb57600080fd5b6000600102826000191614151515612df257600080fd5b600960003373ffffffffffffffffffffffffffffffffffffffff1673ffffffffffffffffffffffffffffffffffffffff16815260200190815260200160002060008360001916600019168152602001908152602001600020600080820160009055600182016000905550507feed1c51c63921b9d9e6a237dfd9a271c0ee7de5f9e7d64adb3dfe4ff6e0aad6e3383604051808373ffffffffffffffffffffffffffffffffffffffff1673ffffffffffffffffffffffffffffffffffffffff16815260200182600019166000191681526020019250505060405180910390a160019050919050565b6000806000600160149054906101000a900460ff16151515612efa57600080fd5b600b60008a600019166000191681526020019081526020016000206000018054806001018281612f2a9190613449565b9160005260206000209001600033909190916101000a81548173ffffffffffffffffffffffffffffffffffffffff021916908373ffffffffffffffffffffffffffffffffffffffff16021790555050600b60008a600019166000191681526020019081526020016000209150878260010160006101000a81548173ffffffffffffffffffffffffffffffffffffffff021916908373ffffffffffffffffffffffffffffffffffffffff16021790555086826002018160001916905550858260030181905550848260040181905550838260050160008282540192505081905550600960008973ffffffffffffffffffffffffffffffffffffffff1673ffffffffffffffffffffffffffffffffffffffff168152602001908152602001600020600088600019166000191681526020019081526020016000209050858160010154141561307f5760008160010181905550613092565b8581600101600082825403925050819055505b3373ffffffffffffffffffffffffffffffffffffffff167f0b8154023d4f5424176b77400150a708e16933bffe3a437202073b72acc2a83a89898989898f604051808773ffffffffffffffffffffffffffffffffffffffff1673ffffffffffffffffffffffffffffffffffffffff16815260200186600019166000191681526020018581526020018481526020018381526020018260001916600019168152602001965050505050505060405180910390a26001925050509695505050505050565b6000600760003373ffffffffffffffffffffffffffffffffffffffff1673ffffffffffffffffffffffffffffffffffffffff16815260200190815260200160002060009054906101000a900460ff1615156131ae57600080fd5b600160149054906101000a900460ff161515156131ca57600080fd5b60006001028460001916141515156131e157600080fd5b82600960003373ffffffffffffffffffffffffffffffffffffffff1673ffffffffffffffffffffffffffffffffffffffff168152602001908152602001600020600086600019166000191681526020019081526020016000206000018190555081600960003373ffffffffffffffffffffffffffffffffffffffff1673ffffffffffffffffffffffffffffffffffffffff16815260200190815260200160002060008660001916600019168152602001908152602001600020600101600082825401925050819055507f78f7b460c0b0ab2aa51d9fa36fa95633921bf3238f09ca4eaa0614438e92a24e33858585604051808573ffffffffffffffffffffffffffffffffffffffff1673ffffffffffffffffffffffffffffffffffffffff168152602001846000191660001916815260200183815260200182815260200194505050505060405180910390a1600190509392505050565b6000808473ffffffffffffffffffffffffffffffffffffffff161415151561335f57600080fd5b60008373ffffffffffffffffffffffffffffffffffffffff161415151561338557600080fd5b600060010282600019161415151561339c57600080fd5b338383604051808473ffffffffffffffffffffffffffffffffffffffff1673ffffffffffffffffffffffffffffffffffffffff166c010000000000000000000000000281526014018373ffffffffffffffffffffffffffffffffffffffff1673ffffffffffffffffffffffffffffffffffffffff166c0100000000000000000000000002815260140182600019166000191681526020019350505050604051809103902090509392505050565b8154818355818115116134705781836000526020600020918201910161346f9190613475565b5b505050565b61349791905b8082111561349357600081600090555060010161347b565b5090565b905600a165627a7a72305820cd995f32a0e00e67860af1912d5d731086c60e72613ba2c720e9a8efca1883d50029",
  "source": "pragma solidity ^0.4.4;\r\n\r\n/*\r\n\r\nLast update: 2018-02-07\r\nVersion: 2.1\r\n\r\nA shopfront\r\nThe project will start as a database whereby:\r\n- as an shopOwner, you can add products, which consist of an id, a price and a stock.\r\n- as a regular user you can buy 1 of the products.\r\n- as the owner you can make payments or withdraw value from the contract.\r\n\r\nEventually, you will refactor it to include:\r\n- ability to remove products.\r\n- co-purchase by different people.\r\n- add merchants akin to what Amazon has become.\r\n- add the ability to pay with a third-party token.\r\n\r\nWorkflow:\r\n- Shop Owner:\r\n    - Creates the shop\r\n    - Add/remove merchants\r\n\r\n- Merchant:\r\n    - Add/remove products to the shop\r\n    - Can withdraw sales balance at any time\r\n\r\n- Customer:\r\n    - Either purchases a product on his own or starts a shared purchase\r\n        - If he has the hash-ticket he can contribute to a share purchase\r\n\r\nModifiers:\r\n- onlyShopOwners\r\n\r\nCORE functions:\r\n- purchaseProduct\r\n- purchaseSharedProduct\r\n- updatePurchaseSharedProduct\r\n- registerPurchase\r\n\r\nADMIN functions:\r\n- addShopOwner\r\n- removeShopOwner\r\n- shopAddMerchant\r\n- shopRemoveMerchant\r\n- shopAddProduct\r\n- shopRemoveProduct\r\n- shopMerchantWithdrawAllBalance\r\n\r\nSUPPORT functions:\r\n- isShopOwner\r\n\r\n*/\r\n\r\nimport \"./_FundsManager.sol\";\r\nimport \"./_ProductManager.sol\";\r\n\r\ncontract Shop is FundsManager, ProductManager {\r\n    mapping (address => bool) private shopOwners;\r\n\r\n    struct Purchase {\r\n        address[] buyers; //a purchase could be shared by more than one buyer\r\n        address merchant;\r\n        bytes32 productID;\r\n        uint units; //units sold\r\n        uint total; //total sale amount\r\n        uint paid;  //total paid, specially relevant in case of a shared purchase\r\n    }\r\n    mapping (bytes32 => Purchase) private purchases; //transaction Hash => Purchase\r\n\r\n    uint purchaseCounter;\r\n\r\n    modifier onlyShopOwners () { require(shopOwners[msg.sender]); _; }\r\n\r\n// CORE functions\r\n\r\n        event LogShopNew (address _sender);\r\n        //Constructor\r\n    function Shop ()\r\n        public\r\n    {\r\n        shopOwners[msg.sender] = true; //add owner to shopOwners\r\n\r\n        LogShopNew (msg.sender);\r\n    }\r\n\r\n        event LogShopPurchaseProduct (address _sender, address _merchant, bytes32 _productID, uint _units, uint _unitPrice, uint _total, uint _amount, bytes32 _hashTicket);\r\n        // The sale amount will be credited to the merchant\r\n    function purchaseProduct (address _merchant, bytes32 _productID, uint _units)\r\n        onlyIfRunning\r\n        public\r\n        payable\r\n        returns (bytes32 _hashTicket)\r\n    {\r\n        require (_merchant != 0);\r\n        require (_productID != 0);\r\n        require (_units > 0);\r\n        require (msg.value > 0);\r\n\r\n        Product storage product = products[_merchant][_productID]; //get a reference to the product in the storage\r\n\r\n        require (product.stock >= _units); // check stock\r\n\r\n        uint total = product.unitPrice * _units; // calculate total required balance\r\n        require (msg.value == total); //the buyer sends the right value amount\r\n\r\n        bytes32 hashTicket = newHashTicket();\r\n        registerPurchase (hashTicket, _merchant, _productID, _units, total, msg.value); //register the purchase\r\n\r\n        depositFunds (hashTicket); //account funds deposit\r\n        addMerchantSale(_merchant, total); //account the purchase to the merchant\r\n        spendFunds (hashTicket, total); //deduct total from buyer\r\n        //here we could call a delivery function to send the products to the buyer\r\n\r\n        LogShopPurchaseProduct (msg.sender, _merchant, _productID, _units, product.unitPrice, total, msg.value, hashTicket);\r\n        return hashTicket;\r\n    }\r\n\r\n        event LogShopPurchaseSharedProduct (address _sender, address _merchant, bytes32 _productID, uint _units, uint _unitPrice, uint _total, uint _amount, bytes32 _hashTicket);\r\n        // To be executed by the fist buyer of a shared purchase\r\n    function purchaseSharedProduct (address _merchant, bytes32 _productID, uint _units)\r\n        onlyIfRunning\r\n        public\r\n        payable\r\n        returns (bytes32 _hashTicket)\r\n    {\r\n        require (_units > 0);\r\n        require (_productID != 0);\r\n        \r\n        Product storage product = products[_merchant][_productID]; //get a reference to the product in the storage\r\n\r\n        require (product.stock >= _units); // check stock\r\n        uint total = product.unitPrice * _units; // calculate total required balance\r\n        require (msg.value < total); //require to start a shared purchase with less amount than the purchase total\r\n\r\n        bytes32 hashTicket = newHashTicket();\r\n        registerPurchase (hashTicket, _merchant, _productID, _units, total, msg.value); //register the purchase\r\n\r\n        depositFunds (hashTicket); //account funds deposit\r\n        spendFunds (hashTicket, msg.value); //deduct total from buyer\r\n        //do not account the purchase to the merchant as the sale is not fully paid\r\n        \r\n        LogShopPurchaseSharedProduct (msg.sender, _merchant, _productID, _units, product.unitPrice, total, msg.value, hashTicket);\r\n        return hashTicket;\r\n    }\r\n\r\n        event LogShopUpdatePurchaseSharedProduct (address _sender, bytes32 _hashTicket, uint _amount, uint _paid, uint _remainingTotal);\r\n        // co-purchase by different buyers\r\n        // If the purchase is totally paid off the sale will be credited to the merchant\r\n    function updatePurchaseSharedProduct (bytes32 _hashTicket)\r\n        onlyIfRunning\r\n        public\r\n        payable\r\n        returns (uint _remainingTotal)\r\n    {\r\n        require (_hashTicket != 0);\r\n        require (msg.value > 0);\r\n\r\n        Purchase storage purchase = purchases[_hashTicket];\r\n\r\n        require (purchase.total > purchase.paid); //ensure that there is amount left to be paid\r\n\r\n        uint toPay;\r\n\r\n        if (msg.value > (purchase.total - purchase.paid)) // sending more funds than remaining total\r\n            toPay = msg.value - (purchase.total - purchase.paid);\r\n        else\r\n            toPay = msg.value;\r\n\r\n        purchase.buyers.push(msg.sender);\r\n        purchase.paid += toPay;\r\n\r\n        uint remainingTotal;\r\n\r\n        if (purchase.paid == purchase.total) //if it is completely paid then\r\n        {\r\n            addMerchantSale(purchase.merchant, purchase.total); //account the purchase to the merchant\r\n            // here we could call a delivery function to send the products to the buyer\r\n            // remainingTotal = 0; // There is no left amount to be paid. No need for this assignment as by default is 0\r\n        }\r\n        else\r\n        {\r\n            remainingTotal = purchase.total - purchase.paid;\r\n        }\r\n\r\n        depositFunds (_hashTicket); //account funds deposit\r\n        spendFunds (_hashTicket, toPay); //deduct amount from buyer\r\n\r\n        LogShopUpdatePurchaseSharedProduct (msg.sender, _hashTicket, msg.value, toPay, remainingTotal);\r\n        return remainingTotal;\r\n    }\r\n\r\n        event LogShopRegisterPurchase (address indexed _sender, address _merchant, bytes32 _productID, uint _units, uint _total, uint _paid, bytes32 _hashTicket);\r\n        //Register the purchase in the struct\r\n    function registerPurchase (bytes32 _hashTicket, address _merchant, bytes32 _productID, uint _units, uint _total, uint _paid)\r\n        onlyIfRunning\r\n        private\r\n        returns (bool _success)\r\n    {\r\n        purchases[_hashTicket].buyers.push(msg.sender); //register purchase\r\n\r\n        Purchase storage purchase = purchases[_hashTicket];\r\n            purchase.merchant = _merchant;\r\n            purchase.productID = _productID;\r\n            purchase.units = _units;\r\n            purchase.total = _total;\r\n            purchase.paid += _paid;\r\n        \r\n        Product storage product = products[_merchant][_productID];\r\n        \r\n        if (product.stock == _units)\r\n            product.stock = 0;\r\n        else\r\n            product.stock -= _units; //update stock\r\n\r\n        LogShopRegisterPurchase (msg.sender, _merchant, _productID, _units, _total, _paid, _hashTicket);\r\n        return true;\r\n    }    \r\n\r\n// ADMIN functions\r\n\r\n        event LogShopAddShopOwner (address _sender, address _shopOwner);\r\n        // To add a new admin\r\n    function addShopOwner (address _shopOwner)\r\n        onlyOwner\r\n        public\r\n        returns (bool _success)\r\n    {\r\n        require (_shopOwner != 0);\r\n\r\n        shopOwners[_shopOwner] = true;\r\n\r\n        LogShopAddShopOwner (msg.sender, _shopOwner);\r\n        return true;\r\n    }\r\n\r\n        event LogShopRemoveShopOwner (address _sender, address _shopOwner);\r\n    // Remove an admin. Owner cannot be removed\r\n    function removeShopOwner (address _shopOwner)\r\n        onlyOwner\r\n        public\r\n        returns (bool _success)\r\n    {\r\n        require (_shopOwner != getInfoOwner()); //owner cannot be removed\r\n\r\n        delete shopOwners[_shopOwner];\r\n\r\n        LogShopRemoveShopOwner (msg.sender, _shopOwner);\r\n        return true;\r\n    }\r\n\r\n    // Expose internal MerchantManager function\r\n    function shopAddMerchant (address _merchant)\r\n        onlyShopOwners\r\n        public\r\n        returns (bool _success)\r\n    {\r\n        require (!shopOwners[_merchant]); // A merchant cannot be an shopOwner\r\n\r\n        return addMerchant(_merchant); //call the internal function in MerchantManager\r\n    }\r\n\r\n    // Expose internal MerchantManager function\r\n    function shopRemoveMerchant (address _merchant)\r\n        onlyShopOwners\r\n        public\r\n        returns (bool _success)\r\n    {\r\n        require (_merchant != getInfoOwner()); //owner cannot be removed\r\n        \r\n        return removeMerchant(_merchant); //call the internal function in MerchantManager\r\n    }\r\n\r\n    // Expose internal ProductManager function\r\n    function shopAddProduct (bytes32 _productID, uint _unitPrice, uint _stock)\r\n        public\r\n        returns (bool _success)\r\n    {\r\n        return addProduct (_productID, _unitPrice, _stock);\r\n    }\r\n\r\n    // Expose internal ProductManager function\r\n    function shopRemoveProduct (bytes32 _productID)\r\n        public\r\n        returns (bool _success)\r\n    {\r\n        return removeProduct (_productID);\r\n    }\r\n\r\n    // Expose internal MerchantManager function\r\n    function shopMerchantWithdrawAllBalance ()\r\n        public\r\n        returns (bool _success)\r\n    {\r\n        require(msg.sender != getInfoOwner()); //the owner cannot withdraw his own funds\r\n        \r\n        return merchantWithdrawAllBalance ();\r\n    }\r\n\r\n// SUPPORT functions\r\n\r\n    function isShopOwner (address _shopOwner)\r\n        constant\r\n        public\r\n        returns (bool _isIndeed)\r\n    {\r\n        return (shopOwners[_shopOwner]);\r\n    }\r\n}",
  "sourcePath": "/home/jordi/b9/Unit5/Projects/Shop/contracts/Shop.sol",
  "compiler": {
    "name": "solc",
    "version": "0.4.18+commit.9cf6e910.Emscripten.clang"
  },
  "schemaVersion": "1.0.1",
  "updatedAt": "2018-02-07T11:05:53.629Z"
}