{
  "contractName": "Stoppable",
  "abi": [
    {
      "constant": false,
      "inputs": [],
      "name": "stopContract",
      "outputs": [
        {
          "name": "_success",
          "type": "bool"
        }
      ],
      "payable": false,
      "stateMutability": "nonpayable",
      "type": "function"
    },
    {
      "constant": true,
      "inputs": [],
      "name": "isStopped",
      "outputs": [
        {
          "name": "_stop",
          "type": "bool"
        }
      ],
      "payable": false,
      "stateMutability": "view",
      "type": "function"
    },
    {
      "constant": true,
      "inputs": [],
      "name": "getInfoNewOwner",
      "outputs": [
        {
          "name": "_newOwner",
          "type": "address"
        }
      ],
      "payable": false,
      "stateMutability": "view",
      "type": "function"
    },
    {
      "constant": true,
      "inputs": [],
      "name": "getInfoOwner",
      "outputs": [
        {
          "name": "_owner",
          "type": "address"
        }
      ],
      "payable": false,
      "stateMutability": "view",
      "type": "function"
    },
    {
      "constant": false,
      "inputs": [
        {
          "name": "_newOwner",
          "type": "address"
        }
      ],
      "name": "changeOwner",
      "outputs": [
        {
          "name": "_success",
          "type": "bool"
        }
      ],
      "payable": false,
      "stateMutability": "nonpayable",
      "type": "function"
    },
    {
      "constant": false,
      "inputs": [],
      "name": "resumeContract",
      "outputs": [
        {
          "name": "_success",
          "type": "bool"
        }
      ],
      "payable": false,
      "stateMutability": "nonpayable",
      "type": "function"
    },
    {
      "constant": false,
      "inputs": [],
      "name": "confirmChangeOwner",
      "outputs": [
        {
          "name": "_success",
          "type": "bool"
        }
      ],
      "payable": false,
      "stateMutability": "nonpayable",
      "type": "function"
    },
    {
      "inputs": [],
      "payable": false,
      "stateMutability": "nonpayable",
      "type": "constructor"
    },
    {
      "anonymous": false,
      "inputs": [
        {
          "indexed": false,
          "name": "_sender",
          "type": "address"
        }
      ],
      "name": "LogStoppableNew",
      "type": "event"
    },
    {
      "anonymous": false,
      "inputs": [
        {
          "indexed": false,
          "name": "_sender",
          "type": "address"
        }
      ],
      "name": "LogStoppableStopContract",
      "type": "event"
    },
    {
      "anonymous": false,
      "inputs": [
        {
          "indexed": false,
          "name": "_sender",
          "type": "address"
        }
      ],
      "name": "LogStoppableResumeContract",
      "type": "event"
    },
    {
      "anonymous": false,
      "inputs": [
        {
          "indexed": false,
          "name": "_sender",
          "type": "address"
        }
      ],
      "name": "LogOwnedNew",
      "type": "event"
    },
    {
      "anonymous": false,
      "inputs": [
        {
          "indexed": false,
          "name": "_sender",
          "type": "address"
        },
        {
          "indexed": false,
          "name": "_newOwner",
          "type": "address"
        }
      ],
      "name": "LogOwnedChangeOwner",
      "type": "event"
    },
    {
      "anonymous": false,
      "inputs": [
        {
          "indexed": false,
          "name": "_sender",
          "type": "address"
        },
        {
          "indexed": false,
          "name": "_newOwner",
          "type": "address"
        }
      ],
      "name": "LogOwnedConfirmChangeOwner",
      "type": "event"
    }
  ],
  "bytecode": "0x6060604052341561000f57600080fd5b336000806101000a81548173ffffffffffffffffffffffffffffffffffffffff021916908373ffffffffffffffffffffffffffffffffffffffff1602179055507f3452aa652f56729b39a9198f36cd36bee3117c0112792f8707bab75d357e66e533604051808273ffffffffffffffffffffffffffffffffffffffff1673ffffffffffffffffffffffffffffffffffffffff16815260200191505060405180910390a17f8cc00c1f028a34a0114cd2b3c9d9cb40bfaaf3412c080091c5ca0db70b09554f33604051808273ffffffffffffffffffffffffffffffffffffffff1673ffffffffffffffffffffffffffffffffffffffff16815260200191505060405180910390a1610799806101246000396000f300606060405260043610610083576000357c0100000000000000000000000000000000000000000000000000000000900463ffffffff16806312253a6c146100885780633f683b6a146100b5578063585230de146100e257806369d47ad614610137578063a6f9dae11461018c578063c4bc5da5146101dd578063eae043881461020a575b600080fd5b341561009357600080fd5b61009b610237565b604051808215151515815260200191505060405180910390f35b34156100c057600080fd5b6100c8610318565b604051808215151515815260200191505060405180910390f35b34156100ed57600080fd5b6100f561032f565b604051808273ffffffffffffffffffffffffffffffffffffffff1673ffffffffffffffffffffffffffffffffffffffff16815260200191505060405180910390f35b341561014257600080fd5b61014a610359565b604051808273ffffffffffffffffffffffffffffffffffffffff1673ffffffffffffffffffffffffffffffffffffffff16815260200191505060405180910390f35b341561019757600080fd5b6101c3600480803573ffffffffffffffffffffffffffffffffffffffff16906020019091905050610382565b604051808215151515815260200191505060405180910390f35b34156101e857600080fd5b6101f06104e6565b604051808215151515815260200191505060405180910390f35b341561021557600080fd5b61021d6105c8565b604051808215151515815260200191505060405180910390f35b60008060009054906101000a900473ffffffffffffffffffffffffffffffffffffffff1673ffffffffffffffffffffffffffffffffffffffff163373ffffffffffffffffffffffffffffffffffffffff1614151561029457600080fd5b60018060146101000a81548160ff0219169083151502179055507fdc5107df853e31da94e9c53d37f4d2b899e5fb7b6308111493accae88b2659aa33604051808273ffffffffffffffffffffffffffffffffffffffff1673ffffffffffffffffffffffffffffffffffffffff16815260200191505060405180910390a16001905090565b6000600160149054906101000a900460ff16905090565b6000600160009054906101000a900473ffffffffffffffffffffffffffffffffffffffff16905090565b60008060009054906101000a900473ffffffffffffffffffffffffffffffffffffffff16905090565b60008060009054906101000a900473ffffffffffffffffffffffffffffffffffffffff1673ffffffffffffffffffffffffffffffffffffffff163373ffffffffffffffffffffffffffffffffffffffff161415156103df57600080fd5b60008273ffffffffffffffffffffffffffffffffffffffff161415151561040557600080fd5b81600160006101000a81548173ffffffffffffffffffffffffffffffffffffffff021916908373ffffffffffffffffffffffffffffffffffffffff1602179055507fae3fd6fbd4e7d8a4e53ecf89c51f72c00191a8d8d2c2fba3a5f4d9224996a6ae3383604051808373ffffffffffffffffffffffffffffffffffffffff1673ffffffffffffffffffffffffffffffffffffffff1681526020018273ffffffffffffffffffffffffffffffffffffffff1673ffffffffffffffffffffffffffffffffffffffff1681526020019250505060405180910390a160019050919050565b60008060009054906101000a900473ffffffffffffffffffffffffffffffffffffffff1673ffffffffffffffffffffffffffffffffffffffff163373ffffffffffffffffffffffffffffffffffffffff1614151561054357600080fd5b6000600160146101000a81548160ff0219169083151502179055507fbe8d7a0d2974b6d29c6b0e1f7199c77822dd586b666191ba97458c086c3d2d6433604051808273ffffffffffffffffffffffffffffffffffffffff1673ffffffffffffffffffffffffffffffffffffffff16815260200191505060405180910390a16001905090565b6000600160009054906101000a900473ffffffffffffffffffffffffffffffffffffffff1673ffffffffffffffffffffffffffffffffffffffff163373ffffffffffffffffffffffffffffffffffffffff1614151561062657600080fd5b600160009054906101000a900473ffffffffffffffffffffffffffffffffffffffff166000806101000a81548173ffffffffffffffffffffffffffffffffffffffff021916908373ffffffffffffffffffffffffffffffffffffffff160217905550600160006101000a81549073ffffffffffffffffffffffffffffffffffffffff02191690557f0d58bef243249903c29496d81a7ffbe3f394735e5ccd3e1dabbfec82c635c8d933600160009054906101000a900473ffffffffffffffffffffffffffffffffffffffff16604051808373ffffffffffffffffffffffffffffffffffffffff1673ffffffffffffffffffffffffffffffffffffffff1681526020018273ffffffffffffffffffffffffffffffffffffffff1673ffffffffffffffffffffffffffffffffffffffff1681526020019250505060405180910390a160019050905600a165627a7a7230582076373493e9dc9883626abc9daa8819a085f72188d571dbe618609de54f5645e90029",
  "source": "pragma solidity ^0.4.4;\r\n\r\n/* \r\n\r\n  Last update: 2018-02-06\r\n  Version: 2.0\r\n\r\n  Super Contract to add Stop and Resume functionality to a child contract:\r\n  - The 'onlyIfRunning' modifier allows children contracts to check for the running status\r\n  - Stopped contracts shall prevent any state-changing functions to be executed\r\n  - Only owner/administrators shall stop/resume contracts\r\n\r\n  Modifiers:\r\n  - onlyIfRunning\r\n\r\n  Core functions:\r\n  - Constructor\r\n  - stopContract\r\n  - resumeContract\r\n\r\n  Support functions:\r\n  - isStopped\r\n\r\n*/\r\n\r\nimport \"./_Owned.sol\";\r\n\r\ncontract Stoppable is Owned {\r\n    bool private stop;\r\n\r\n    modifier onlyIfRunning () { require (!stop); _; }\r\n\r\n// CORE functions\r\n\r\n        event LogStoppableNew (address _sender);\r\n    function Stoppable ()\r\n        public\r\n    {\r\n        LogStoppableNew (msg.sender);\r\n    }\r\n\r\n        event LogStoppableStopContract (address _sender);\r\n        // Function to soft stop the contract\r\n    function stopContract ()\r\n        onlyOwner\r\n        public\r\n        returns (bool _success)\r\n    {\r\n        stop = true;\r\n\r\n        LogStoppableStopContract (msg.sender);\r\n        return true;\r\n    }\r\n\r\n        event LogStoppableResumeContract (address _sender);\r\n        // Function to soft resume the contract\r\n    function resumeContract ()\r\n        onlyOwner\r\n        public\r\n        returns (bool _success)\r\n    {\r\n        stop = false;\r\n\r\n        LogStoppableResumeContract (msg.sender);\r\n        return true;\r\n    }\r\n\r\n// SUPPORT functions\r\n\r\n    function isStopped ()\r\n        public\r\n        constant\r\n        returns (bool _stop)\r\n    {\r\n        return stop;\r\n    }\r\n}",
  "sourcePath": "/home/jordi/b9/Unit5/Projects/Shop/contracts/_Stoppable.sol",
  "compiler": {
    "name": "solc",
    "version": "0.4.18+commit.9cf6e910.Emscripten.clang"
  },
  "schemaVersion": "1.0.1",
  "updatedAt": "2018-02-07T11:05:53.607Z"
}